{
	"data": {
		"bytecode": {
			"linkReferences": {},
			"object": "608060405273f9ea233d38a550c3c546b100fba94bdbb5a4a5be61010360006101000a81548173ffffffffffffffffffffffffffffffffffffffff021916908373ffffffffffffffffffffffffffffffffffffffff16021790555034801561006657600080fd5b50615100806100766000396000f3fe60806040526004361061023b5760003560e01c80638acfc82c1161012e578063cd446735116100ab578063eb2086601161006f578063eb208660146108a0578063f2fde38b146108c9578063f5b541a6146108f2578063f6d5855d1461091d578063ff9935cb146109465761023b565b8063cd446735146107c8578063cde60c9f146107f3578063d547741f1461081e578063dc4ed88714610847578063e7e709c0146108635761023b565b8063973ad7ae116100f2578063973ad7ae146106cf578063a217fddf1461070c578063c5d9082214610737578063c7cd997f14610762578063ca15c8731461078b5761023b565b80638acfc82c146105d65780638da5cb5b146106015780639010d07c1461062c57806391d148541461066957806395f03f89146106a65761023b565b8063410459ad116101bc5780637b45e5de116101805780637b45e5de146104dd578063843ca90d1461050657806387944db81461052f57806388c3ffb01461056c5780638a19c8bc146105ab5761023b565b8063410459ad1461040a5780635a2bcc1814610433578063715018a61461045e57806372f3598f1461047557806375b238fc146104b25761023b565b80632f2ff15d116102035780632f2ff15d1461032857806334a4c4c91461035157806336568abe1461037a57806338b7b79e146103a35780633bc91e28146103e15761023b565b806301ffc9a7146102405780630a67d2c71461027d578063131f4104146102a65780631e4e0091146102c2578063248a9ca3146102eb575b600080fd5b34801561024c57600080fd5b5061026760048036038101906102629190613b83565b61096f565b6040516102749190614433565b60405180910390f35b34801561028957600080fd5b506102a4600480360381019061029f919061396f565b6109e9565b005b6102c060048036038101906102bb9190613bb0565b610a5e565b005b3480156102ce57600080fd5b506102e960048036038101906102e49190613b03565b611095565b005b3480156102f757600080fd5b50610312600480360381019061030d9190613a96565b6110ce565b60405161031f919061444e565b60405180910390f35b34801561033457600080fd5b5061034f600480360381019061034a9190613ac3565b6110ee565b005b34801561035d57600080fd5b506103786004803603810190610373919061396f565b61110f565b005b34801561038657600080fd5b506103a1600480360381019061039c9190613ac3565b61117e565b005b3480156103af57600080fd5b506103ca60048036038101906103c59190613bb0565b611201565b6040516103d89291906143fc565b60405180910390f35b3480156103ed57600080fd5b5061040860048036038101906104039190613bb0565b611362565b005b34801561041657600080fd5b50610431600480360381019061042c919061396f565b611397565b005b34801561043f57600080fd5b50610448611407565b60405161045591906146e6565b60405180910390f35b34801561046a57600080fd5b5061047361140d565b005b34801561048157600080fd5b5061049c60048036038101906104979190613a29565b611421565b6040516104a991906146e6565b60405180910390f35b3480156104be57600080fd5b506104c7611447565b6040516104d4919061444e565b60405180910390f35b3480156104e957600080fd5b5061050460048036038101906104ff9190613c8a565b61146b565b005b34801561051257600080fd5b5061052d6004803603810190610528919061396f565b611686565b005b34801561053b57600080fd5b5061055660048036038101906105519190613a29565b6116f5565b60405161056391906146e6565b60405180910390f35b34801561057857600080fd5b50610593600480360381019061058e9190613bb0565b611a61565b6040516105a29392919061472a565b60405180910390f35b3480156105b757600080fd5b506105c0611af2565b6040516105cd91906146e6565b60405180910390f35b3480156105e257600080fd5b506105eb611af8565b6040516105f89190614327565b60405180910390f35b34801561060d57600080fd5b50610616611b1e565b6040516106239190614327565b60405180910390f35b34801561063857600080fd5b50610653600480360381019061064e9190613b43565b611b48565b6040516106609190614327565b60405180910390f35b34801561067557600080fd5b50610690600480360381019061068b9190613ac3565b611b77565b60405161069d9190614433565b60405180910390f35b3480156106b257600080fd5b506106cd60048036038101906106c89190613d5c565b611be2565b005b3480156106db57600080fd5b506106f660048036038101906106f19190613c0a565b611d18565b60405161070391906146e6565b60405180910390f35b34801561071857600080fd5b50610721611ddd565b60405161072e919061444e565b60405180910390f35b34801561074357600080fd5b5061074c611de4565b6040516107599190614327565b60405180910390f35b34801561076e57600080fd5b5061078960048036038101906107849190613bb0565b611e0a565b005b34801561079757600080fd5b506107b260048036038101906107ad9190613a96565b611e3f565b6040516107bf91906146e6565b60405180910390f35b3480156107d457600080fd5b506107dd611e63565b6040516107ea9190614327565b60405180910390f35b3480156107ff57600080fd5b50610808611e8e565b6040516108159190614327565b60405180910390f35b34801561082a57600080fd5b5061084560048036038101906108409190613ac3565b611eb4565b005b610861600480360381019061085c9190613c0a565b611ed5565b005b34801561086f57600080fd5b5061088a6004803603810190610885919061396f565b61236d565b60405161089791906146e6565b60405180910390f35b3480156108ac57600080fd5b506108c760048036038101906108c2919061396f565b612386565b005b3480156108d557600080fd5b506108f060048036038101906108eb919061396f565b6123f5565b005b3480156108fe57600080fd5b50610907612479565b604051610914919061444e565b60405180910390f35b34801561092957600080fd5b50610944600480360381019061093f9190613a69565b61249d565b005b34801561095257600080fd5b5061096d6004803603810190610968919061399c565b6124e5565b005b60007f5a05180f000000000000000000000000000000000000000000000000000000007bffffffffffffffffffffffffffffffffffffffffffffffffffffffff1916827bffffffffffffffffffffffffffffffffffffffffffffffffffffffff191614806109e257506109e18261273f565b5b9050919050565b7fa49807205ce4d355092ef5a8a18f56e8913cf4a201fbe287825b095693c21775610a13816127b9565b8173ffffffffffffffffffffffffffffffffffffffff166108fc479081150290604051600060405180830381858888f19350505050158015610a59573d6000803e3d6000fd5b505050565b60fb60009054906101000a900460ff168015610a7d5750600160fe5410155b610abc576040517f08c379a0000000000000000000000000000000000000000000000000000000008152600401610ab3906144e6565b60405180910390fd5b6000610100600060fe5481526020019081526020016000206001015490506000610100600060fe5481526020019081526020016000206000015490506000610100600060fe5481526020019081526020016000206006018054610b1e90614a2c565b80601f0160208091040260200160405190810160405280929190818152602001828054610b4a90614a2c565b8015610b975780601f10610b6c57610100808354040283529160200191610b97565b820191906000526020600020905b815481529060010190602001808311610b7a57829003601f168201915b5050505050905060008211610be1576040517f08c379a0000000000000000000000000000000000000000000000000000000008152600401610bd890614686565b60405180910390fd5b818484610bee919061481d565b1115610c2f576040517f08c379a0000000000000000000000000000000000000000000000000000000008152600401610c26906144c6565b60405180910390fd5b60ff548461010160003373ffffffffffffffffffffffffffffffffffffffff1673ffffffffffffffffffffffffffffffffffffffff16815260200190815260200160002054610c7e919061481d565b1115610cbf576040517f08c379a0000000000000000000000000000000000000000000000000000000008152600401610cb690614586565b60405180910390fd5b610cc933856116f5565b3414610d0a576040517f08c379a0000000000000000000000000000000000000000000000000000000008152600401610d01906146c6565b60405180910390fd5b6001841415610db6576000610d1d6127cd565b905060fb60019054906101000a900473ffffffffffffffffffffffffffffffffffffffff1673ffffffffffffffffffffffffffffffffffffffff16637117867e3383856040518463ffffffff1660e01b8152600401610d7e93929190614387565b600060405180830381600087803b158015610d9857600080fd5b505af1158015610dac573d6000803e3d6000fd5b5050505050610edc565b60008467ffffffffffffffff811115610dd257610dd1614c22565b5b604051908082528060200260200182016040528015610e005781602001602082028036833780820191505090505b50905060005b85811015610e4857610e166127cd565b828281518110610e2957610e28614bf3565b5b6020026020010181815250508080610e4090614a8f565b915050610e06565b5060fb60019054906101000a900473ffffffffffffffffffffffffffffffffffffffff1673ffffffffffffffffffffffffffffffffffffffff16639b644cda3383856040518463ffffffff1660e01b8152600401610ea893929190614342565b600060405180830381600087803b158015610ec257600080fd5b505af1158015610ed6573d6000803e3d6000fd5b50505050505b8361010160003373ffffffffffffffffffffffffffffffffffffffff1673ffffffffffffffffffffffffffffffffffffffff16815260200190815260200160002054610f28919061481d565b61010160003373ffffffffffffffffffffffffffffffffffffffff1673ffffffffffffffffffffffffffffffffffffffff16815260200190815260200160002081905550600061010360009054906101000a900473ffffffffffffffffffffffffffffffffffffffff1673ffffffffffffffffffffffffffffffffffffffff1634604051610fb59061428a565b60006040518083038185875af1925050503d8060008114610ff2576040519150601f19603f3d011682016040523d82523d6000602084013e610ff7565b606091505b505090508061103b576040517f08c379a0000000000000000000000000000000000000000000000000000000008152600401611032906145c6565b60405180910390fd5b843373ffffffffffffffffffffffffffffffffffffffff167fa2fc0bd51a5bc3589d1bbf031bceaabcd269febe30c17d6a0d84255c586004e160fe5434604051611086929190614701565b60405180910390a35050505050565b7fa49807205ce4d355092ef5a8a18f56e8913cf4a201fbe287825b095693c217756110bf816127b9565b6110c98383612989565b505050565b600060976000838152602001908152602001600020600101549050919050565b6110f7826110ce565b611100816127b9565b61110a83836129e5565b505050565b7f97667070c54ef182b0f5858b034beac1b6f3089aa2d3188bb1e8929f4fa9b929611139816127b9565b8160fb60016101000a81548173ffffffffffffffffffffffffffffffffffffffff021916908373ffffffffffffffffffffffffffffffffffffffff1602179055505050565b611186612a19565b73ffffffffffffffffffffffffffffffffffffffff168173ffffffffffffffffffffffffffffffffffffffff16146111f3576040517f08c379a00000000000000000000000000000000000000000000000000000000081526004016111ea906146a6565b60405180910390fd5b6111fd8282612a21565b5050565b60608060008314156112135760fe5492505b600061010060008581526020019081526020016000209050600061123982600301612a55565b905060008167ffffffffffffffff81111561125757611256614c22565b5b6040519080825280602002602001820160405280156112855781602001602082028036833780820191505090505b50905060008267ffffffffffffffff8111156112a4576112a3614c22565b5b6040519080825280602002602001820160405280156112d25781602001602082028036833780820191505090505b50905060005b83811015611352576000806112f98388600301612a6a90919063ffffffff16565b915091508185848151811061131157611310614bf3565b5b6020026020010181815250508084848151811061133157611330614bf3565b5b6020026020010181815250505050808061134a90614a8f565b9150506112d8565b5081819550955050505050915091565b7f97667070c54ef182b0f5858b034beac1b6f3089aa2d3188bb1e8929f4fa9b92961138c816127b9565b8160fe819055505050565b7fa49807205ce4d355092ef5a8a18f56e8913cf4a201fbe287825b095693c217756113c1816127b9565b8161010360006101000a81548173ffffffffffffffffffffffffffffffffffffffff021916908373ffffffffffffffffffffffffffffffffffffffff1602179055505050565b60ff5481565b611415612a96565b61141f6000612b14565b565b610102602052816000526040600020602052806000526040600020600091509150505481565b7fa49807205ce4d355092ef5a8a18f56e8913cf4a201fbe287825b095693c2177581565b7f97667070c54ef182b0f5858b034beac1b6f3089aa2d3188bb1e8929f4fa9b929611495816127b9565b60fe5487116114d9576040517f08c379a00000000000000000000000000000000000000000000000000000000081526004016114d0906145e6565b60405180910390fd5b815183511461151d576040517f08c379a000000000000000000000000000000000000000000000000000000000815260040161151490614606565b60405180910390fd5b85836001855161152d91906148fe565b8151811061153e5761153d614bf3565b5b602002602001015114611586576040517f08c379a000000000000000000000000000000000000000000000000000000000815260040161157d90614646565b60405180910390fd5b8660fe8190555060fb60009054906101000a900460ff166115bd57600160fb60006101000a81548160ff0219169083151502179055505b6000610100600089815260200190815260200160002090508681600001819055506000816001018190555085858260060191906115fb92919061375a565b5060005b845181101561167b5761166785828151811061161e5761161d614bf3565b5b602002602001015185838151811061163957611638614bf3565b5b602002602001015161010060008d8152602001908152602001600020600301612bda9092919063ffffffff16565b50808061167390614a8f565b9150506115ff565b505050505050505050565b7f97667070c54ef182b0f5858b034beac1b6f3089aa2d3188bb1e8929f4fa9b9296116b0816127b9565b8160fc60006101000a81548173ffffffffffffffffffffffffffffffffffffffff021916908373ffffffffffffffffffffffffffffffffffffffff1602179055505050565b6000808211611739576040517f08c379a0000000000000000000000000000000000000000000000000000000008152600401611730906145e6565b60405180910390fd5b600060fc60009054906101000a900473ffffffffffffffffffffffffffffffffffffffff1673ffffffffffffffffffffffffffffffffffffffff1663d61ebb82856040518263ffffffff1660e01b81526004016117969190614327565b60206040518083038186803b1580156117ae57600080fd5b505afa1580156117c2573d6000803e3d6000fd5b505050506040513d601f19601f820116820180604052508101906117e69190613bdd565b90506000610100600060fe5481526020019081526020016000206001015490506000600182611815919061481d565b905060008583611825919061481d565b9050610100600060fe54815260200190815260200160002060000154811115611883576040517f08c379a000000000000000000000000000000000000000000000000000000000815260040161187a90614546565b60405180910390fd5b600060018714156118bc5760648561189c60fe54612bf9565b6118a691906148a4565b6118b09190614873565b95505050505050611a5b565b60006118df610100600060fe548152602001908152602001600020600301612a55565b905060005b81811015611a485760008061191a83610100600060fe548152602001908152602001600020600301612a6a90919063ffffffff16565b9150915081871115801561192e5750818611155b15611966576064898c8361194291906148a4565b61194c91906148a4565b6119569190614873565b9950505050505050505050611a5b565b81871115801561197557508186115b15611a3357806001888461198991906148fe565b611993919061481d565b61199d91906148a4565b856119a8919061481d565b945060006119e36001856119bc919061481d565b610100600060fe548152602001908152602001600020600301612a6a90919063ffffffff16565b9150508083886119f391906148fe565b6119fd91906148a4565b86611a08919061481d565b955060648a87611a1891906148a4565b611a229190614873565b9a5050505050505050505050611a5b565b50508080611a4090614a8f565b9150506118e4565b50670de0b6b3a764000096505050505050505b92915050565b600080600080841415611ab857610100600060fe54815260200190815260200160002060000154610100600060fe54815260200190815260200160002060010154611aad60fe54612bf9565b925092509250611aeb565b60006101006000868152602001908152602001600020905080600001548160010154611ae387612bf9565b935093509350505b9193909250565b60fe5481565b60fb60019054906101000a900473ffffffffffffffffffffffffffffffffffffffff1681565b6000603360009054906101000a900473ffffffffffffffffffffffffffffffffffffffff16905090565b6000611b6f8260c96000868152602001908152602001600020612ccd90919063ffffffff16565b905092915050565b60006097600084815260200190815260200160002060000160008373ffffffffffffffffffffffffffffffffffffffff1673ffffffffffffffffffffffffffffffffffffffff16815260200190815260200160002060009054906101000a900460ff16905092915050565b7f97667070c54ef182b0f5858b034beac1b6f3089aa2d3188bb1e8929f4fa9b929611c0c816127b9565b60008811611c4f576040517f08c379a0000000000000000000000000000000000000000000000000000000008152600401611c46906145e6565b60405180910390fd5b600061010060008a815260200190815260200160002090508781600001819055508681600101819055508585826006019190611c8c92919061375a565b5060005b8451811015611d0c57611cf8858281518110611caf57611cae614bf3565b5b6020026020010151858381518110611cca57611cc9614bf3565b5b602002602001015161010060008e8152602001908152602001600020600301612bda9092919063ffffffff16565b508080611d0490614a8f565b915050611c90565b50505050505050505050565b60008060fd60009054906101000a900473ffffffffffffffffffffffffffffffffffffffff1673ffffffffffffffffffffffffffffffffffffffff16636931a569856040518263ffffffff1660e01b8152600401611d7691906146e6565b604080518083038186803b158015611d8d57600080fd5b505afa158015611da1573d6000803e3d6000fd5b505050506040513d601f19601f82011682018060405250810190611dc59190613c4a565b5090508281611dd491906148a4565b91505092915050565b6000801b81565b60fd60009054906101000a900473ffffffffffffffffffffffffffffffffffffffff1681565b7f97667070c54ef182b0f5858b034beac1b6f3089aa2d3188bb1e8929f4fa9b929611e34816127b9565b8160ff819055505050565b6000611e5c60c96000848152602001908152602001600020612ce7565b9050919050565b600061010360009054906101000a900473ffffffffffffffffffffffffffffffffffffffff16905090565b60fc60009054906101000a900473ffffffffffffffffffffffffffffffffffffffff1681565b611ebd826110ce565b611ec6816127b9565b611ed08383612a21565b505050565b60008111611f18576040517f08c379a0000000000000000000000000000000000000000000000000000000008152600401611f0f90614506565b60405180910390fd5b60008060fd60009054906101000a900473ffffffffffffffffffffffffffffffffffffffff1673ffffffffffffffffffffffffffffffffffffffff16636931a569856040518263ffffffff1660e01b8152600401611f7691906146e6565b604080518083038186803b158015611f8d57600080fd5b505afa158015611fa1573d6000803e3d6000fd5b505050506040513d601f19601f82011682018060405250810190611fc59190613c4a565b915091506000611fd58483612cfc565b905061010160003373ffffffffffffffffffffffffffffffffffffffff1673ffffffffffffffffffffffffffffffffffffffff168152602001908152602001600020548161010260003373ffffffffffffffffffffffffffffffffffffffff1673ffffffffffffffffffffffffffffffffffffffff168152602001908152602001600020600088815260200190815260200160002054612075919061481d565b11156120b6576040517f08c379a00000000000000000000000000000000000000000000000000000000081526004016120ad90614626565b60405180910390fd5b3484846120c391906148a4565b14612103576040517f08c379a00000000000000000000000000000000000000000000000000000000081526004016120fa906146c6565b60405180910390fd5b60fd60009054906101000a900473ffffffffffffffffffffffffffffffffffffffff1673ffffffffffffffffffffffffffffffffffffffff1663980e035e3387876040518463ffffffff1660e01b8152600401612162939291906143c5565b600060405180830381600087803b15801561217c57600080fd5b505af1158015612190573d6000803e3d6000fd5b505050508061010260003373ffffffffffffffffffffffffffffffffffffffff1673ffffffffffffffffffffffffffffffffffffffff1681526020019081526020016000206000878152602001908152602001600020546121f1919061481d565b61010260003373ffffffffffffffffffffffffffffffffffffffff1673ffffffffffffffffffffffffffffffffffffffff168152602001908152602001600020600087815260200190815260200160002081905550600061010360009054906101000a900473ffffffffffffffffffffffffffffffffffffffff1673ffffffffffffffffffffffffffffffffffffffff163460405161228f9061428a565b60006040518083038185875af1925050503d80600081146122cc576040519150601f19603f3d011682016040523d82523d6000602084013e6122d1565b606091505b5050905080612315576040517f08c379a000000000000000000000000000000000000000000000000000000000815260040161230c906145c6565b60405180910390fd5b853373ffffffffffffffffffffffffffffffffffffffff167e8ac56b140754c850954e3bfb3fba71ff2f689100ad997ba36b78d150dbb8d1873460405161235d929190614701565b60405180910390a3505050505050565b6101016020528060005260406000206000915090505481565b7f97667070c54ef182b0f5858b034beac1b6f3089aa2d3188bb1e8929f4fa9b9296123b0816127b9565b8160fd60006101000a81548173ffffffffffffffffffffffffffffffffffffffff021916908373ffffffffffffffffffffffffffffffffffffffff1602179055505050565b6123fd612a96565b600073ffffffffffffffffffffffffffffffffffffffff168173ffffffffffffffffffffffffffffffffffffffff16141561246d576040517f08c379a000000000000000000000000000000000000000000000000000000000815260040161246490614526565b60405180910390fd5b61247681612b14565b50565b7f97667070c54ef182b0f5858b034beac1b6f3089aa2d3188bb1e8929f4fa9b92981565b7f97667070c54ef182b0f5858b034beac1b6f3089aa2d3188bb1e8929f4fa9b9296124c7816127b9565b8160fb60006101000a81548160ff0219169083151502179055505050565b60008060019054906101000a900460ff161590508080156125165750600160008054906101000a900460ff1660ff16105b80612543575061252530612dad565b1580156125425750600160008054906101000a900460ff1660ff16145b5b612582576040517f08c379a000000000000000000000000000000000000000000000000000000000815260040161257990614566565b60405180910390fd5b60016000806101000a81548160ff021916908360ff16021790555080156125bf576001600060016101000a81548160ff0219169083151502179055505b6125c887612b14565b6125d187612dd0565b8460ff819055508360fb60016101000a81548173ffffffffffffffffffffffffffffffffffffffff021916908373ffffffffffffffffffffffffffffffffffffffff1602179055508260fc60006101000a81548173ffffffffffffffffffffffffffffffffffffffff021916908373ffffffffffffffffffffffffffffffffffffffff1602179055508160fd60006101000a81548173ffffffffffffffffffffffffffffffffffffffff021916908373ffffffffffffffffffffffffffffffffffffffff1602179055508561010360006101000a81548173ffffffffffffffffffffffffffffffffffffffff021916908373ffffffffffffffffffffffffffffffffffffffff16021790555080156127365760008060016101000a81548160ff0219169083151502179055507f7f26b83ff96e1f2b6a682f133852f6798a09c465da95921460cefb3847402498600160405161272d9190614469565b60405180910390a15b50505050505050565b60007f7965db0b000000000000000000000000000000000000000000000000000000007bffffffffffffffffffffffffffffffffffffffffffffffffffffffff1916827bffffffffffffffffffffffffffffffffffffffffffffffffffffffff191614806127b257506127b182612f1b565b5b9050919050565b6127ca816127c5612a19565b612f85565b50565b600080610100600060fe548152602001908152602001600020600101549050600081610100600060fe5481526020019081526020016000206000015461281391906148fe565b90506000610100600060fe54815260200190815260200160002060020190506000828433444260405160200161284c94939291906142d9565b6040516020818303038152906040528051906020012060001c61286f9190614b06565b905060008083600084815260200190815260200160002054146128a6578260008381526020019081526020016000205490506128aa565b8190505b60008360006001876128bc91906148fe565b81526020019081526020016000205414156128f9576001846128de91906148fe565b8360008481526020019081526020016000208190555061292f565b82600060018661290991906148fe565b815260200190815260200160002054836000848152602001908152602001600020819055505b6001610100600060fe54815260200190815260200160002060010154612955919061481d565b610100600060fe5481526020019081526020016000206001018190555060018161297f919061481d565b9550505050505090565b6000612994836110ce565b90508160976000858152602001908152602001600020600101819055508181847fbd79b86ffe0ab8e8776151514217cd7cacd52c909f66475c3af44e129f0b00ff60405160405180910390a4505050565b6129ef828261300a565b612a148160c960008581526020019081526020016000206130eb90919063ffffffff16565b505050565b600033905090565b612a2b828261311b565b612a508160c960008581526020019081526020016000206131fd90919063ffffffff16565b505050565b6000612a638260000161322d565b9050919050565b600080600080612a7d8660000186613242565b915091508160001c8160001c9350935050509250929050565b612a9e612a19565b73ffffffffffffffffffffffffffffffffffffffff16612abc611b1e565b73ffffffffffffffffffffffffffffffffffffffff1614612b12576040517f08c379a0000000000000000000000000000000000000000000000000000000008152600401612b09906145a6565b60405180910390fd5b565b6000603360009054906101000a900473ffffffffffffffffffffffffffffffffffffffff16905081603360006101000a81548173ffffffffffffffffffffffffffffffffffffffff021916908373ffffffffffffffffffffffffffffffffffffffff1602179055508173ffffffffffffffffffffffffffffffffffffffff168173ffffffffffffffffffffffffffffffffffffffff167f8be0079c531659141344cd1fd0a4f28419497f9722a3daafe3b4186f6b6457e060405160405180910390a35050565b6000612bf0846000018460001b8460001b613282565b90509392505050565b600080821415612c095760fe5491505b6000610100600084815260200190815260200160002090506000816001015490506000612c3883600301612a55565b905060005b81811015612c9857600080612c5e8387600301612a6a90919063ffffffff16565b9150915081600186612c70919061481d565b11612c8357809650505050505050612cc8565b50508080612c9090614a8f565b915050612c3d565b506000612cbd600183612cab91906148fe565b85600301612a6a90919063ffffffff16565b915050809450505050505b919050565b6000612cdc83600001836132bd565b60001c905092915050565b6000612cf5826000016132e8565b9050919050565b6000806101f49050600081841115612d2257600a85612d1b91906148a4565b9050612da2565b818585612d2f919061481d565b11612d4857600585612d4191906148a4565b9050612da1565b6000600190505b858111612d9f57828186612d63919061481d565b11612d7c57600582612d75919061481d565b9150612d8c565b600a82612d89919061481d565b91505b8080612d9790614a8f565b915050612d4f565b505b5b809250505092915050565b6000808273ffffffffffffffffffffffffffffffffffffffff163b119050919050565b600060019054906101000a900460ff16612e1f576040517f08c379a0000000000000000000000000000000000000000000000000000000008152600401612e1690614666565b60405180910390fd5b612e497fa49807205ce4d355092ef5a8a18f56e8913cf4a201fbe287825b095693c21775826132f9565b612e737f97667070c54ef182b0f5858b034beac1b6f3089aa2d3188bb1e8929f4fa9b929826132f9565b612ea47f97667070c54ef182b0f5858b034beac1b6f3089aa2d3188bb1e8929f4fa9b929612e9f612a19565b6132f9565b612eee7f97667070c54ef182b0f5858b034beac1b6f3089aa2d3188bb1e8929f4fa9b9297fa49807205ce4d355092ef5a8a18f56e8913cf4a201fbe287825b095693c21775612989565b612f187fa49807205ce4d355092ef5a8a18f56e8913cf4a201fbe287825b095693c2177580612989565b50565b60007f01ffc9a7000000000000000000000000000000000000000000000000000000007bffffffffffffffffffffffffffffffffffffffffffffffffffffffff1916827bffffffffffffffffffffffffffffffffffffffffffffffffffffffff1916149050919050565b612f8f8282611b77565b61300657612f9c81613307565b612faa8360001c6020613334565b604051602001612fbb92919061429f565b6040516020818303038152906040526040517f08c379a0000000000000000000000000000000000000000000000000000000008152600401612ffd9190614484565b60405180910390fd5b5050565b6130148282611b77565b6130e75760016097600084815260200190815260200160002060000160008373ffffffffffffffffffffffffffffffffffffffff1673ffffffffffffffffffffffffffffffffffffffff16815260200190815260200160002060006101000a81548160ff02191690831515021790555061308c612a19565b73ffffffffffffffffffffffffffffffffffffffff168173ffffffffffffffffffffffffffffffffffffffff16837f2f8788117e7eff1d82e926ec794901d17c78024a50270940304540a733656f0d60405160405180910390a45b5050565b6000613113836000018373ffffffffffffffffffffffffffffffffffffffff1660001b613570565b905092915050565b6131258282611b77565b156131f95760006097600084815260200190815260200160002060000160008373ffffffffffffffffffffffffffffffffffffffff1673ffffffffffffffffffffffffffffffffffffffff16815260200190815260200160002060006101000a81548160ff02191690831515021790555061319e612a19565b73ffffffffffffffffffffffffffffffffffffffff168173ffffffffffffffffffffffffffffffffffffffff16837ff6391f5c32d9c69d2a47ea670b442974b53935d1edc7fd64eb21e047a839171b60405160405180910390a45b5050565b6000613225836000018373ffffffffffffffffffffffffffffffffffffffff1660001b6135e0565b905092915050565b600061323b826000016136f4565b9050919050565b600080600061325d848660000161370990919063ffffffff16565b9050808560020160008381526020019081526020016000205492509250509250929050565b600081846002016000858152602001908152602001600020819055506132b4838560000161372090919063ffffffff16565b90509392505050565b60008260000182815481106132d5576132d4614bf3565b5b9060005260206000200154905092915050565b600081600001805490509050919050565b61330382826129e5565b5050565b606061332d8273ffffffffffffffffffffffffffffffffffffffff16601460ff16613334565b9050919050565b60606000600283600261334791906148a4565b613351919061481d565b67ffffffffffffffff81111561336a57613369614c22565b5b6040519080825280601f01601f19166020018201604052801561339c5781602001600182028036833780820191505090505b5090507f3000000000000000000000000000000000000000000000000000000000000000816000815181106133d4576133d3614bf3565b5b60200101907effffffffffffffffffffffffffffffffffffffffffffffffffffffffffffff1916908160001a9053507f78000000000000000000000000000000000000000000000000000000000000008160018151811061343857613437614bf3565b5b60200101907effffffffffffffffffffffffffffffffffffffffffffffffffffffffffffff1916908160001a9053506000600184600261347891906148a4565b613482919061481d565b90505b6001811115613522577f3031323334353637383961626364656600000000000000000000000000000000600f8616601081106134c4576134c3614bf3565b5b1a60f81b8282815181106134db576134da614bf3565b5b60200101907effffffffffffffffffffffffffffffffffffffffffffffffffffffffffffff1916908160001a905350600485901c94508061351b90614a02565b9050613485565b5060008414613566576040517f08c379a000000000000000000000000000000000000000000000000000000000815260040161355d906144a6565b60405180910390fd5b8091505092915050565b600061357c8383613737565b6135d55782600001829080600181540180825580915050600190039060005260206000200160009091909190915055826000018054905083600101600084815260200190815260200160002081905550600190506135da565b600090505b92915050565b600080836001016000848152602001908152602001600020549050600081146136e857600060018261361291906148fe565b905060006001866000018054905061362a91906148fe565b905081811461369957600086600001828154811061364b5761364a614bf3565b5b906000526020600020015490508087600001848154811061366f5761366e614bf3565b5b90600052602060002001819055508387600101600083815260200190815260200160002081905550505b856000018054806136ad576136ac614bc4565b5b6001900381819060005260206000200160009055905585600101600086815260200190815260200160002060009055600193505050506136ee565b60009150505b92915050565b6000613702826000016132e8565b9050919050565b600061371883600001836132bd565b905092915050565b600061372f8360000183613570565b905092915050565b600080836001016000848152602001908152602001600020541415905092915050565b82805461376690614a2c565b90600052602060002090601f01602090048101928261378857600085556137cf565b82601f106137a157803560ff19168380011785556137cf565b828001600101855582156137cf579182015b828111156137ce5782358255916020019190600101906137b3565b5b5090506137dc91906137e0565b5090565b5b808211156137f95760008160009055506001016137e1565b5090565b600061381061380b84614786565b614761565b9050808382526020820190508285602086028201111561383357613832614c5b565b5b60005b8581101561386357816138498882613945565b845260208401935060208301925050600181019050613836565b5050509392505050565b60008135905061387c81615057565b92915050565b600082601f83011261389757613896614c56565b5b81356138a78482602086016137fd565b91505092915050565b6000813590506138bf8161506e565b92915050565b6000813590506138d481615085565b92915050565b6000813590506138e98161509c565b92915050565b60008083601f84011261390557613904614c56565b5b8235905067ffffffffffffffff81111561392257613921614c51565b5b60208301915083600182028301111561393e5761393d614c5b565b5b9250929050565b600081359050613954816150b3565b92915050565b600081519050613969816150b3565b92915050565b60006020828403121561398557613984614c65565b5b60006139938482850161386d565b91505092915050565b60008060008060008060c087890312156139b9576139b8614c65565b5b60006139c789828a0161386d565b96505060206139d889828a0161386d565b95505060406139e989828a01613945565b94505060606139fa89828a0161386d565b9350506080613a0b89828a0161386d565b92505060a0613a1c89828a0161386d565b9150509295509295509295565b60008060408385031215613a4057613a3f614c65565b5b6000613a4e8582860161386d565b9250506020613a5f85828601613945565b9150509250929050565b600060208284031215613a7f57613a7e614c65565b5b6000613a8d848285016138b0565b91505092915050565b600060208284031215613aac57613aab614c65565b5b6000613aba848285016138c5565b91505092915050565b60008060408385031215613ada57613ad9614c65565b5b6000613ae8858286016138c5565b9250506020613af98582860161386d565b9150509250929050565b60008060408385031215613b1a57613b19614c65565b5b6000613b28858286016138c5565b9250506020613b39858286016138c5565b9150509250929050565b60008060408385031215613b5a57613b59614c65565b5b6000613b68858286016138c5565b9250506020613b7985828601613945565b9150509250929050565b600060208284031215613b9957613b98614c65565b5b6000613ba7848285016138da565b91505092915050565b600060208284031215613bc657613bc5614c65565b5b6000613bd484828501613945565b91505092915050565b600060208284031215613bf357613bf2614c65565b5b6000613c018482850161395a565b91505092915050565b60008060408385031215613c2157613c20614c65565b5b6000613c2f85828601613945565b9250506020613c4085828601613945565b9150509250929050565b60008060408385031215613c6157613c60614c65565b5b6000613c6f8582860161395a565b9250506020613c808582860161395a565b9150509250929050565b60008060008060008060a08789031215613ca757613ca6614c65565b5b6000613cb589828a01613945565b9650506020613cc689828a01613945565b955050604087013567ffffffffffffffff811115613ce757613ce6614c60565b5b613cf389828a016138ef565b9450945050606087013567ffffffffffffffff811115613d1657613d15614c60565b5b613d2289828a01613882565b925050608087013567ffffffffffffffff811115613d4357613d42614c60565b5b613d4f89828a01613882565b9150509295509295509295565b600080600080600080600060c0888a031215613d7b57613d7a614c65565b5b6000613d898a828b01613945565b9750506020613d9a8a828b01613945565b9650506040613dab8a828b01613945565b955050606088013567ffffffffffffffff811115613dcc57613dcb614c60565b5b613dd88a828b016138ef565b9450945050608088013567ffffffffffffffff811115613dfb57613dfa614c60565b5b613e078a828b01613882565b92505060a088013567ffffffffffffffff811115613e2857613e27614c60565b5b613e348a828b01613882565b91505092959891949750929550565b6000613e4f8383614255565b60208301905092915050565b613e6481614932565b82525050565b613e7b613e7682614932565b614ad8565b82525050565b6000613e8c826147c2565b613e9681856147e5565b9350613ea1836147b2565b8060005b83811015613ed2578151613eb98882613e43565b9750613ec4836147d8565b925050600181019050613ea5565b5085935050505092915050565b613ee881614944565b82525050565b613ef781614950565b82525050565b613f06816149bd565b82525050565b6000613f17826147cd565b613f218185614801565b9350613f318185602086016149cf565b613f3a81614c6a565b840191505092915050565b6000613f50826147cd565b613f5a8185614812565b9350613f6a8185602086016149cf565b80840191505092915050565b6000613f83602083614801565b9150613f8e82614c88565b602082019050919050565b6000613fa6600883614801565b9150613fb182614cb1565b602082019050919050565b6000613fc9601283614801565b9150613fd482614cda565b602082019050919050565b6000613fec600c83614801565b9150613ff782614d03565b602082019050919050565b600061400f602683614801565b915061401a82614d2c565b604082019050919050565b6000614032601d83614801565b915061403d82614d7b565b602082019050919050565b6000614055602e83614801565b915061406082614da4565b604082019050919050565b6000614078600e83614801565b915061408382614df3565b602082019050919050565b600061409b602083614801565b91506140a682614e1c565b602082019050919050565b60006140be600c83614801565b91506140c982614e45565b602082019050919050565b60006140e1600283614801565b91506140ec82614e6e565b602082019050919050565b6000614104600283614801565b915061410f82614e97565b602082019050919050565b6000614127601083614801565b915061413282614ec0565b602082019050919050565b600061414a600283614801565b915061415582614ee9565b602082019050919050565b600061416d6000836147f6565b915061417882614f12565b600082019050919050565b6000614190602b83614801565b915061419b82614f15565b604082019050919050565b60006141b3601783614812565b91506141be82614f64565b601782019050919050565b60006141d6601183614801565b91506141e182614f8d565b602082019050919050565b60006141f9601183614812565b915061420482614fb6565b601182019050919050565b600061421c602f83614801565b915061422782614fdf565b604082019050919050565b600061423f600b83614801565b915061424a8261502e565b602082019050919050565b61425e816149a6565b82525050565b61426d816149a6565b82525050565b61428461427f826149a6565b614afc565b82525050565b600061429582614160565b9150819050919050565b60006142aa826141a6565b91506142b68285613f45565b91506142c1826141ec565b91506142cd8284613f45565b91508190509392505050565b60006142e58287614273565b6020820191506142f58286613e6a565b6014820191506143058285614273565b6020820191506143158284614273565b60208201915081905095945050505050565b600060208201905061433c6000830184613e5b565b92915050565b60006060820190506143576000830186613e5b565b81810360208301526143698185613e81565b9050818103604083015261437d8184613f0c565b9050949350505050565b600060608201905061439c6000830186613e5b565b6143a96020830185614264565b81810360408301526143bb8184613f0c565b9050949350505050565b60006060820190506143da6000830186613e5b565b6143e76020830185614264565b6143f46040830184614264565b949350505050565b600060408201905081810360008301526144168185613e81565b9050818103602083015261442a8184613e81565b90509392505050565b60006020820190506144486000830184613edf565b92915050565b60006020820190506144636000830184613eee565b92915050565b600060208201905061447e6000830184613efd565b92915050565b6000602082019050818103600083015261449e8184613f0c565b905092915050565b600060208201905081810360008301526144bf81613f76565b9050919050565b600060208201905081810360008301526144df81613f99565b9050919050565b600060208201905081810360008301526144ff81613fbc565b9050919050565b6000602082019050818103600083015261451f81613fdf565b9050919050565b6000602082019050818103600083015261453f81614002565b9050919050565b6000602082019050818103600083015261455f81614025565b9050919050565b6000602082019050818103600083015261457f81614048565b9050919050565b6000602082019050818103600083015261459f8161406b565b9050919050565b600060208201905081810360008301526145bf8161408e565b9050919050565b600060208201905081810360008301526145df816140b1565b9050919050565b600060208201905081810360008301526145ff816140d4565b9050919050565b6000602082019050818103600083015261461f816140f7565b9050919050565b6000602082019050818103600083015261463f8161411a565b9050919050565b6000602082019050818103600083015261465f8161413d565b9050919050565b6000602082019050818103600083015261467f81614183565b9050919050565b6000602082019050818103600083015261469f816141c9565b9050919050565b600060208201905081810360008301526146bf8161420f565b9050919050565b600060208201905081810360008301526146df81614232565b9050919050565b60006020820190506146fb6000830184614264565b92915050565b60006040820190506147166000830185614264565b6147236020830184614264565b9392505050565b600060608201905061473f6000830186614264565b61474c6020830185614264565b6147596040830184614264565b949350505050565b600061476b61477c565b90506147778282614a5e565b919050565b6000604051905090565b600067ffffffffffffffff8211156147a1576147a0614c22565b5b602082029050602081019050919050565b6000819050602082019050919050565b600081519050919050565b600081519050919050565b6000602082019050919050565b600082825260208201905092915050565b600081905092915050565b600082825260208201905092915050565b600081905092915050565b6000614828826149a6565b9150614833836149a6565b9250827fffffffffffffffffffffffffffffffffffffffffffffffffffffffffffffffff0382111561486857614867614b37565b5b828201905092915050565b600061487e826149a6565b9150614889836149a6565b92508261489957614898614b66565b5b828204905092915050565b60006148af826149a6565b91506148ba836149a6565b9250817fffffffffffffffffffffffffffffffffffffffffffffffffffffffffffffffff04831182151516156148f3576148f2614b37565b5b828202905092915050565b6000614909826149a6565b9150614914836149a6565b92508282101561492757614926614b37565b5b828203905092915050565b600061493d82614986565b9050919050565b60008115159050919050565b6000819050919050565b60007fffffffff0000000000000000000000000000000000000000000000000000000082169050919050565b600073ffffffffffffffffffffffffffffffffffffffff82169050919050565b6000819050919050565b600060ff82169050919050565b60006149c8826149b0565b9050919050565b60005b838110156149ed5780820151818401526020810190506149d2565b838111156149fc576000848401525b50505050565b6000614a0d826149a6565b91506000821415614a2157614a20614b37565b5b600182039050919050565b60006002820490506001821680614a4457607f821691505b60208210811415614a5857614a57614b95565b5b50919050565b614a6782614c6a565b810181811067ffffffffffffffff82111715614a8657614a85614c22565b5b80604052505050565b6000614a9a826149a6565b91507fffffffffffffffffffffffffffffffffffffffffffffffffffffffffffffffff821415614acd57614acc614b37565b5b600182019050919050565b6000614ae382614aea565b9050919050565b6000614af582614c7b565b9050919050565b6000819050919050565b6000614b11826149a6565b9150614b1c836149a6565b925082614b2c57614b2b614b66565b5b828206905092915050565b7f4e487b7100000000000000000000000000000000000000000000000000000000600052601160045260246000fd5b7f4e487b7100000000000000000000000000000000000000000000000000000000600052601260045260246000fd5b7f4e487b7100000000000000000000000000000000000000000000000000000000600052602260045260246000fd5b7f4e487b7100000000000000000000000000000000000000000000000000000000600052603160045260246000fd5b7f4e487b7100000000000000000000000000000000000000000000000000000000600052603260045260246000fd5b7f4e487b7100000000000000000000000000000000000000000000000000000000600052604160045260246000fd5b600080fd5b600080fd5b600080fd5b600080fd5b600080fd5b6000601f19601f8301169050919050565b60008160601b9050919050565b7f537472696e67733a20686578206c656e67746820696e73756666696369656e74600082015250565b7f73656c6c206f7574000000000000000000000000000000000000000000000000600082015250565b7f6e6f7420616c6c6f77656420746f206275790000000000000000000000000000600082015250565b7f6e756d626572206572726f720000000000000000000000000000000000000000600082015250565b7f4f776e61626c653a206e6577206f776e657220697320746865207a65726f206160008201527f6464726573730000000000000000000000000000000000000000000000000000602082015250565b7f746865206d6178696d756d2076616c7565206973206578636565646564000000600082015250565b7f496e697469616c697a61626c653a20636f6e747261637420697320616c72656160008201527f647920696e697469616c697a6564000000000000000000000000000000000000602082015250565b7f45786365656465642074696d6573000000000000000000000000000000000000600082015250565b7f4f776e61626c653a2063616c6c6572206973206e6f7420746865206f776e6572600082015250565b7f706179626c65206572726f720000000000000000000000000000000000000000600082015250565b7f6e31000000000000000000000000000000000000000000000000000000000000600082015250565b7f6e32000000000000000000000000000000000000000000000000000000000000600082015250565b7f6e6f20656e6f756768207469636b657400000000000000000000000000000000600082015250565b7f6e33000000000000000000000000000000000000000000000000000000000000600082015250565b50565b7f496e697469616c697a61626c653a20636f6e7472616374206973206e6f74206960008201527f6e697469616c697a696e67000000000000000000000000000000000000000000602082015250565b7f416363657373436f6e74726f6c3a206163636f756e7420000000000000000000600082015250565b7f746f74616c537570706c79206572726f72000000000000000000000000000000600082015250565b7f206973206d697373696e6720726f6c6520000000000000000000000000000000600082015250565b7f416363657373436f6e74726f6c3a2063616e206f6e6c792072656e6f756e636560008201527f20726f6c657320666f722073656c660000000000000000000000000000000000602082015250565b7f76616c7565206572726f72000000000000000000000000000000000000000000600082015250565b61506081614932565b811461506b57600080fd5b50565b61507781614944565b811461508257600080fd5b50565b61508e81614950565b811461509957600080fd5b50565b6150a58161495a565b81146150b057600080fd5b50565b6150bc816149a6565b81146150c757600080fd5b5056fea2646970667358221220af43181dbb1d703514dda88070262642ca7db708a4e34ac4540739b3029d330364736f6c63430008070033",
			"opcodes": "PUSH1 0x80 PUSH1 0x40 MSTORE PUSH20 0xF9EA233D38A550C3C546B100FBA94BDBB5A4A5BE PUSH2 0x103 PUSH1 0x0 PUSH2 0x100 EXP DUP2 SLOAD DUP2 PUSH20 0xFFFFFFFFFFFFFFFFFFFFFFFFFFFFFFFFFFFFFFFF MUL NOT AND SWAP1 DUP4 PUSH20 0xFFFFFFFFFFFFFFFFFFFFFFFFFFFFFFFFFFFFFFFF AND MUL OR SWAP1 SSTORE POP CALLVALUE DUP1 ISZERO PUSH2 0x66 JUMPI PUSH1 0x0 DUP1 REVERT JUMPDEST POP PUSH2 0x5100 DUP1 PUSH2 0x76 PUSH1 0x0 CODECOPY PUSH1 0x0 RETURN INVALID PUSH1 0x80 PUSH1 0x40 MSTORE PUSH1 0x4 CALLDATASIZE LT PUSH2 0x23B JUMPI PUSH1 0x0 CALLDATALOAD PUSH1 0xE0 SHR DUP1 PUSH4 0x8ACFC82C GT PUSH2 0x12E JUMPI DUP1 PUSH4 0xCD446735 GT PUSH2 0xAB JUMPI DUP1 PUSH4 0xEB208660 GT PUSH2 0x6F JUMPI DUP1 PUSH4 0xEB208660 EQ PUSH2 0x8A0 JUMPI DUP1 PUSH4 0xF2FDE38B EQ PUSH2 0x8C9 JUMPI DUP1 PUSH4 0xF5B541A6 EQ PUSH2 0x8F2 JUMPI DUP1 PUSH4 0xF6D5855D EQ PUSH2 0x91D JUMPI DUP1 PUSH4 0xFF9935CB EQ PUSH2 0x946 JUMPI PUSH2 0x23B JUMP JUMPDEST DUP1 PUSH4 0xCD446735 EQ PUSH2 0x7C8 JUMPI DUP1 PUSH4 0xCDE60C9F EQ PUSH2 0x7F3 JUMPI DUP1 PUSH4 0xD547741F EQ PUSH2 0x81E JUMPI DUP1 PUSH4 0xDC4ED887 EQ PUSH2 0x847 JUMPI DUP1 PUSH4 0xE7E709C0 EQ PUSH2 0x863 JUMPI PUSH2 0x23B JUMP JUMPDEST DUP1 PUSH4 0x973AD7AE GT PUSH2 0xF2 JUMPI DUP1 PUSH4 0x973AD7AE EQ PUSH2 0x6CF JUMPI DUP1 PUSH4 0xA217FDDF EQ PUSH2 0x70C JUMPI DUP1 PUSH4 0xC5D90822 EQ PUSH2 0x737 JUMPI DUP1 PUSH4 0xC7CD997F EQ PUSH2 0x762 JUMPI DUP1 PUSH4 0xCA15C873 EQ PUSH2 0x78B JUMPI PUSH2 0x23B JUMP JUMPDEST DUP1 PUSH4 0x8ACFC82C EQ PUSH2 0x5D6 JUMPI DUP1 PUSH4 0x8DA5CB5B EQ PUSH2 0x601 JUMPI DUP1 PUSH4 0x9010D07C EQ PUSH2 0x62C JUMPI DUP1 PUSH4 0x91D14854 EQ PUSH2 0x669 JUMPI DUP1 PUSH4 0x95F03F89 EQ PUSH2 0x6A6 JUMPI PUSH2 0x23B JUMP JUMPDEST DUP1 PUSH4 0x410459AD GT PUSH2 0x1BC JUMPI DUP1 PUSH4 0x7B45E5DE GT PUSH2 0x180 JUMPI DUP1 PUSH4 0x7B45E5DE EQ PUSH2 0x4DD JUMPI DUP1 PUSH4 0x843CA90D EQ PUSH2 0x506 JUMPI DUP1 PUSH4 0x87944DB8 EQ PUSH2 0x52F JUMPI DUP1 PUSH4 0x88C3FFB0 EQ PUSH2 0x56C JUMPI DUP1 PUSH4 0x8A19C8BC EQ PUSH2 0x5AB JUMPI PUSH2 0x23B JUMP JUMPDEST DUP1 PUSH4 0x410459AD EQ PUSH2 0x40A JUMPI DUP1 PUSH4 0x5A2BCC18 EQ PUSH2 0x433 JUMPI DUP1 PUSH4 0x715018A6 EQ PUSH2 0x45E JUMPI DUP1 PUSH4 0x72F3598F EQ PUSH2 0x475 JUMPI DUP1 PUSH4 0x75B238FC EQ PUSH2 0x4B2 JUMPI PUSH2 0x23B JUMP JUMPDEST DUP1 PUSH4 0x2F2FF15D GT PUSH2 0x203 JUMPI DUP1 PUSH4 0x2F2FF15D EQ PUSH2 0x328 JUMPI DUP1 PUSH4 0x34A4C4C9 EQ PUSH2 0x351 JUMPI DUP1 PUSH4 0x36568ABE EQ PUSH2 0x37A JUMPI DUP1 PUSH4 0x38B7B79E EQ PUSH2 0x3A3 JUMPI DUP1 PUSH4 0x3BC91E28 EQ PUSH2 0x3E1 JUMPI PUSH2 0x23B JUMP JUMPDEST DUP1 PUSH4 0x1FFC9A7 EQ PUSH2 0x240 JUMPI DUP1 PUSH4 0xA67D2C7 EQ PUSH2 0x27D JUMPI DUP1 PUSH4 0x131F4104 EQ PUSH2 0x2A6 JUMPI DUP1 PUSH4 0x1E4E0091 EQ PUSH2 0x2C2 JUMPI DUP1 PUSH4 0x248A9CA3 EQ PUSH2 0x2EB JUMPI JUMPDEST PUSH1 0x0 DUP1 REVERT JUMPDEST CALLVALUE DUP1 ISZERO PUSH2 0x24C JUMPI PUSH1 0x0 DUP1 REVERT JUMPDEST POP PUSH2 0x267 PUSH1 0x4 DUP1 CALLDATASIZE SUB DUP2 ADD SWAP1 PUSH2 0x262 SWAP2 SWAP1 PUSH2 0x3B83 JUMP JUMPDEST PUSH2 0x96F JUMP JUMPDEST PUSH1 0x40 MLOAD PUSH2 0x274 SWAP2 SWAP1 PUSH2 0x4433 JUMP JUMPDEST PUSH1 0x40 MLOAD DUP1 SWAP2 SUB SWAP1 RETURN JUMPDEST CALLVALUE DUP1 ISZERO PUSH2 0x289 JUMPI PUSH1 0x0 DUP1 REVERT JUMPDEST POP PUSH2 0x2A4 PUSH1 0x4 DUP1 CALLDATASIZE SUB DUP2 ADD SWAP1 PUSH2 0x29F SWAP2 SWAP1 PUSH2 0x396F JUMP JUMPDEST PUSH2 0x9E9 JUMP JUMPDEST STOP JUMPDEST PUSH2 0x2C0 PUSH1 0x4 DUP1 CALLDATASIZE SUB DUP2 ADD SWAP1 PUSH2 0x2BB SWAP2 SWAP1 PUSH2 0x3BB0 JUMP JUMPDEST PUSH2 0xA5E JUMP JUMPDEST STOP JUMPDEST CALLVALUE DUP1 ISZERO PUSH2 0x2CE JUMPI PUSH1 0x0 DUP1 REVERT JUMPDEST POP PUSH2 0x2E9 PUSH1 0x4 DUP1 CALLDATASIZE SUB DUP2 ADD SWAP1 PUSH2 0x2E4 SWAP2 SWAP1 PUSH2 0x3B03 JUMP JUMPDEST PUSH2 0x1095 JUMP JUMPDEST STOP JUMPDEST CALLVALUE DUP1 ISZERO PUSH2 0x2F7 JUMPI PUSH1 0x0 DUP1 REVERT JUMPDEST POP PUSH2 0x312 PUSH1 0x4 DUP1 CALLDATASIZE SUB DUP2 ADD SWAP1 PUSH2 0x30D SWAP2 SWAP1 PUSH2 0x3A96 JUMP JUMPDEST PUSH2 0x10CE JUMP JUMPDEST PUSH1 0x40 MLOAD PUSH2 0x31F SWAP2 SWAP1 PUSH2 0x444E JUMP JUMPDEST PUSH1 0x40 MLOAD DUP1 SWAP2 SUB SWAP1 RETURN JUMPDEST CALLVALUE DUP1 ISZERO PUSH2 0x334 JUMPI PUSH1 0x0 DUP1 REVERT JUMPDEST POP PUSH2 0x34F PUSH1 0x4 DUP1 CALLDATASIZE SUB DUP2 ADD SWAP1 PUSH2 0x34A SWAP2 SWAP1 PUSH2 0x3AC3 JUMP JUMPDEST PUSH2 0x10EE JUMP JUMPDEST STOP JUMPDEST CALLVALUE DUP1 ISZERO PUSH2 0x35D JUMPI PUSH1 0x0 DUP1 REVERT JUMPDEST POP PUSH2 0x378 PUSH1 0x4 DUP1 CALLDATASIZE SUB DUP2 ADD SWAP1 PUSH2 0x373 SWAP2 SWAP1 PUSH2 0x396F JUMP JUMPDEST PUSH2 0x110F JUMP JUMPDEST STOP JUMPDEST CALLVALUE DUP1 ISZERO PUSH2 0x386 JUMPI PUSH1 0x0 DUP1 REVERT JUMPDEST POP PUSH2 0x3A1 PUSH1 0x4 DUP1 CALLDATASIZE SUB DUP2 ADD SWAP1 PUSH2 0x39C SWAP2 SWAP1 PUSH2 0x3AC3 JUMP JUMPDEST PUSH2 0x117E JUMP JUMPDEST STOP JUMPDEST CALLVALUE DUP1 ISZERO PUSH2 0x3AF JUMPI PUSH1 0x0 DUP1 REVERT JUMPDEST POP PUSH2 0x3CA PUSH1 0x4 DUP1 CALLDATASIZE SUB DUP2 ADD SWAP1 PUSH2 0x3C5 SWAP2 SWAP1 PUSH2 0x3BB0 JUMP JUMPDEST PUSH2 0x1201 JUMP JUMPDEST PUSH1 0x40 MLOAD PUSH2 0x3D8 SWAP3 SWAP2 SWAP1 PUSH2 0x43FC JUMP JUMPDEST PUSH1 0x40 MLOAD DUP1 SWAP2 SUB SWAP1 RETURN JUMPDEST CALLVALUE DUP1 ISZERO PUSH2 0x3ED JUMPI PUSH1 0x0 DUP1 REVERT JUMPDEST POP PUSH2 0x408 PUSH1 0x4 DUP1 CALLDATASIZE SUB DUP2 ADD SWAP1 PUSH2 0x403 SWAP2 SWAP1 PUSH2 0x3BB0 JUMP JUMPDEST PUSH2 0x1362 JUMP JUMPDEST STOP JUMPDEST CALLVALUE DUP1 ISZERO PUSH2 0x416 JUMPI PUSH1 0x0 DUP1 REVERT JUMPDEST POP PUSH2 0x431 PUSH1 0x4 DUP1 CALLDATASIZE SUB DUP2 ADD SWAP1 PUSH2 0x42C SWAP2 SWAP1 PUSH2 0x396F JUMP JUMPDEST PUSH2 0x1397 JUMP JUMPDEST STOP JUMPDEST CALLVALUE DUP1 ISZERO PUSH2 0x43F JUMPI PUSH1 0x0 DUP1 REVERT JUMPDEST POP PUSH2 0x448 PUSH2 0x1407 JUMP JUMPDEST PUSH1 0x40 MLOAD PUSH2 0x455 SWAP2 SWAP1 PUSH2 0x46E6 JUMP JUMPDEST PUSH1 0x40 MLOAD DUP1 SWAP2 SUB SWAP1 RETURN JUMPDEST CALLVALUE DUP1 ISZERO PUSH2 0x46A JUMPI PUSH1 0x0 DUP1 REVERT JUMPDEST POP PUSH2 0x473 PUSH2 0x140D JUMP JUMPDEST STOP JUMPDEST CALLVALUE DUP1 ISZERO PUSH2 0x481 JUMPI PUSH1 0x0 DUP1 REVERT JUMPDEST POP PUSH2 0x49C PUSH1 0x4 DUP1 CALLDATASIZE SUB DUP2 ADD SWAP1 PUSH2 0x497 SWAP2 SWAP1 PUSH2 0x3A29 JUMP JUMPDEST PUSH2 0x1421 JUMP JUMPDEST PUSH1 0x40 MLOAD PUSH2 0x4A9 SWAP2 SWAP1 PUSH2 0x46E6 JUMP JUMPDEST PUSH1 0x40 MLOAD DUP1 SWAP2 SUB SWAP1 RETURN JUMPDEST CALLVALUE DUP1 ISZERO PUSH2 0x4BE JUMPI PUSH1 0x0 DUP1 REVERT JUMPDEST POP PUSH2 0x4C7 PUSH2 0x1447 JUMP JUMPDEST PUSH1 0x40 MLOAD PUSH2 0x4D4 SWAP2 SWAP1 PUSH2 0x444E JUMP JUMPDEST PUSH1 0x40 MLOAD DUP1 SWAP2 SUB SWAP1 RETURN JUMPDEST CALLVALUE DUP1 ISZERO PUSH2 0x4E9 JUMPI PUSH1 0x0 DUP1 REVERT JUMPDEST POP PUSH2 0x504 PUSH1 0x4 DUP1 CALLDATASIZE SUB DUP2 ADD SWAP1 PUSH2 0x4FF SWAP2 SWAP1 PUSH2 0x3C8A JUMP JUMPDEST PUSH2 0x146B JUMP JUMPDEST STOP JUMPDEST CALLVALUE DUP1 ISZERO PUSH2 0x512 JUMPI PUSH1 0x0 DUP1 REVERT JUMPDEST POP PUSH2 0x52D PUSH1 0x4 DUP1 CALLDATASIZE SUB DUP2 ADD SWAP1 PUSH2 0x528 SWAP2 SWAP1 PUSH2 0x396F JUMP JUMPDEST PUSH2 0x1686 JUMP JUMPDEST STOP JUMPDEST CALLVALUE DUP1 ISZERO PUSH2 0x53B JUMPI PUSH1 0x0 DUP1 REVERT JUMPDEST POP PUSH2 0x556 PUSH1 0x4 DUP1 CALLDATASIZE SUB DUP2 ADD SWAP1 PUSH2 0x551 SWAP2 SWAP1 PUSH2 0x3A29 JUMP JUMPDEST PUSH2 0x16F5 JUMP JUMPDEST PUSH1 0x40 MLOAD PUSH2 0x563 SWAP2 SWAP1 PUSH2 0x46E6 JUMP JUMPDEST PUSH1 0x40 MLOAD DUP1 SWAP2 SUB SWAP1 RETURN JUMPDEST CALLVALUE DUP1 ISZERO PUSH2 0x578 JUMPI PUSH1 0x0 DUP1 REVERT JUMPDEST POP PUSH2 0x593 PUSH1 0x4 DUP1 CALLDATASIZE SUB DUP2 ADD SWAP1 PUSH2 0x58E SWAP2 SWAP1 PUSH2 0x3BB0 JUMP JUMPDEST PUSH2 0x1A61 JUMP JUMPDEST PUSH1 0x40 MLOAD PUSH2 0x5A2 SWAP4 SWAP3 SWAP2 SWAP1 PUSH2 0x472A JUMP JUMPDEST PUSH1 0x40 MLOAD DUP1 SWAP2 SUB SWAP1 RETURN JUMPDEST CALLVALUE DUP1 ISZERO PUSH2 0x5B7 JUMPI PUSH1 0x0 DUP1 REVERT JUMPDEST POP PUSH2 0x5C0 PUSH2 0x1AF2 JUMP JUMPDEST PUSH1 0x40 MLOAD PUSH2 0x5CD SWAP2 SWAP1 PUSH2 0x46E6 JUMP JUMPDEST PUSH1 0x40 MLOAD DUP1 SWAP2 SUB SWAP1 RETURN JUMPDEST CALLVALUE DUP1 ISZERO PUSH2 0x5E2 JUMPI PUSH1 0x0 DUP1 REVERT JUMPDEST POP PUSH2 0x5EB PUSH2 0x1AF8 JUMP JUMPDEST PUSH1 0x40 MLOAD PUSH2 0x5F8 SWAP2 SWAP1 PUSH2 0x4327 JUMP JUMPDEST PUSH1 0x40 MLOAD DUP1 SWAP2 SUB SWAP1 RETURN JUMPDEST CALLVALUE DUP1 ISZERO PUSH2 0x60D JUMPI PUSH1 0x0 DUP1 REVERT JUMPDEST POP PUSH2 0x616 PUSH2 0x1B1E JUMP JUMPDEST PUSH1 0x40 MLOAD PUSH2 0x623 SWAP2 SWAP1 PUSH2 0x4327 JUMP JUMPDEST PUSH1 0x40 MLOAD DUP1 SWAP2 SUB SWAP1 RETURN JUMPDEST CALLVALUE DUP1 ISZERO PUSH2 0x638 JUMPI PUSH1 0x0 DUP1 REVERT JUMPDEST POP PUSH2 0x653 PUSH1 0x4 DUP1 CALLDATASIZE SUB DUP2 ADD SWAP1 PUSH2 0x64E SWAP2 SWAP1 PUSH2 0x3B43 JUMP JUMPDEST PUSH2 0x1B48 JUMP JUMPDEST PUSH1 0x40 MLOAD PUSH2 0x660 SWAP2 SWAP1 PUSH2 0x4327 JUMP JUMPDEST PUSH1 0x40 MLOAD DUP1 SWAP2 SUB SWAP1 RETURN JUMPDEST CALLVALUE DUP1 ISZERO PUSH2 0x675 JUMPI PUSH1 0x0 DUP1 REVERT JUMPDEST POP PUSH2 0x690 PUSH1 0x4 DUP1 CALLDATASIZE SUB DUP2 ADD SWAP1 PUSH2 0x68B SWAP2 SWAP1 PUSH2 0x3AC3 JUMP JUMPDEST PUSH2 0x1B77 JUMP JUMPDEST PUSH1 0x40 MLOAD PUSH2 0x69D SWAP2 SWAP1 PUSH2 0x4433 JUMP JUMPDEST PUSH1 0x40 MLOAD DUP1 SWAP2 SUB SWAP1 RETURN JUMPDEST CALLVALUE DUP1 ISZERO PUSH2 0x6B2 JUMPI PUSH1 0x0 DUP1 REVERT JUMPDEST POP PUSH2 0x6CD PUSH1 0x4 DUP1 CALLDATASIZE SUB DUP2 ADD SWAP1 PUSH2 0x6C8 SWAP2 SWAP1 PUSH2 0x3D5C JUMP JUMPDEST PUSH2 0x1BE2 JUMP JUMPDEST STOP JUMPDEST CALLVALUE DUP1 ISZERO PUSH2 0x6DB JUMPI PUSH1 0x0 DUP1 REVERT JUMPDEST POP PUSH2 0x6F6 PUSH1 0x4 DUP1 CALLDATASIZE SUB DUP2 ADD SWAP1 PUSH2 0x6F1 SWAP2 SWAP1 PUSH2 0x3C0A JUMP JUMPDEST PUSH2 0x1D18 JUMP JUMPDEST PUSH1 0x40 MLOAD PUSH2 0x703 SWAP2 SWAP1 PUSH2 0x46E6 JUMP JUMPDEST PUSH1 0x40 MLOAD DUP1 SWAP2 SUB SWAP1 RETURN JUMPDEST CALLVALUE DUP1 ISZERO PUSH2 0x718 JUMPI PUSH1 0x0 DUP1 REVERT JUMPDEST POP PUSH2 0x721 PUSH2 0x1DDD JUMP JUMPDEST PUSH1 0x40 MLOAD PUSH2 0x72E SWAP2 SWAP1 PUSH2 0x444E JUMP JUMPDEST PUSH1 0x40 MLOAD DUP1 SWAP2 SUB SWAP1 RETURN JUMPDEST CALLVALUE DUP1 ISZERO PUSH2 0x743 JUMPI PUSH1 0x0 DUP1 REVERT JUMPDEST POP PUSH2 0x74C PUSH2 0x1DE4 JUMP JUMPDEST PUSH1 0x40 MLOAD PUSH2 0x759 SWAP2 SWAP1 PUSH2 0x4327 JUMP JUMPDEST PUSH1 0x40 MLOAD DUP1 SWAP2 SUB SWAP1 RETURN JUMPDEST CALLVALUE DUP1 ISZERO PUSH2 0x76E JUMPI PUSH1 0x0 DUP1 REVERT JUMPDEST POP PUSH2 0x789 PUSH1 0x4 DUP1 CALLDATASIZE SUB DUP2 ADD SWAP1 PUSH2 0x784 SWAP2 SWAP1 PUSH2 0x3BB0 JUMP JUMPDEST PUSH2 0x1E0A JUMP JUMPDEST STOP JUMPDEST CALLVALUE DUP1 ISZERO PUSH2 0x797 JUMPI PUSH1 0x0 DUP1 REVERT JUMPDEST POP PUSH2 0x7B2 PUSH1 0x4 DUP1 CALLDATASIZE SUB DUP2 ADD SWAP1 PUSH2 0x7AD SWAP2 SWAP1 PUSH2 0x3A96 JUMP JUMPDEST PUSH2 0x1E3F JUMP JUMPDEST PUSH1 0x40 MLOAD PUSH2 0x7BF SWAP2 SWAP1 PUSH2 0x46E6 JUMP JUMPDEST PUSH1 0x40 MLOAD DUP1 SWAP2 SUB SWAP1 RETURN JUMPDEST CALLVALUE DUP1 ISZERO PUSH2 0x7D4 JUMPI PUSH1 0x0 DUP1 REVERT JUMPDEST POP PUSH2 0x7DD PUSH2 0x1E63 JUMP JUMPDEST PUSH1 0x40 MLOAD PUSH2 0x7EA SWAP2 SWAP1 PUSH2 0x4327 JUMP JUMPDEST PUSH1 0x40 MLOAD DUP1 SWAP2 SUB SWAP1 RETURN JUMPDEST CALLVALUE DUP1 ISZERO PUSH2 0x7FF JUMPI PUSH1 0x0 DUP1 REVERT JUMPDEST POP PUSH2 0x808 PUSH2 0x1E8E JUMP JUMPDEST PUSH1 0x40 MLOAD PUSH2 0x815 SWAP2 SWAP1 PUSH2 0x4327 JUMP JUMPDEST PUSH1 0x40 MLOAD DUP1 SWAP2 SUB SWAP1 RETURN JUMPDEST CALLVALUE DUP1 ISZERO PUSH2 0x82A JUMPI PUSH1 0x0 DUP1 REVERT JUMPDEST POP PUSH2 0x845 PUSH1 0x4 DUP1 CALLDATASIZE SUB DUP2 ADD SWAP1 PUSH2 0x840 SWAP2 SWAP1 PUSH2 0x3AC3 JUMP JUMPDEST PUSH2 0x1EB4 JUMP JUMPDEST STOP JUMPDEST PUSH2 0x861 PUSH1 0x4 DUP1 CALLDATASIZE SUB DUP2 ADD SWAP1 PUSH2 0x85C SWAP2 SWAP1 PUSH2 0x3C0A JUMP JUMPDEST PUSH2 0x1ED5 JUMP JUMPDEST STOP JUMPDEST CALLVALUE DUP1 ISZERO PUSH2 0x86F JUMPI PUSH1 0x0 DUP1 REVERT JUMPDEST POP PUSH2 0x88A PUSH1 0x4 DUP1 CALLDATASIZE SUB DUP2 ADD SWAP1 PUSH2 0x885 SWAP2 SWAP1 PUSH2 0x396F JUMP JUMPDEST PUSH2 0x236D JUMP JUMPDEST PUSH1 0x40 MLOAD PUSH2 0x897 SWAP2 SWAP1 PUSH2 0x46E6 JUMP JUMPDEST PUSH1 0x40 MLOAD DUP1 SWAP2 SUB SWAP1 RETURN JUMPDEST CALLVALUE DUP1 ISZERO PUSH2 0x8AC JUMPI PUSH1 0x0 DUP1 REVERT JUMPDEST POP PUSH2 0x8C7 PUSH1 0x4 DUP1 CALLDATASIZE SUB DUP2 ADD SWAP1 PUSH2 0x8C2 SWAP2 SWAP1 PUSH2 0x396F JUMP JUMPDEST PUSH2 0x2386 JUMP JUMPDEST STOP JUMPDEST CALLVALUE DUP1 ISZERO PUSH2 0x8D5 JUMPI PUSH1 0x0 DUP1 REVERT JUMPDEST POP PUSH2 0x8F0 PUSH1 0x4 DUP1 CALLDATASIZE SUB DUP2 ADD SWAP1 PUSH2 0x8EB SWAP2 SWAP1 PUSH2 0x396F JUMP JUMPDEST PUSH2 0x23F5 JUMP JUMPDEST STOP JUMPDEST CALLVALUE DUP1 ISZERO PUSH2 0x8FE JUMPI PUSH1 0x0 DUP1 REVERT JUMPDEST POP PUSH2 0x907 PUSH2 0x2479 JUMP JUMPDEST PUSH1 0x40 MLOAD PUSH2 0x914 SWAP2 SWAP1 PUSH2 0x444E JUMP JUMPDEST PUSH1 0x40 MLOAD DUP1 SWAP2 SUB SWAP1 RETURN JUMPDEST CALLVALUE DUP1 ISZERO PUSH2 0x929 JUMPI PUSH1 0x0 DUP1 REVERT JUMPDEST POP PUSH2 0x944 PUSH1 0x4 DUP1 CALLDATASIZE SUB DUP2 ADD SWAP1 PUSH2 0x93F SWAP2 SWAP1 PUSH2 0x3A69 JUMP JUMPDEST PUSH2 0x249D JUMP JUMPDEST STOP JUMPDEST CALLVALUE DUP1 ISZERO PUSH2 0x952 JUMPI PUSH1 0x0 DUP1 REVERT JUMPDEST POP PUSH2 0x96D PUSH1 0x4 DUP1 CALLDATASIZE SUB DUP2 ADD SWAP1 PUSH2 0x968 SWAP2 SWAP1 PUSH2 0x399C JUMP JUMPDEST PUSH2 0x24E5 JUMP JUMPDEST STOP JUMPDEST PUSH1 0x0 PUSH32 0x5A05180F00000000000000000000000000000000000000000000000000000000 PUSH28 0xFFFFFFFFFFFFFFFFFFFFFFFFFFFFFFFFFFFFFFFFFFFFFFFFFFFFFFFF NOT AND DUP3 PUSH28 0xFFFFFFFFFFFFFFFFFFFFFFFFFFFFFFFFFFFFFFFFFFFFFFFFFFFFFFFF NOT AND EQ DUP1 PUSH2 0x9E2 JUMPI POP PUSH2 0x9E1 DUP3 PUSH2 0x273F JUMP JUMPDEST JUMPDEST SWAP1 POP SWAP2 SWAP1 POP JUMP JUMPDEST PUSH32 0xA49807205CE4D355092EF5A8A18F56E8913CF4A201FBE287825B095693C21775 PUSH2 0xA13 DUP2 PUSH2 0x27B9 JUMP JUMPDEST DUP2 PUSH20 0xFFFFFFFFFFFFFFFFFFFFFFFFFFFFFFFFFFFFFFFF AND PUSH2 0x8FC SELFBALANCE SWAP1 DUP2 ISZERO MUL SWAP1 PUSH1 0x40 MLOAD PUSH1 0x0 PUSH1 0x40 MLOAD DUP1 DUP4 SUB DUP2 DUP6 DUP9 DUP9 CALL SWAP4 POP POP POP POP ISZERO DUP1 ISZERO PUSH2 0xA59 JUMPI RETURNDATASIZE PUSH1 0x0 DUP1 RETURNDATACOPY RETURNDATASIZE PUSH1 0x0 REVERT JUMPDEST POP POP POP JUMP JUMPDEST PUSH1 0xFB PUSH1 0x0 SWAP1 SLOAD SWAP1 PUSH2 0x100 EXP SWAP1 DIV PUSH1 0xFF AND DUP1 ISZERO PUSH2 0xA7D JUMPI POP PUSH1 0x1 PUSH1 0xFE SLOAD LT ISZERO JUMPDEST PUSH2 0xABC JUMPI PUSH1 0x40 MLOAD PUSH32 0x8C379A000000000000000000000000000000000000000000000000000000000 DUP2 MSTORE PUSH1 0x4 ADD PUSH2 0xAB3 SWAP1 PUSH2 0x44E6 JUMP JUMPDEST PUSH1 0x40 MLOAD DUP1 SWAP2 SUB SWAP1 REVERT JUMPDEST PUSH1 0x0 PUSH2 0x100 PUSH1 0x0 PUSH1 0xFE SLOAD DUP2 MSTORE PUSH1 0x20 ADD SWAP1 DUP2 MSTORE PUSH1 0x20 ADD PUSH1 0x0 KECCAK256 PUSH1 0x1 ADD SLOAD SWAP1 POP PUSH1 0x0 PUSH2 0x100 PUSH1 0x0 PUSH1 0xFE SLOAD DUP2 MSTORE PUSH1 0x20 ADD SWAP1 DUP2 MSTORE PUSH1 0x20 ADD PUSH1 0x0 KECCAK256 PUSH1 0x0 ADD SLOAD SWAP1 POP PUSH1 0x0 PUSH2 0x100 PUSH1 0x0 PUSH1 0xFE SLOAD DUP2 MSTORE PUSH1 0x20 ADD SWAP1 DUP2 MSTORE PUSH1 0x20 ADD PUSH1 0x0 KECCAK256 PUSH1 0x6 ADD DUP1 SLOAD PUSH2 0xB1E SWAP1 PUSH2 0x4A2C JUMP JUMPDEST DUP1 PUSH1 0x1F ADD PUSH1 0x20 DUP1 SWAP2 DIV MUL PUSH1 0x20 ADD PUSH1 0x40 MLOAD SWAP1 DUP2 ADD PUSH1 0x40 MSTORE DUP1 SWAP3 SWAP2 SWAP1 DUP2 DUP2 MSTORE PUSH1 0x20 ADD DUP3 DUP1 SLOAD PUSH2 0xB4A SWAP1 PUSH2 0x4A2C JUMP JUMPDEST DUP1 ISZERO PUSH2 0xB97 JUMPI DUP1 PUSH1 0x1F LT PUSH2 0xB6C JUMPI PUSH2 0x100 DUP1 DUP4 SLOAD DIV MUL DUP4 MSTORE SWAP2 PUSH1 0x20 ADD SWAP2 PUSH2 0xB97 JUMP JUMPDEST DUP3 ADD SWAP2 SWAP1 PUSH1 0x0 MSTORE PUSH1 0x20 PUSH1 0x0 KECCAK256 SWAP1 JUMPDEST DUP2 SLOAD DUP2 MSTORE SWAP1 PUSH1 0x1 ADD SWAP1 PUSH1 0x20 ADD DUP1 DUP4 GT PUSH2 0xB7A JUMPI DUP3 SWAP1 SUB PUSH1 0x1F AND DUP3 ADD SWAP2 JUMPDEST POP POP POP POP POP SWAP1 POP PUSH1 0x0 DUP3 GT PUSH2 0xBE1 JUMPI PUSH1 0x40 MLOAD PUSH32 0x8C379A000000000000000000000000000000000000000000000000000000000 DUP2 MSTORE PUSH1 0x4 ADD PUSH2 0xBD8 SWAP1 PUSH2 0x4686 JUMP JUMPDEST PUSH1 0x40 MLOAD DUP1 SWAP2 SUB SWAP1 REVERT JUMPDEST DUP2 DUP5 DUP5 PUSH2 0xBEE SWAP2 SWAP1 PUSH2 0x481D JUMP JUMPDEST GT ISZERO PUSH2 0xC2F JUMPI PUSH1 0x40 MLOAD PUSH32 0x8C379A000000000000000000000000000000000000000000000000000000000 DUP2 MSTORE PUSH1 0x4 ADD PUSH2 0xC26 SWAP1 PUSH2 0x44C6 JUMP JUMPDEST PUSH1 0x40 MLOAD DUP1 SWAP2 SUB SWAP1 REVERT JUMPDEST PUSH1 0xFF SLOAD DUP5 PUSH2 0x101 PUSH1 0x0 CALLER PUSH20 0xFFFFFFFFFFFFFFFFFFFFFFFFFFFFFFFFFFFFFFFF AND PUSH20 0xFFFFFFFFFFFFFFFFFFFFFFFFFFFFFFFFFFFFFFFF AND DUP2 MSTORE PUSH1 0x20 ADD SWAP1 DUP2 MSTORE PUSH1 0x20 ADD PUSH1 0x0 KECCAK256 SLOAD PUSH2 0xC7E SWAP2 SWAP1 PUSH2 0x481D JUMP JUMPDEST GT ISZERO PUSH2 0xCBF JUMPI PUSH1 0x40 MLOAD PUSH32 0x8C379A000000000000000000000000000000000000000000000000000000000 DUP2 MSTORE PUSH1 0x4 ADD PUSH2 0xCB6 SWAP1 PUSH2 0x4586 JUMP JUMPDEST PUSH1 0x40 MLOAD DUP1 SWAP2 SUB SWAP1 REVERT JUMPDEST PUSH2 0xCC9 CALLER DUP6 PUSH2 0x16F5 JUMP JUMPDEST CALLVALUE EQ PUSH2 0xD0A JUMPI PUSH1 0x40 MLOAD PUSH32 0x8C379A000000000000000000000000000000000000000000000000000000000 DUP2 MSTORE PUSH1 0x4 ADD PUSH2 0xD01 SWAP1 PUSH2 0x46C6 JUMP JUMPDEST PUSH1 0x40 MLOAD DUP1 SWAP2 SUB SWAP1 REVERT JUMPDEST PUSH1 0x1 DUP5 EQ ISZERO PUSH2 0xDB6 JUMPI PUSH1 0x0 PUSH2 0xD1D PUSH2 0x27CD JUMP JUMPDEST SWAP1 POP PUSH1 0xFB PUSH1 0x1 SWAP1 SLOAD SWAP1 PUSH2 0x100 EXP SWAP1 DIV PUSH20 0xFFFFFFFFFFFFFFFFFFFFFFFFFFFFFFFFFFFFFFFF AND PUSH20 0xFFFFFFFFFFFFFFFFFFFFFFFFFFFFFFFFFFFFFFFF AND PUSH4 0x7117867E CALLER DUP4 DUP6 PUSH1 0x40 MLOAD DUP5 PUSH4 0xFFFFFFFF AND PUSH1 0xE0 SHL DUP2 MSTORE PUSH1 0x4 ADD PUSH2 0xD7E SWAP4 SWAP3 SWAP2 SWAP1 PUSH2 0x4387 JUMP JUMPDEST PUSH1 0x0 PUSH1 0x40 MLOAD DUP1 DUP4 SUB DUP2 PUSH1 0x0 DUP8 DUP1 EXTCODESIZE ISZERO DUP1 ISZERO PUSH2 0xD98 JUMPI PUSH1 0x0 DUP1 REVERT JUMPDEST POP GAS CALL ISZERO DUP1 ISZERO PUSH2 0xDAC JUMPI RETURNDATASIZE PUSH1 0x0 DUP1 RETURNDATACOPY RETURNDATASIZE PUSH1 0x0 REVERT JUMPDEST POP POP POP POP POP PUSH2 0xEDC JUMP JUMPDEST PUSH1 0x0 DUP5 PUSH8 0xFFFFFFFFFFFFFFFF DUP2 GT ISZERO PUSH2 0xDD2 JUMPI PUSH2 0xDD1 PUSH2 0x4C22 JUMP JUMPDEST JUMPDEST PUSH1 0x40 MLOAD SWAP1 DUP1 DUP3 MSTORE DUP1 PUSH1 0x20 MUL PUSH1 0x20 ADD DUP3 ADD PUSH1 0x40 MSTORE DUP1 ISZERO PUSH2 0xE00 JUMPI DUP2 PUSH1 0x20 ADD PUSH1 0x20 DUP3 MUL DUP1 CALLDATASIZE DUP4 CALLDATACOPY DUP1 DUP3 ADD SWAP2 POP POP SWAP1 POP JUMPDEST POP SWAP1 POP PUSH1 0x0 JUMPDEST DUP6 DUP2 LT ISZERO PUSH2 0xE48 JUMPI PUSH2 0xE16 PUSH2 0x27CD JUMP JUMPDEST DUP3 DUP3 DUP2 MLOAD DUP2 LT PUSH2 0xE29 JUMPI PUSH2 0xE28 PUSH2 0x4BF3 JUMP JUMPDEST JUMPDEST PUSH1 0x20 MUL PUSH1 0x20 ADD ADD DUP2 DUP2 MSTORE POP POP DUP1 DUP1 PUSH2 0xE40 SWAP1 PUSH2 0x4A8F JUMP JUMPDEST SWAP2 POP POP PUSH2 0xE06 JUMP JUMPDEST POP PUSH1 0xFB PUSH1 0x1 SWAP1 SLOAD SWAP1 PUSH2 0x100 EXP SWAP1 DIV PUSH20 0xFFFFFFFFFFFFFFFFFFFFFFFFFFFFFFFFFFFFFFFF AND PUSH20 0xFFFFFFFFFFFFFFFFFFFFFFFFFFFFFFFFFFFFFFFF AND PUSH4 0x9B644CDA CALLER DUP4 DUP6 PUSH1 0x40 MLOAD DUP5 PUSH4 0xFFFFFFFF AND PUSH1 0xE0 SHL DUP2 MSTORE PUSH1 0x4 ADD PUSH2 0xEA8 SWAP4 SWAP3 SWAP2 SWAP1 PUSH2 0x4342 JUMP JUMPDEST PUSH1 0x0 PUSH1 0x40 MLOAD DUP1 DUP4 SUB DUP2 PUSH1 0x0 DUP8 DUP1 EXTCODESIZE ISZERO DUP1 ISZERO PUSH2 0xEC2 JUMPI PUSH1 0x0 DUP1 REVERT JUMPDEST POP GAS CALL ISZERO DUP1 ISZERO PUSH2 0xED6 JUMPI RETURNDATASIZE PUSH1 0x0 DUP1 RETURNDATACOPY RETURNDATASIZE PUSH1 0x0 REVERT JUMPDEST POP POP POP POP POP JUMPDEST DUP4 PUSH2 0x101 PUSH1 0x0 CALLER PUSH20 0xFFFFFFFFFFFFFFFFFFFFFFFFFFFFFFFFFFFFFFFF AND PUSH20 0xFFFFFFFFFFFFFFFFFFFFFFFFFFFFFFFFFFFFFFFF AND DUP2 MSTORE PUSH1 0x20 ADD SWAP1 DUP2 MSTORE PUSH1 0x20 ADD PUSH1 0x0 KECCAK256 SLOAD PUSH2 0xF28 SWAP2 SWAP1 PUSH2 0x481D JUMP JUMPDEST PUSH2 0x101 PUSH1 0x0 CALLER PUSH20 0xFFFFFFFFFFFFFFFFFFFFFFFFFFFFFFFFFFFFFFFF AND PUSH20 0xFFFFFFFFFFFFFFFFFFFFFFFFFFFFFFFFFFFFFFFF AND DUP2 MSTORE PUSH1 0x20 ADD SWAP1 DUP2 MSTORE PUSH1 0x20 ADD PUSH1 0x0 KECCAK256 DUP2 SWAP1 SSTORE POP PUSH1 0x0 PUSH2 0x103 PUSH1 0x0 SWAP1 SLOAD SWAP1 PUSH2 0x100 EXP SWAP1 DIV PUSH20 0xFFFFFFFFFFFFFFFFFFFFFFFFFFFFFFFFFFFFFFFF AND PUSH20 0xFFFFFFFFFFFFFFFFFFFFFFFFFFFFFFFFFFFFFFFF AND CALLVALUE PUSH1 0x40 MLOAD PUSH2 0xFB5 SWAP1 PUSH2 0x428A JUMP JUMPDEST PUSH1 0x0 PUSH1 0x40 MLOAD DUP1 DUP4 SUB DUP2 DUP6 DUP8 GAS CALL SWAP3 POP POP POP RETURNDATASIZE DUP1 PUSH1 0x0 DUP2 EQ PUSH2 0xFF2 JUMPI PUSH1 0x40 MLOAD SWAP2 POP PUSH1 0x1F NOT PUSH1 0x3F RETURNDATASIZE ADD AND DUP3 ADD PUSH1 0x40 MSTORE RETURNDATASIZE DUP3 MSTORE RETURNDATASIZE PUSH1 0x0 PUSH1 0x20 DUP5 ADD RETURNDATACOPY PUSH2 0xFF7 JUMP JUMPDEST PUSH1 0x60 SWAP2 POP JUMPDEST POP POP SWAP1 POP DUP1 PUSH2 0x103B JUMPI PUSH1 0x40 MLOAD PUSH32 0x8C379A000000000000000000000000000000000000000000000000000000000 DUP2 MSTORE PUSH1 0x4 ADD PUSH2 0x1032 SWAP1 PUSH2 0x45C6 JUMP JUMPDEST PUSH1 0x40 MLOAD DUP1 SWAP2 SUB SWAP1 REVERT JUMPDEST DUP5 CALLER PUSH20 0xFFFFFFFFFFFFFFFFFFFFFFFFFFFFFFFFFFFFFFFF AND PUSH32 0xA2FC0BD51A5BC3589D1BBF031BCEAABCD269FEBE30C17D6A0D84255C586004E1 PUSH1 0xFE SLOAD CALLVALUE PUSH1 0x40 MLOAD PUSH2 0x1086 SWAP3 SWAP2 SWAP1 PUSH2 0x4701 JUMP JUMPDEST PUSH1 0x40 MLOAD DUP1 SWAP2 SUB SWAP1 LOG3 POP POP POP POP POP JUMP JUMPDEST PUSH32 0xA49807205CE4D355092EF5A8A18F56E8913CF4A201FBE287825B095693C21775 PUSH2 0x10BF DUP2 PUSH2 0x27B9 JUMP JUMPDEST PUSH2 0x10C9 DUP4 DUP4 PUSH2 0x2989 JUMP JUMPDEST POP POP POP JUMP JUMPDEST PUSH1 0x0 PUSH1 0x97 PUSH1 0x0 DUP4 DUP2 MSTORE PUSH1 0x20 ADD SWAP1 DUP2 MSTORE PUSH1 0x20 ADD PUSH1 0x0 KECCAK256 PUSH1 0x1 ADD SLOAD SWAP1 POP SWAP2 SWAP1 POP JUMP JUMPDEST PUSH2 0x10F7 DUP3 PUSH2 0x10CE JUMP JUMPDEST PUSH2 0x1100 DUP2 PUSH2 0x27B9 JUMP JUMPDEST PUSH2 0x110A DUP4 DUP4 PUSH2 0x29E5 JUMP JUMPDEST POP POP POP JUMP JUMPDEST PUSH32 0x97667070C54EF182B0F5858B034BEAC1B6F3089AA2D3188BB1E8929F4FA9B929 PUSH2 0x1139 DUP2 PUSH2 0x27B9 JUMP JUMPDEST DUP2 PUSH1 0xFB PUSH1 0x1 PUSH2 0x100 EXP DUP2 SLOAD DUP2 PUSH20 0xFFFFFFFFFFFFFFFFFFFFFFFFFFFFFFFFFFFFFFFF MUL NOT AND SWAP1 DUP4 PUSH20 0xFFFFFFFFFFFFFFFFFFFFFFFFFFFFFFFFFFFFFFFF AND MUL OR SWAP1 SSTORE POP POP POP JUMP JUMPDEST PUSH2 0x1186 PUSH2 0x2A19 JUMP JUMPDEST PUSH20 0xFFFFFFFFFFFFFFFFFFFFFFFFFFFFFFFFFFFFFFFF AND DUP2 PUSH20 0xFFFFFFFFFFFFFFFFFFFFFFFFFFFFFFFFFFFFFFFF AND EQ PUSH2 0x11F3 JUMPI PUSH1 0x40 MLOAD PUSH32 0x8C379A000000000000000000000000000000000000000000000000000000000 DUP2 MSTORE PUSH1 0x4 ADD PUSH2 0x11EA SWAP1 PUSH2 0x46A6 JUMP JUMPDEST PUSH1 0x40 MLOAD DUP1 SWAP2 SUB SWAP1 REVERT JUMPDEST PUSH2 0x11FD DUP3 DUP3 PUSH2 0x2A21 JUMP JUMPDEST POP POP JUMP JUMPDEST PUSH1 0x60 DUP1 PUSH1 0x0 DUP4 EQ ISZERO PUSH2 0x1213 JUMPI PUSH1 0xFE SLOAD SWAP3 POP JUMPDEST PUSH1 0x0 PUSH2 0x100 PUSH1 0x0 DUP6 DUP2 MSTORE PUSH1 0x20 ADD SWAP1 DUP2 MSTORE PUSH1 0x20 ADD PUSH1 0x0 KECCAK256 SWAP1 POP PUSH1 0x0 PUSH2 0x1239 DUP3 PUSH1 0x3 ADD PUSH2 0x2A55 JUMP JUMPDEST SWAP1 POP PUSH1 0x0 DUP2 PUSH8 0xFFFFFFFFFFFFFFFF DUP2 GT ISZERO PUSH2 0x1257 JUMPI PUSH2 0x1256 PUSH2 0x4C22 JUMP JUMPDEST JUMPDEST PUSH1 0x40 MLOAD SWAP1 DUP1 DUP3 MSTORE DUP1 PUSH1 0x20 MUL PUSH1 0x20 ADD DUP3 ADD PUSH1 0x40 MSTORE DUP1 ISZERO PUSH2 0x1285 JUMPI DUP2 PUSH1 0x20 ADD PUSH1 0x20 DUP3 MUL DUP1 CALLDATASIZE DUP4 CALLDATACOPY DUP1 DUP3 ADD SWAP2 POP POP SWAP1 POP JUMPDEST POP SWAP1 POP PUSH1 0x0 DUP3 PUSH8 0xFFFFFFFFFFFFFFFF DUP2 GT ISZERO PUSH2 0x12A4 JUMPI PUSH2 0x12A3 PUSH2 0x4C22 JUMP JUMPDEST JUMPDEST PUSH1 0x40 MLOAD SWAP1 DUP1 DUP3 MSTORE DUP1 PUSH1 0x20 MUL PUSH1 0x20 ADD DUP3 ADD PUSH1 0x40 MSTORE DUP1 ISZERO PUSH2 0x12D2 JUMPI DUP2 PUSH1 0x20 ADD PUSH1 0x20 DUP3 MUL DUP1 CALLDATASIZE DUP4 CALLDATACOPY DUP1 DUP3 ADD SWAP2 POP POP SWAP1 POP JUMPDEST POP SWAP1 POP PUSH1 0x0 JUMPDEST DUP4 DUP2 LT ISZERO PUSH2 0x1352 JUMPI PUSH1 0x0 DUP1 PUSH2 0x12F9 DUP4 DUP9 PUSH1 0x3 ADD PUSH2 0x2A6A SWAP1 SWAP2 SWAP1 PUSH4 0xFFFFFFFF AND JUMP JUMPDEST SWAP2 POP SWAP2 POP DUP2 DUP6 DUP5 DUP2 MLOAD DUP2 LT PUSH2 0x1311 JUMPI PUSH2 0x1310 PUSH2 0x4BF3 JUMP JUMPDEST JUMPDEST PUSH1 0x20 MUL PUSH1 0x20 ADD ADD DUP2 DUP2 MSTORE POP POP DUP1 DUP5 DUP5 DUP2 MLOAD DUP2 LT PUSH2 0x1331 JUMPI PUSH2 0x1330 PUSH2 0x4BF3 JUMP JUMPDEST JUMPDEST PUSH1 0x20 MUL PUSH1 0x20 ADD ADD DUP2 DUP2 MSTORE POP POP POP POP DUP1 DUP1 PUSH2 0x134A SWAP1 PUSH2 0x4A8F JUMP JUMPDEST SWAP2 POP POP PUSH2 0x12D8 JUMP JUMPDEST POP DUP2 DUP2 SWAP6 POP SWAP6 POP POP POP POP POP SWAP2 POP SWAP2 JUMP JUMPDEST PUSH32 0x97667070C54EF182B0F5858B034BEAC1B6F3089AA2D3188BB1E8929F4FA9B929 PUSH2 0x138C DUP2 PUSH2 0x27B9 JUMP JUMPDEST DUP2 PUSH1 0xFE DUP2 SWAP1 SSTORE POP POP POP JUMP JUMPDEST PUSH32 0xA49807205CE4D355092EF5A8A18F56E8913CF4A201FBE287825B095693C21775 PUSH2 0x13C1 DUP2 PUSH2 0x27B9 JUMP JUMPDEST DUP2 PUSH2 0x103 PUSH1 0x0 PUSH2 0x100 EXP DUP2 SLOAD DUP2 PUSH20 0xFFFFFFFFFFFFFFFFFFFFFFFFFFFFFFFFFFFFFFFF MUL NOT AND SWAP1 DUP4 PUSH20 0xFFFFFFFFFFFFFFFFFFFFFFFFFFFFFFFFFFFFFFFF AND MUL OR SWAP1 SSTORE POP POP POP JUMP JUMPDEST PUSH1 0xFF SLOAD DUP2 JUMP JUMPDEST PUSH2 0x1415 PUSH2 0x2A96 JUMP JUMPDEST PUSH2 0x141F PUSH1 0x0 PUSH2 0x2B14 JUMP JUMPDEST JUMP JUMPDEST PUSH2 0x102 PUSH1 0x20 MSTORE DUP2 PUSH1 0x0 MSTORE PUSH1 0x40 PUSH1 0x0 KECCAK256 PUSH1 0x20 MSTORE DUP1 PUSH1 0x0 MSTORE PUSH1 0x40 PUSH1 0x0 KECCAK256 PUSH1 0x0 SWAP2 POP SWAP2 POP POP SLOAD DUP2 JUMP JUMPDEST PUSH32 0xA49807205CE4D355092EF5A8A18F56E8913CF4A201FBE287825B095693C21775 DUP2 JUMP JUMPDEST PUSH32 0x97667070C54EF182B0F5858B034BEAC1B6F3089AA2D3188BB1E8929F4FA9B929 PUSH2 0x1495 DUP2 PUSH2 0x27B9 JUMP JUMPDEST PUSH1 0xFE SLOAD DUP8 GT PUSH2 0x14D9 JUMPI PUSH1 0x40 MLOAD PUSH32 0x8C379A000000000000000000000000000000000000000000000000000000000 DUP2 MSTORE PUSH1 0x4 ADD PUSH2 0x14D0 SWAP1 PUSH2 0x45E6 JUMP JUMPDEST PUSH1 0x40 MLOAD DUP1 SWAP2 SUB SWAP1 REVERT JUMPDEST DUP2 MLOAD DUP4 MLOAD EQ PUSH2 0x151D JUMPI PUSH1 0x40 MLOAD PUSH32 0x8C379A000000000000000000000000000000000000000000000000000000000 DUP2 MSTORE PUSH1 0x4 ADD PUSH2 0x1514 SWAP1 PUSH2 0x4606 JUMP JUMPDEST PUSH1 0x40 MLOAD DUP1 SWAP2 SUB SWAP1 REVERT JUMPDEST DUP6 DUP4 PUSH1 0x1 DUP6 MLOAD PUSH2 0x152D SWAP2 SWAP1 PUSH2 0x48FE JUMP JUMPDEST DUP2 MLOAD DUP2 LT PUSH2 0x153E JUMPI PUSH2 0x153D PUSH2 0x4BF3 JUMP JUMPDEST JUMPDEST PUSH1 0x20 MUL PUSH1 0x20 ADD ADD MLOAD EQ PUSH2 0x1586 JUMPI PUSH1 0x40 MLOAD PUSH32 0x8C379A000000000000000000000000000000000000000000000000000000000 DUP2 MSTORE PUSH1 0x4 ADD PUSH2 0x157D SWAP1 PUSH2 0x4646 JUMP JUMPDEST PUSH1 0x40 MLOAD DUP1 SWAP2 SUB SWAP1 REVERT JUMPDEST DUP7 PUSH1 0xFE DUP2 SWAP1 SSTORE POP PUSH1 0xFB PUSH1 0x0 SWAP1 SLOAD SWAP1 PUSH2 0x100 EXP SWAP1 DIV PUSH1 0xFF AND PUSH2 0x15BD JUMPI PUSH1 0x1 PUSH1 0xFB PUSH1 0x0 PUSH2 0x100 EXP DUP2 SLOAD DUP2 PUSH1 0xFF MUL NOT AND SWAP1 DUP4 ISZERO ISZERO MUL OR SWAP1 SSTORE POP JUMPDEST PUSH1 0x0 PUSH2 0x100 PUSH1 0x0 DUP10 DUP2 MSTORE PUSH1 0x20 ADD SWAP1 DUP2 MSTORE PUSH1 0x20 ADD PUSH1 0x0 KECCAK256 SWAP1 POP DUP7 DUP2 PUSH1 0x0 ADD DUP2 SWAP1 SSTORE POP PUSH1 0x0 DUP2 PUSH1 0x1 ADD DUP2 SWAP1 SSTORE POP DUP6 DUP6 DUP3 PUSH1 0x6 ADD SWAP2 SWAP1 PUSH2 0x15FB SWAP3 SWAP2 SWAP1 PUSH2 0x375A JUMP JUMPDEST POP PUSH1 0x0 JUMPDEST DUP5 MLOAD DUP2 LT ISZERO PUSH2 0x167B JUMPI PUSH2 0x1667 DUP6 DUP3 DUP2 MLOAD DUP2 LT PUSH2 0x161E JUMPI PUSH2 0x161D PUSH2 0x4BF3 JUMP JUMPDEST JUMPDEST PUSH1 0x20 MUL PUSH1 0x20 ADD ADD MLOAD DUP6 DUP4 DUP2 MLOAD DUP2 LT PUSH2 0x1639 JUMPI PUSH2 0x1638 PUSH2 0x4BF3 JUMP JUMPDEST JUMPDEST PUSH1 0x20 MUL PUSH1 0x20 ADD ADD MLOAD PUSH2 0x100 PUSH1 0x0 DUP14 DUP2 MSTORE PUSH1 0x20 ADD SWAP1 DUP2 MSTORE PUSH1 0x20 ADD PUSH1 0x0 KECCAK256 PUSH1 0x3 ADD PUSH2 0x2BDA SWAP1 SWAP3 SWAP2 SWAP1 PUSH4 0xFFFFFFFF AND JUMP JUMPDEST POP DUP1 DUP1 PUSH2 0x1673 SWAP1 PUSH2 0x4A8F JUMP JUMPDEST SWAP2 POP POP PUSH2 0x15FF JUMP JUMPDEST POP POP POP POP POP POP POP POP POP JUMP JUMPDEST PUSH32 0x97667070C54EF182B0F5858B034BEAC1B6F3089AA2D3188BB1E8929F4FA9B929 PUSH2 0x16B0 DUP2 PUSH2 0x27B9 JUMP JUMPDEST DUP2 PUSH1 0xFC PUSH1 0x0 PUSH2 0x100 EXP DUP2 SLOAD DUP2 PUSH20 0xFFFFFFFFFFFFFFFFFFFFFFFFFFFFFFFFFFFFFFFF MUL NOT AND SWAP1 DUP4 PUSH20 0xFFFFFFFFFFFFFFFFFFFFFFFFFFFFFFFFFFFFFFFF AND MUL OR SWAP1 SSTORE POP POP POP JUMP JUMPDEST PUSH1 0x0 DUP1 DUP3 GT PUSH2 0x1739 JUMPI PUSH1 0x40 MLOAD PUSH32 0x8C379A000000000000000000000000000000000000000000000000000000000 DUP2 MSTORE PUSH1 0x4 ADD PUSH2 0x1730 SWAP1 PUSH2 0x45E6 JUMP JUMPDEST PUSH1 0x40 MLOAD DUP1 SWAP2 SUB SWAP1 REVERT JUMPDEST PUSH1 0x0 PUSH1 0xFC PUSH1 0x0 SWAP1 SLOAD SWAP1 PUSH2 0x100 EXP SWAP1 DIV PUSH20 0xFFFFFFFFFFFFFFFFFFFFFFFFFFFFFFFFFFFFFFFF AND PUSH20 0xFFFFFFFFFFFFFFFFFFFFFFFFFFFFFFFFFFFFFFFF AND PUSH4 0xD61EBB82 DUP6 PUSH1 0x40 MLOAD DUP3 PUSH4 0xFFFFFFFF AND PUSH1 0xE0 SHL DUP2 MSTORE PUSH1 0x4 ADD PUSH2 0x1796 SWAP2 SWAP1 PUSH2 0x4327 JUMP JUMPDEST PUSH1 0x20 PUSH1 0x40 MLOAD DUP1 DUP4 SUB DUP2 DUP7 DUP1 EXTCODESIZE ISZERO DUP1 ISZERO PUSH2 0x17AE JUMPI PUSH1 0x0 DUP1 REVERT JUMPDEST POP GAS STATICCALL ISZERO DUP1 ISZERO PUSH2 0x17C2 JUMPI RETURNDATASIZE PUSH1 0x0 DUP1 RETURNDATACOPY RETURNDATASIZE PUSH1 0x0 REVERT JUMPDEST POP POP POP POP PUSH1 0x40 MLOAD RETURNDATASIZE PUSH1 0x1F NOT PUSH1 0x1F DUP3 ADD AND DUP3 ADD DUP1 PUSH1 0x40 MSTORE POP DUP2 ADD SWAP1 PUSH2 0x17E6 SWAP2 SWAP1 PUSH2 0x3BDD JUMP JUMPDEST SWAP1 POP PUSH1 0x0 PUSH2 0x100 PUSH1 0x0 PUSH1 0xFE SLOAD DUP2 MSTORE PUSH1 0x20 ADD SWAP1 DUP2 MSTORE PUSH1 0x20 ADD PUSH1 0x0 KECCAK256 PUSH1 0x1 ADD SLOAD SWAP1 POP PUSH1 0x0 PUSH1 0x1 DUP3 PUSH2 0x1815 SWAP2 SWAP1 PUSH2 0x481D JUMP JUMPDEST SWAP1 POP PUSH1 0x0 DUP6 DUP4 PUSH2 0x1825 SWAP2 SWAP1 PUSH2 0x481D JUMP JUMPDEST SWAP1 POP PUSH2 0x100 PUSH1 0x0 PUSH1 0xFE SLOAD DUP2 MSTORE PUSH1 0x20 ADD SWAP1 DUP2 MSTORE PUSH1 0x20 ADD PUSH1 0x0 KECCAK256 PUSH1 0x0 ADD SLOAD DUP2 GT ISZERO PUSH2 0x1883 JUMPI PUSH1 0x40 MLOAD PUSH32 0x8C379A000000000000000000000000000000000000000000000000000000000 DUP2 MSTORE PUSH1 0x4 ADD PUSH2 0x187A SWAP1 PUSH2 0x4546 JUMP JUMPDEST PUSH1 0x40 MLOAD DUP1 SWAP2 SUB SWAP1 REVERT JUMPDEST PUSH1 0x0 PUSH1 0x1 DUP8 EQ ISZERO PUSH2 0x18BC JUMPI PUSH1 0x64 DUP6 PUSH2 0x189C PUSH1 0xFE SLOAD PUSH2 0x2BF9 JUMP JUMPDEST PUSH2 0x18A6 SWAP2 SWAP1 PUSH2 0x48A4 JUMP JUMPDEST PUSH2 0x18B0 SWAP2 SWAP1 PUSH2 0x4873 JUMP JUMPDEST SWAP6 POP POP POP POP POP POP PUSH2 0x1A5B JUMP JUMPDEST PUSH1 0x0 PUSH2 0x18DF PUSH2 0x100 PUSH1 0x0 PUSH1 0xFE SLOAD DUP2 MSTORE PUSH1 0x20 ADD SWAP1 DUP2 MSTORE PUSH1 0x20 ADD PUSH1 0x0 KECCAK256 PUSH1 0x3 ADD PUSH2 0x2A55 JUMP JUMPDEST SWAP1 POP PUSH1 0x0 JUMPDEST DUP2 DUP2 LT ISZERO PUSH2 0x1A48 JUMPI PUSH1 0x0 DUP1 PUSH2 0x191A DUP4 PUSH2 0x100 PUSH1 0x0 PUSH1 0xFE SLOAD DUP2 MSTORE PUSH1 0x20 ADD SWAP1 DUP2 MSTORE PUSH1 0x20 ADD PUSH1 0x0 KECCAK256 PUSH1 0x3 ADD PUSH2 0x2A6A SWAP1 SWAP2 SWAP1 PUSH4 0xFFFFFFFF AND JUMP JUMPDEST SWAP2 POP SWAP2 POP DUP2 DUP8 GT ISZERO DUP1 ISZERO PUSH2 0x192E JUMPI POP DUP2 DUP7 GT ISZERO JUMPDEST ISZERO PUSH2 0x1966 JUMPI PUSH1 0x64 DUP10 DUP13 DUP4 PUSH2 0x1942 SWAP2 SWAP1 PUSH2 0x48A4 JUMP JUMPDEST PUSH2 0x194C SWAP2 SWAP1 PUSH2 0x48A4 JUMP JUMPDEST PUSH2 0x1956 SWAP2 SWAP1 PUSH2 0x4873 JUMP JUMPDEST SWAP10 POP POP POP POP POP POP POP POP POP POP PUSH2 0x1A5B JUMP JUMPDEST DUP2 DUP8 GT ISZERO DUP1 ISZERO PUSH2 0x1975 JUMPI POP DUP2 DUP7 GT JUMPDEST ISZERO PUSH2 0x1A33 JUMPI DUP1 PUSH1 0x1 DUP9 DUP5 PUSH2 0x1989 SWAP2 SWAP1 PUSH2 0x48FE JUMP JUMPDEST PUSH2 0x1993 SWAP2 SWAP1 PUSH2 0x481D JUMP JUMPDEST PUSH2 0x199D SWAP2 SWAP1 PUSH2 0x48A4 JUMP JUMPDEST DUP6 PUSH2 0x19A8 SWAP2 SWAP1 PUSH2 0x481D JUMP JUMPDEST SWAP5 POP PUSH1 0x0 PUSH2 0x19E3 PUSH1 0x1 DUP6 PUSH2 0x19BC SWAP2 SWAP1 PUSH2 0x481D JUMP JUMPDEST PUSH2 0x100 PUSH1 0x0 PUSH1 0xFE SLOAD DUP2 MSTORE PUSH1 0x20 ADD SWAP1 DUP2 MSTORE PUSH1 0x20 ADD PUSH1 0x0 KECCAK256 PUSH1 0x3 ADD PUSH2 0x2A6A SWAP1 SWAP2 SWAP1 PUSH4 0xFFFFFFFF AND JUMP JUMPDEST SWAP2 POP POP DUP1 DUP4 DUP9 PUSH2 0x19F3 SWAP2 SWAP1 PUSH2 0x48FE JUMP JUMPDEST PUSH2 0x19FD SWAP2 SWAP1 PUSH2 0x48A4 JUMP JUMPDEST DUP7 PUSH2 0x1A08 SWAP2 SWAP1 PUSH2 0x481D JUMP JUMPDEST SWAP6 POP PUSH1 0x64 DUP11 DUP8 PUSH2 0x1A18 SWAP2 SWAP1 PUSH2 0x48A4 JUMP JUMPDEST PUSH2 0x1A22 SWAP2 SWAP1 PUSH2 0x4873 JUMP JUMPDEST SWAP11 POP POP POP POP POP POP POP POP POP POP POP PUSH2 0x1A5B JUMP JUMPDEST POP POP DUP1 DUP1 PUSH2 0x1A40 SWAP1 PUSH2 0x4A8F JUMP JUMPDEST SWAP2 POP POP PUSH2 0x18E4 JUMP JUMPDEST POP PUSH8 0xDE0B6B3A7640000 SWAP7 POP POP POP POP POP POP POP JUMPDEST SWAP3 SWAP2 POP POP JUMP JUMPDEST PUSH1 0x0 DUP1 PUSH1 0x0 DUP1 DUP5 EQ ISZERO PUSH2 0x1AB8 JUMPI PUSH2 0x100 PUSH1 0x0 PUSH1 0xFE SLOAD DUP2 MSTORE PUSH1 0x20 ADD SWAP1 DUP2 MSTORE PUSH1 0x20 ADD PUSH1 0x0 KECCAK256 PUSH1 0x0 ADD SLOAD PUSH2 0x100 PUSH1 0x0 PUSH1 0xFE SLOAD DUP2 MSTORE PUSH1 0x20 ADD SWAP1 DUP2 MSTORE PUSH1 0x20 ADD PUSH1 0x0 KECCAK256 PUSH1 0x1 ADD SLOAD PUSH2 0x1AAD PUSH1 0xFE SLOAD PUSH2 0x2BF9 JUMP JUMPDEST SWAP3 POP SWAP3 POP SWAP3 POP PUSH2 0x1AEB JUMP JUMPDEST PUSH1 0x0 PUSH2 0x100 PUSH1 0x0 DUP7 DUP2 MSTORE PUSH1 0x20 ADD SWAP1 DUP2 MSTORE PUSH1 0x20 ADD PUSH1 0x0 KECCAK256 SWAP1 POP DUP1 PUSH1 0x0 ADD SLOAD DUP2 PUSH1 0x1 ADD SLOAD PUSH2 0x1AE3 DUP8 PUSH2 0x2BF9 JUMP JUMPDEST SWAP4 POP SWAP4 POP SWAP4 POP POP JUMPDEST SWAP2 SWAP4 SWAP1 SWAP3 POP JUMP JUMPDEST PUSH1 0xFE SLOAD DUP2 JUMP JUMPDEST PUSH1 0xFB PUSH1 0x1 SWAP1 SLOAD SWAP1 PUSH2 0x100 EXP SWAP1 DIV PUSH20 0xFFFFFFFFFFFFFFFFFFFFFFFFFFFFFFFFFFFFFFFF AND DUP2 JUMP JUMPDEST PUSH1 0x0 PUSH1 0x33 PUSH1 0x0 SWAP1 SLOAD SWAP1 PUSH2 0x100 EXP SWAP1 DIV PUSH20 0xFFFFFFFFFFFFFFFFFFFFFFFFFFFFFFFFFFFFFFFF AND SWAP1 POP SWAP1 JUMP JUMPDEST PUSH1 0x0 PUSH2 0x1B6F DUP3 PUSH1 0xC9 PUSH1 0x0 DUP7 DUP2 MSTORE PUSH1 0x20 ADD SWAP1 DUP2 MSTORE PUSH1 0x20 ADD PUSH1 0x0 KECCAK256 PUSH2 0x2CCD SWAP1 SWAP2 SWAP1 PUSH4 0xFFFFFFFF AND JUMP JUMPDEST SWAP1 POP SWAP3 SWAP2 POP POP JUMP JUMPDEST PUSH1 0x0 PUSH1 0x97 PUSH1 0x0 DUP5 DUP2 MSTORE PUSH1 0x20 ADD SWAP1 DUP2 MSTORE PUSH1 0x20 ADD PUSH1 0x0 KECCAK256 PUSH1 0x0 ADD PUSH1 0x0 DUP4 PUSH20 0xFFFFFFFFFFFFFFFFFFFFFFFFFFFFFFFFFFFFFFFF AND PUSH20 0xFFFFFFFFFFFFFFFFFFFFFFFFFFFFFFFFFFFFFFFF AND DUP2 MSTORE PUSH1 0x20 ADD SWAP1 DUP2 MSTORE PUSH1 0x20 ADD PUSH1 0x0 KECCAK256 PUSH1 0x0 SWAP1 SLOAD SWAP1 PUSH2 0x100 EXP SWAP1 DIV PUSH1 0xFF AND SWAP1 POP SWAP3 SWAP2 POP POP JUMP JUMPDEST PUSH32 0x97667070C54EF182B0F5858B034BEAC1B6F3089AA2D3188BB1E8929F4FA9B929 PUSH2 0x1C0C DUP2 PUSH2 0x27B9 JUMP JUMPDEST PUSH1 0x0 DUP9 GT PUSH2 0x1C4F JUMPI PUSH1 0x40 MLOAD PUSH32 0x8C379A000000000000000000000000000000000000000000000000000000000 DUP2 MSTORE PUSH1 0x4 ADD PUSH2 0x1C46 SWAP1 PUSH2 0x45E6 JUMP JUMPDEST PUSH1 0x40 MLOAD DUP1 SWAP2 SUB SWAP1 REVERT JUMPDEST PUSH1 0x0 PUSH2 0x100 PUSH1 0x0 DUP11 DUP2 MSTORE PUSH1 0x20 ADD SWAP1 DUP2 MSTORE PUSH1 0x20 ADD PUSH1 0x0 KECCAK256 SWAP1 POP DUP8 DUP2 PUSH1 0x0 ADD DUP2 SWAP1 SSTORE POP DUP7 DUP2 PUSH1 0x1 ADD DUP2 SWAP1 SSTORE POP DUP6 DUP6 DUP3 PUSH1 0x6 ADD SWAP2 SWAP1 PUSH2 0x1C8C SWAP3 SWAP2 SWAP1 PUSH2 0x375A JUMP JUMPDEST POP PUSH1 0x0 JUMPDEST DUP5 MLOAD DUP2 LT ISZERO PUSH2 0x1D0C JUMPI PUSH2 0x1CF8 DUP6 DUP3 DUP2 MLOAD DUP2 LT PUSH2 0x1CAF JUMPI PUSH2 0x1CAE PUSH2 0x4BF3 JUMP JUMPDEST JUMPDEST PUSH1 0x20 MUL PUSH1 0x20 ADD ADD MLOAD DUP6 DUP4 DUP2 MLOAD DUP2 LT PUSH2 0x1CCA JUMPI PUSH2 0x1CC9 PUSH2 0x4BF3 JUMP JUMPDEST JUMPDEST PUSH1 0x20 MUL PUSH1 0x20 ADD ADD MLOAD PUSH2 0x100 PUSH1 0x0 DUP15 DUP2 MSTORE PUSH1 0x20 ADD SWAP1 DUP2 MSTORE PUSH1 0x20 ADD PUSH1 0x0 KECCAK256 PUSH1 0x3 ADD PUSH2 0x2BDA SWAP1 SWAP3 SWAP2 SWAP1 PUSH4 0xFFFFFFFF AND JUMP JUMPDEST POP DUP1 DUP1 PUSH2 0x1D04 SWAP1 PUSH2 0x4A8F JUMP JUMPDEST SWAP2 POP POP PUSH2 0x1C90 JUMP JUMPDEST POP POP POP POP POP POP POP POP POP POP JUMP JUMPDEST PUSH1 0x0 DUP1 PUSH1 0xFD PUSH1 0x0 SWAP1 SLOAD SWAP1 PUSH2 0x100 EXP SWAP1 DIV PUSH20 0xFFFFFFFFFFFFFFFFFFFFFFFFFFFFFFFFFFFFFFFF AND PUSH20 0xFFFFFFFFFFFFFFFFFFFFFFFFFFFFFFFFFFFFFFFF AND PUSH4 0x6931A569 DUP6 PUSH1 0x40 MLOAD DUP3 PUSH4 0xFFFFFFFF AND PUSH1 0xE0 SHL DUP2 MSTORE PUSH1 0x4 ADD PUSH2 0x1D76 SWAP2 SWAP1 PUSH2 0x46E6 JUMP JUMPDEST PUSH1 0x40 DUP1 MLOAD DUP1 DUP4 SUB DUP2 DUP7 DUP1 EXTCODESIZE ISZERO DUP1 ISZERO PUSH2 0x1D8D JUMPI PUSH1 0x0 DUP1 REVERT JUMPDEST POP GAS STATICCALL ISZERO DUP1 ISZERO PUSH2 0x1DA1 JUMPI RETURNDATASIZE PUSH1 0x0 DUP1 RETURNDATACOPY RETURNDATASIZE PUSH1 0x0 REVERT JUMPDEST POP POP POP POP PUSH1 0x40 MLOAD RETURNDATASIZE PUSH1 0x1F NOT PUSH1 0x1F DUP3 ADD AND DUP3 ADD DUP1 PUSH1 0x40 MSTORE POP DUP2 ADD SWAP1 PUSH2 0x1DC5 SWAP2 SWAP1 PUSH2 0x3C4A JUMP JUMPDEST POP SWAP1 POP DUP3 DUP2 PUSH2 0x1DD4 SWAP2 SWAP1 PUSH2 0x48A4 JUMP JUMPDEST SWAP2 POP POP SWAP3 SWAP2 POP POP JUMP JUMPDEST PUSH1 0x0 DUP1 SHL DUP2 JUMP JUMPDEST PUSH1 0xFD PUSH1 0x0 SWAP1 SLOAD SWAP1 PUSH2 0x100 EXP SWAP1 DIV PUSH20 0xFFFFFFFFFFFFFFFFFFFFFFFFFFFFFFFFFFFFFFFF AND DUP2 JUMP JUMPDEST PUSH32 0x97667070C54EF182B0F5858B034BEAC1B6F3089AA2D3188BB1E8929F4FA9B929 PUSH2 0x1E34 DUP2 PUSH2 0x27B9 JUMP JUMPDEST DUP2 PUSH1 0xFF DUP2 SWAP1 SSTORE POP POP POP JUMP JUMPDEST PUSH1 0x0 PUSH2 0x1E5C PUSH1 0xC9 PUSH1 0x0 DUP5 DUP2 MSTORE PUSH1 0x20 ADD SWAP1 DUP2 MSTORE PUSH1 0x20 ADD PUSH1 0x0 KECCAK256 PUSH2 0x2CE7 JUMP JUMPDEST SWAP1 POP SWAP2 SWAP1 POP JUMP JUMPDEST PUSH1 0x0 PUSH2 0x103 PUSH1 0x0 SWAP1 SLOAD SWAP1 PUSH2 0x100 EXP SWAP1 DIV PUSH20 0xFFFFFFFFFFFFFFFFFFFFFFFFFFFFFFFFFFFFFFFF AND SWAP1 POP SWAP1 JUMP JUMPDEST PUSH1 0xFC PUSH1 0x0 SWAP1 SLOAD SWAP1 PUSH2 0x100 EXP SWAP1 DIV PUSH20 0xFFFFFFFFFFFFFFFFFFFFFFFFFFFFFFFFFFFFFFFF AND DUP2 JUMP JUMPDEST PUSH2 0x1EBD DUP3 PUSH2 0x10CE JUMP JUMPDEST PUSH2 0x1EC6 DUP2 PUSH2 0x27B9 JUMP JUMPDEST PUSH2 0x1ED0 DUP4 DUP4 PUSH2 0x2A21 JUMP JUMPDEST POP POP POP JUMP JUMPDEST PUSH1 0x0 DUP2 GT PUSH2 0x1F18 JUMPI PUSH1 0x40 MLOAD PUSH32 0x8C379A000000000000000000000000000000000000000000000000000000000 DUP2 MSTORE PUSH1 0x4 ADD PUSH2 0x1F0F SWAP1 PUSH2 0x4506 JUMP JUMPDEST PUSH1 0x40 MLOAD DUP1 SWAP2 SUB SWAP1 REVERT JUMPDEST PUSH1 0x0 DUP1 PUSH1 0xFD PUSH1 0x0 SWAP1 SLOAD SWAP1 PUSH2 0x100 EXP SWAP1 DIV PUSH20 0xFFFFFFFFFFFFFFFFFFFFFFFFFFFFFFFFFFFFFFFF AND PUSH20 0xFFFFFFFFFFFFFFFFFFFFFFFFFFFFFFFFFFFFFFFF AND PUSH4 0x6931A569 DUP6 PUSH1 0x40 MLOAD DUP3 PUSH4 0xFFFFFFFF AND PUSH1 0xE0 SHL DUP2 MSTORE PUSH1 0x4 ADD PUSH2 0x1F76 SWAP2 SWAP1 PUSH2 0x46E6 JUMP JUMPDEST PUSH1 0x40 DUP1 MLOAD DUP1 DUP4 SUB DUP2 DUP7 DUP1 EXTCODESIZE ISZERO DUP1 ISZERO PUSH2 0x1F8D JUMPI PUSH1 0x0 DUP1 REVERT JUMPDEST POP GAS STATICCALL ISZERO DUP1 ISZERO PUSH2 0x1FA1 JUMPI RETURNDATASIZE PUSH1 0x0 DUP1 RETURNDATACOPY RETURNDATASIZE PUSH1 0x0 REVERT JUMPDEST POP POP POP POP PUSH1 0x40 MLOAD RETURNDATASIZE PUSH1 0x1F NOT PUSH1 0x1F DUP3 ADD AND DUP3 ADD DUP1 PUSH1 0x40 MSTORE POP DUP2 ADD SWAP1 PUSH2 0x1FC5 SWAP2 SWAP1 PUSH2 0x3C4A JUMP JUMPDEST SWAP2 POP SWAP2 POP PUSH1 0x0 PUSH2 0x1FD5 DUP5 DUP4 PUSH2 0x2CFC JUMP JUMPDEST SWAP1 POP PUSH2 0x101 PUSH1 0x0 CALLER PUSH20 0xFFFFFFFFFFFFFFFFFFFFFFFFFFFFFFFFFFFFFFFF AND PUSH20 0xFFFFFFFFFFFFFFFFFFFFFFFFFFFFFFFFFFFFFFFF AND DUP2 MSTORE PUSH1 0x20 ADD SWAP1 DUP2 MSTORE PUSH1 0x20 ADD PUSH1 0x0 KECCAK256 SLOAD DUP2 PUSH2 0x102 PUSH1 0x0 CALLER PUSH20 0xFFFFFFFFFFFFFFFFFFFFFFFFFFFFFFFFFFFFFFFF AND PUSH20 0xFFFFFFFFFFFFFFFFFFFFFFFFFFFFFFFFFFFFFFFF AND DUP2 MSTORE PUSH1 0x20 ADD SWAP1 DUP2 MSTORE PUSH1 0x20 ADD PUSH1 0x0 KECCAK256 PUSH1 0x0 DUP9 DUP2 MSTORE PUSH1 0x20 ADD SWAP1 DUP2 MSTORE PUSH1 0x20 ADD PUSH1 0x0 KECCAK256 SLOAD PUSH2 0x2075 SWAP2 SWAP1 PUSH2 0x481D JUMP JUMPDEST GT ISZERO PUSH2 0x20B6 JUMPI PUSH1 0x40 MLOAD PUSH32 0x8C379A000000000000000000000000000000000000000000000000000000000 DUP2 MSTORE PUSH1 0x4 ADD PUSH2 0x20AD SWAP1 PUSH2 0x4626 JUMP JUMPDEST PUSH1 0x40 MLOAD DUP1 SWAP2 SUB SWAP1 REVERT JUMPDEST CALLVALUE DUP5 DUP5 PUSH2 0x20C3 SWAP2 SWAP1 PUSH2 0x48A4 JUMP JUMPDEST EQ PUSH2 0x2103 JUMPI PUSH1 0x40 MLOAD PUSH32 0x8C379A000000000000000000000000000000000000000000000000000000000 DUP2 MSTORE PUSH1 0x4 ADD PUSH2 0x20FA SWAP1 PUSH2 0x46C6 JUMP JUMPDEST PUSH1 0x40 MLOAD DUP1 SWAP2 SUB SWAP1 REVERT JUMPDEST PUSH1 0xFD PUSH1 0x0 SWAP1 SLOAD SWAP1 PUSH2 0x100 EXP SWAP1 DIV PUSH20 0xFFFFFFFFFFFFFFFFFFFFFFFFFFFFFFFFFFFFFFFF AND PUSH20 0xFFFFFFFFFFFFFFFFFFFFFFFFFFFFFFFFFFFFFFFF AND PUSH4 0x980E035E CALLER DUP8 DUP8 PUSH1 0x40 MLOAD DUP5 PUSH4 0xFFFFFFFF AND PUSH1 0xE0 SHL DUP2 MSTORE PUSH1 0x4 ADD PUSH2 0x2162 SWAP4 SWAP3 SWAP2 SWAP1 PUSH2 0x43C5 JUMP JUMPDEST PUSH1 0x0 PUSH1 0x40 MLOAD DUP1 DUP4 SUB DUP2 PUSH1 0x0 DUP8 DUP1 EXTCODESIZE ISZERO DUP1 ISZERO PUSH2 0x217C JUMPI PUSH1 0x0 DUP1 REVERT JUMPDEST POP GAS CALL ISZERO DUP1 ISZERO PUSH2 0x2190 JUMPI RETURNDATASIZE PUSH1 0x0 DUP1 RETURNDATACOPY RETURNDATASIZE PUSH1 0x0 REVERT JUMPDEST POP POP POP POP DUP1 PUSH2 0x102 PUSH1 0x0 CALLER PUSH20 0xFFFFFFFFFFFFFFFFFFFFFFFFFFFFFFFFFFFFFFFF AND PUSH20 0xFFFFFFFFFFFFFFFFFFFFFFFFFFFFFFFFFFFFFFFF AND DUP2 MSTORE PUSH1 0x20 ADD SWAP1 DUP2 MSTORE PUSH1 0x20 ADD PUSH1 0x0 KECCAK256 PUSH1 0x0 DUP8 DUP2 MSTORE PUSH1 0x20 ADD SWAP1 DUP2 MSTORE PUSH1 0x20 ADD PUSH1 0x0 KECCAK256 SLOAD PUSH2 0x21F1 SWAP2 SWAP1 PUSH2 0x481D JUMP JUMPDEST PUSH2 0x102 PUSH1 0x0 CALLER PUSH20 0xFFFFFFFFFFFFFFFFFFFFFFFFFFFFFFFFFFFFFFFF AND PUSH20 0xFFFFFFFFFFFFFFFFFFFFFFFFFFFFFFFFFFFFFFFF AND DUP2 MSTORE PUSH1 0x20 ADD SWAP1 DUP2 MSTORE PUSH1 0x20 ADD PUSH1 0x0 KECCAK256 PUSH1 0x0 DUP8 DUP2 MSTORE PUSH1 0x20 ADD SWAP1 DUP2 MSTORE PUSH1 0x20 ADD PUSH1 0x0 KECCAK256 DUP2 SWAP1 SSTORE POP PUSH1 0x0 PUSH2 0x103 PUSH1 0x0 SWAP1 SLOAD SWAP1 PUSH2 0x100 EXP SWAP1 DIV PUSH20 0xFFFFFFFFFFFFFFFFFFFFFFFFFFFFFFFFFFFFFFFF AND PUSH20 0xFFFFFFFFFFFFFFFFFFFFFFFFFFFFFFFFFFFFFFFF AND CALLVALUE PUSH1 0x40 MLOAD PUSH2 0x228F SWAP1 PUSH2 0x428A JUMP JUMPDEST PUSH1 0x0 PUSH1 0x40 MLOAD DUP1 DUP4 SUB DUP2 DUP6 DUP8 GAS CALL SWAP3 POP POP POP RETURNDATASIZE DUP1 PUSH1 0x0 DUP2 EQ PUSH2 0x22CC JUMPI PUSH1 0x40 MLOAD SWAP2 POP PUSH1 0x1F NOT PUSH1 0x3F RETURNDATASIZE ADD AND DUP3 ADD PUSH1 0x40 MSTORE RETURNDATASIZE DUP3 MSTORE RETURNDATASIZE PUSH1 0x0 PUSH1 0x20 DUP5 ADD RETURNDATACOPY PUSH2 0x22D1 JUMP JUMPDEST PUSH1 0x60 SWAP2 POP JUMPDEST POP POP SWAP1 POP DUP1 PUSH2 0x2315 JUMPI PUSH1 0x40 MLOAD PUSH32 0x8C379A000000000000000000000000000000000000000000000000000000000 DUP2 MSTORE PUSH1 0x4 ADD PUSH2 0x230C SWAP1 PUSH2 0x45C6 JUMP JUMPDEST PUSH1 0x40 MLOAD DUP1 SWAP2 SUB SWAP1 REVERT JUMPDEST DUP6 CALLER PUSH20 0xFFFFFFFFFFFFFFFFFFFFFFFFFFFFFFFFFFFFFFFF AND PUSH31 0x8AC56B140754C850954E3BFB3FBA71FF2F689100AD997BA36B78D150DBB8D1 DUP8 CALLVALUE PUSH1 0x40 MLOAD PUSH2 0x235D SWAP3 SWAP2 SWAP1 PUSH2 0x4701 JUMP JUMPDEST PUSH1 0x40 MLOAD DUP1 SWAP2 SUB SWAP1 LOG3 POP POP POP POP POP POP JUMP JUMPDEST PUSH2 0x101 PUSH1 0x20 MSTORE DUP1 PUSH1 0x0 MSTORE PUSH1 0x40 PUSH1 0x0 KECCAK256 PUSH1 0x0 SWAP2 POP SWAP1 POP SLOAD DUP2 JUMP JUMPDEST PUSH32 0x97667070C54EF182B0F5858B034BEAC1B6F3089AA2D3188BB1E8929F4FA9B929 PUSH2 0x23B0 DUP2 PUSH2 0x27B9 JUMP JUMPDEST DUP2 PUSH1 0xFD PUSH1 0x0 PUSH2 0x100 EXP DUP2 SLOAD DUP2 PUSH20 0xFFFFFFFFFFFFFFFFFFFFFFFFFFFFFFFFFFFFFFFF MUL NOT AND SWAP1 DUP4 PUSH20 0xFFFFFFFFFFFFFFFFFFFFFFFFFFFFFFFFFFFFFFFF AND MUL OR SWAP1 SSTORE POP POP POP JUMP JUMPDEST PUSH2 0x23FD PUSH2 0x2A96 JUMP JUMPDEST PUSH1 0x0 PUSH20 0xFFFFFFFFFFFFFFFFFFFFFFFFFFFFFFFFFFFFFFFF AND DUP2 PUSH20 0xFFFFFFFFFFFFFFFFFFFFFFFFFFFFFFFFFFFFFFFF AND EQ ISZERO PUSH2 0x246D JUMPI PUSH1 0x40 MLOAD PUSH32 0x8C379A000000000000000000000000000000000000000000000000000000000 DUP2 MSTORE PUSH1 0x4 ADD PUSH2 0x2464 SWAP1 PUSH2 0x4526 JUMP JUMPDEST PUSH1 0x40 MLOAD DUP1 SWAP2 SUB SWAP1 REVERT JUMPDEST PUSH2 0x2476 DUP2 PUSH2 0x2B14 JUMP JUMPDEST POP JUMP JUMPDEST PUSH32 0x97667070C54EF182B0F5858B034BEAC1B6F3089AA2D3188BB1E8929F4FA9B929 DUP2 JUMP JUMPDEST PUSH32 0x97667070C54EF182B0F5858B034BEAC1B6F3089AA2D3188BB1E8929F4FA9B929 PUSH2 0x24C7 DUP2 PUSH2 0x27B9 JUMP JUMPDEST DUP2 PUSH1 0xFB PUSH1 0x0 PUSH2 0x100 EXP DUP2 SLOAD DUP2 PUSH1 0xFF MUL NOT AND SWAP1 DUP4 ISZERO ISZERO MUL OR SWAP1 SSTORE POP POP POP JUMP JUMPDEST PUSH1 0x0 DUP1 PUSH1 0x1 SWAP1 SLOAD SWAP1 PUSH2 0x100 EXP SWAP1 DIV PUSH1 0xFF AND ISZERO SWAP1 POP DUP1 DUP1 ISZERO PUSH2 0x2516 JUMPI POP PUSH1 0x1 PUSH1 0x0 DUP1 SLOAD SWAP1 PUSH2 0x100 EXP SWAP1 DIV PUSH1 0xFF AND PUSH1 0xFF AND LT JUMPDEST DUP1 PUSH2 0x2543 JUMPI POP PUSH2 0x2525 ADDRESS PUSH2 0x2DAD JUMP JUMPDEST ISZERO DUP1 ISZERO PUSH2 0x2542 JUMPI POP PUSH1 0x1 PUSH1 0x0 DUP1 SLOAD SWAP1 PUSH2 0x100 EXP SWAP1 DIV PUSH1 0xFF AND PUSH1 0xFF AND EQ JUMPDEST JUMPDEST PUSH2 0x2582 JUMPI PUSH1 0x40 MLOAD PUSH32 0x8C379A000000000000000000000000000000000000000000000000000000000 DUP2 MSTORE PUSH1 0x4 ADD PUSH2 0x2579 SWAP1 PUSH2 0x4566 JUMP JUMPDEST PUSH1 0x40 MLOAD DUP1 SWAP2 SUB SWAP1 REVERT JUMPDEST PUSH1 0x1 PUSH1 0x0 DUP1 PUSH2 0x100 EXP DUP2 SLOAD DUP2 PUSH1 0xFF MUL NOT AND SWAP1 DUP4 PUSH1 0xFF AND MUL OR SWAP1 SSTORE POP DUP1 ISZERO PUSH2 0x25BF JUMPI PUSH1 0x1 PUSH1 0x0 PUSH1 0x1 PUSH2 0x100 EXP DUP2 SLOAD DUP2 PUSH1 0xFF MUL NOT AND SWAP1 DUP4 ISZERO ISZERO MUL OR SWAP1 SSTORE POP JUMPDEST PUSH2 0x25C8 DUP8 PUSH2 0x2B14 JUMP JUMPDEST PUSH2 0x25D1 DUP8 PUSH2 0x2DD0 JUMP JUMPDEST DUP5 PUSH1 0xFF DUP2 SWAP1 SSTORE POP DUP4 PUSH1 0xFB PUSH1 0x1 PUSH2 0x100 EXP DUP2 SLOAD DUP2 PUSH20 0xFFFFFFFFFFFFFFFFFFFFFFFFFFFFFFFFFFFFFFFF MUL NOT AND SWAP1 DUP4 PUSH20 0xFFFFFFFFFFFFFFFFFFFFFFFFFFFFFFFFFFFFFFFF AND MUL OR SWAP1 SSTORE POP DUP3 PUSH1 0xFC PUSH1 0x0 PUSH2 0x100 EXP DUP2 SLOAD DUP2 PUSH20 0xFFFFFFFFFFFFFFFFFFFFFFFFFFFFFFFFFFFFFFFF MUL NOT AND SWAP1 DUP4 PUSH20 0xFFFFFFFFFFFFFFFFFFFFFFFFFFFFFFFFFFFFFFFF AND MUL OR SWAP1 SSTORE POP DUP2 PUSH1 0xFD PUSH1 0x0 PUSH2 0x100 EXP DUP2 SLOAD DUP2 PUSH20 0xFFFFFFFFFFFFFFFFFFFFFFFFFFFFFFFFFFFFFFFF MUL NOT AND SWAP1 DUP4 PUSH20 0xFFFFFFFFFFFFFFFFFFFFFFFFFFFFFFFFFFFFFFFF AND MUL OR SWAP1 SSTORE POP DUP6 PUSH2 0x103 PUSH1 0x0 PUSH2 0x100 EXP DUP2 SLOAD DUP2 PUSH20 0xFFFFFFFFFFFFFFFFFFFFFFFFFFFFFFFFFFFFFFFF MUL NOT AND SWAP1 DUP4 PUSH20 0xFFFFFFFFFFFFFFFFFFFFFFFFFFFFFFFFFFFFFFFF AND MUL OR SWAP1 SSTORE POP DUP1 ISZERO PUSH2 0x2736 JUMPI PUSH1 0x0 DUP1 PUSH1 0x1 PUSH2 0x100 EXP DUP2 SLOAD DUP2 PUSH1 0xFF MUL NOT AND SWAP1 DUP4 ISZERO ISZERO MUL OR SWAP1 SSTORE POP PUSH32 0x7F26B83FF96E1F2B6A682F133852F6798A09C465DA95921460CEFB3847402498 PUSH1 0x1 PUSH1 0x40 MLOAD PUSH2 0x272D SWAP2 SWAP1 PUSH2 0x4469 JUMP JUMPDEST PUSH1 0x40 MLOAD DUP1 SWAP2 SUB SWAP1 LOG1 JUMPDEST POP POP POP POP POP POP POP JUMP JUMPDEST PUSH1 0x0 PUSH32 0x7965DB0B00000000000000000000000000000000000000000000000000000000 PUSH28 0xFFFFFFFFFFFFFFFFFFFFFFFFFFFFFFFFFFFFFFFFFFFFFFFFFFFFFFFF NOT AND DUP3 PUSH28 0xFFFFFFFFFFFFFFFFFFFFFFFFFFFFFFFFFFFFFFFFFFFFFFFFFFFFFFFF NOT AND EQ DUP1 PUSH2 0x27B2 JUMPI POP PUSH2 0x27B1 DUP3 PUSH2 0x2F1B JUMP JUMPDEST JUMPDEST SWAP1 POP SWAP2 SWAP1 POP JUMP JUMPDEST PUSH2 0x27CA DUP2 PUSH2 0x27C5 PUSH2 0x2A19 JUMP JUMPDEST PUSH2 0x2F85 JUMP JUMPDEST POP JUMP JUMPDEST PUSH1 0x0 DUP1 PUSH2 0x100 PUSH1 0x0 PUSH1 0xFE SLOAD DUP2 MSTORE PUSH1 0x20 ADD SWAP1 DUP2 MSTORE PUSH1 0x20 ADD PUSH1 0x0 KECCAK256 PUSH1 0x1 ADD SLOAD SWAP1 POP PUSH1 0x0 DUP2 PUSH2 0x100 PUSH1 0x0 PUSH1 0xFE SLOAD DUP2 MSTORE PUSH1 0x20 ADD SWAP1 DUP2 MSTORE PUSH1 0x20 ADD PUSH1 0x0 KECCAK256 PUSH1 0x0 ADD SLOAD PUSH2 0x2813 SWAP2 SWAP1 PUSH2 0x48FE JUMP JUMPDEST SWAP1 POP PUSH1 0x0 PUSH2 0x100 PUSH1 0x0 PUSH1 0xFE SLOAD DUP2 MSTORE PUSH1 0x20 ADD SWAP1 DUP2 MSTORE PUSH1 0x20 ADD PUSH1 0x0 KECCAK256 PUSH1 0x2 ADD SWAP1 POP PUSH1 0x0 DUP3 DUP5 CALLER DIFFICULTY TIMESTAMP PUSH1 0x40 MLOAD PUSH1 0x20 ADD PUSH2 0x284C SWAP5 SWAP4 SWAP3 SWAP2 SWAP1 PUSH2 0x42D9 JUMP JUMPDEST PUSH1 0x40 MLOAD PUSH1 0x20 DUP2 DUP4 SUB SUB DUP2 MSTORE SWAP1 PUSH1 0x40 MSTORE DUP1 MLOAD SWAP1 PUSH1 0x20 ADD KECCAK256 PUSH1 0x0 SHR PUSH2 0x286F SWAP2 SWAP1 PUSH2 0x4B06 JUMP JUMPDEST SWAP1 POP PUSH1 0x0 DUP1 DUP4 PUSH1 0x0 DUP5 DUP2 MSTORE PUSH1 0x20 ADD SWAP1 DUP2 MSTORE PUSH1 0x20 ADD PUSH1 0x0 KECCAK256 SLOAD EQ PUSH2 0x28A6 JUMPI DUP3 PUSH1 0x0 DUP4 DUP2 MSTORE PUSH1 0x20 ADD SWAP1 DUP2 MSTORE PUSH1 0x20 ADD PUSH1 0x0 KECCAK256 SLOAD SWAP1 POP PUSH2 0x28AA JUMP JUMPDEST DUP2 SWAP1 POP JUMPDEST PUSH1 0x0 DUP4 PUSH1 0x0 PUSH1 0x1 DUP8 PUSH2 0x28BC SWAP2 SWAP1 PUSH2 0x48FE JUMP JUMPDEST DUP2 MSTORE PUSH1 0x20 ADD SWAP1 DUP2 MSTORE PUSH1 0x20 ADD PUSH1 0x0 KECCAK256 SLOAD EQ ISZERO PUSH2 0x28F9 JUMPI PUSH1 0x1 DUP5 PUSH2 0x28DE SWAP2 SWAP1 PUSH2 0x48FE JUMP JUMPDEST DUP4 PUSH1 0x0 DUP5 DUP2 MSTORE PUSH1 0x20 ADD SWAP1 DUP2 MSTORE PUSH1 0x20 ADD PUSH1 0x0 KECCAK256 DUP2 SWAP1 SSTORE POP PUSH2 0x292F JUMP JUMPDEST DUP3 PUSH1 0x0 PUSH1 0x1 DUP7 PUSH2 0x2909 SWAP2 SWAP1 PUSH2 0x48FE JUMP JUMPDEST DUP2 MSTORE PUSH1 0x20 ADD SWAP1 DUP2 MSTORE PUSH1 0x20 ADD PUSH1 0x0 KECCAK256 SLOAD DUP4 PUSH1 0x0 DUP5 DUP2 MSTORE PUSH1 0x20 ADD SWAP1 DUP2 MSTORE PUSH1 0x20 ADD PUSH1 0x0 KECCAK256 DUP2 SWAP1 SSTORE POP JUMPDEST PUSH1 0x1 PUSH2 0x100 PUSH1 0x0 PUSH1 0xFE SLOAD DUP2 MSTORE PUSH1 0x20 ADD SWAP1 DUP2 MSTORE PUSH1 0x20 ADD PUSH1 0x0 KECCAK256 PUSH1 0x1 ADD SLOAD PUSH2 0x2955 SWAP2 SWAP1 PUSH2 0x481D JUMP JUMPDEST PUSH2 0x100 PUSH1 0x0 PUSH1 0xFE SLOAD DUP2 MSTORE PUSH1 0x20 ADD SWAP1 DUP2 MSTORE PUSH1 0x20 ADD PUSH1 0x0 KECCAK256 PUSH1 0x1 ADD DUP2 SWAP1 SSTORE POP PUSH1 0x1 DUP2 PUSH2 0x297F SWAP2 SWAP1 PUSH2 0x481D JUMP JUMPDEST SWAP6 POP POP POP POP POP POP SWAP1 JUMP JUMPDEST PUSH1 0x0 PUSH2 0x2994 DUP4 PUSH2 0x10CE JUMP JUMPDEST SWAP1 POP DUP2 PUSH1 0x97 PUSH1 0x0 DUP6 DUP2 MSTORE PUSH1 0x20 ADD SWAP1 DUP2 MSTORE PUSH1 0x20 ADD PUSH1 0x0 KECCAK256 PUSH1 0x1 ADD DUP2 SWAP1 SSTORE POP DUP2 DUP2 DUP5 PUSH32 0xBD79B86FFE0AB8E8776151514217CD7CACD52C909F66475C3AF44E129F0B00FF PUSH1 0x40 MLOAD PUSH1 0x40 MLOAD DUP1 SWAP2 SUB SWAP1 LOG4 POP POP POP JUMP JUMPDEST PUSH2 0x29EF DUP3 DUP3 PUSH2 0x300A JUMP JUMPDEST PUSH2 0x2A14 DUP2 PUSH1 0xC9 PUSH1 0x0 DUP6 DUP2 MSTORE PUSH1 0x20 ADD SWAP1 DUP2 MSTORE PUSH1 0x20 ADD PUSH1 0x0 KECCAK256 PUSH2 0x30EB SWAP1 SWAP2 SWAP1 PUSH4 0xFFFFFFFF AND JUMP JUMPDEST POP POP POP JUMP JUMPDEST PUSH1 0x0 CALLER SWAP1 POP SWAP1 JUMP JUMPDEST PUSH2 0x2A2B DUP3 DUP3 PUSH2 0x311B JUMP JUMPDEST PUSH2 0x2A50 DUP2 PUSH1 0xC9 PUSH1 0x0 DUP6 DUP2 MSTORE PUSH1 0x20 ADD SWAP1 DUP2 MSTORE PUSH1 0x20 ADD PUSH1 0x0 KECCAK256 PUSH2 0x31FD SWAP1 SWAP2 SWAP1 PUSH4 0xFFFFFFFF AND JUMP JUMPDEST POP POP POP JUMP JUMPDEST PUSH1 0x0 PUSH2 0x2A63 DUP3 PUSH1 0x0 ADD PUSH2 0x322D JUMP JUMPDEST SWAP1 POP SWAP2 SWAP1 POP JUMP JUMPDEST PUSH1 0x0 DUP1 PUSH1 0x0 DUP1 PUSH2 0x2A7D DUP7 PUSH1 0x0 ADD DUP7 PUSH2 0x3242 JUMP JUMPDEST SWAP2 POP SWAP2 POP DUP2 PUSH1 0x0 SHR DUP2 PUSH1 0x0 SHR SWAP4 POP SWAP4 POP POP POP SWAP3 POP SWAP3 SWAP1 POP JUMP JUMPDEST PUSH2 0x2A9E PUSH2 0x2A19 JUMP JUMPDEST PUSH20 0xFFFFFFFFFFFFFFFFFFFFFFFFFFFFFFFFFFFFFFFF AND PUSH2 0x2ABC PUSH2 0x1B1E JUMP JUMPDEST PUSH20 0xFFFFFFFFFFFFFFFFFFFFFFFFFFFFFFFFFFFFFFFF AND EQ PUSH2 0x2B12 JUMPI PUSH1 0x40 MLOAD PUSH32 0x8C379A000000000000000000000000000000000000000000000000000000000 DUP2 MSTORE PUSH1 0x4 ADD PUSH2 0x2B09 SWAP1 PUSH2 0x45A6 JUMP JUMPDEST PUSH1 0x40 MLOAD DUP1 SWAP2 SUB SWAP1 REVERT JUMPDEST JUMP JUMPDEST PUSH1 0x0 PUSH1 0x33 PUSH1 0x0 SWAP1 SLOAD SWAP1 PUSH2 0x100 EXP SWAP1 DIV PUSH20 0xFFFFFFFFFFFFFFFFFFFFFFFFFFFFFFFFFFFFFFFF AND SWAP1 POP DUP2 PUSH1 0x33 PUSH1 0x0 PUSH2 0x100 EXP DUP2 SLOAD DUP2 PUSH20 0xFFFFFFFFFFFFFFFFFFFFFFFFFFFFFFFFFFFFFFFF MUL NOT AND SWAP1 DUP4 PUSH20 0xFFFFFFFFFFFFFFFFFFFFFFFFFFFFFFFFFFFFFFFF AND MUL OR SWAP1 SSTORE POP DUP2 PUSH20 0xFFFFFFFFFFFFFFFFFFFFFFFFFFFFFFFFFFFFFFFF AND DUP2 PUSH20 0xFFFFFFFFFFFFFFFFFFFFFFFFFFFFFFFFFFFFFFFF AND PUSH32 0x8BE0079C531659141344CD1FD0A4F28419497F9722A3DAAFE3B4186F6B6457E0 PUSH1 0x40 MLOAD PUSH1 0x40 MLOAD DUP1 SWAP2 SUB SWAP1 LOG3 POP POP JUMP JUMPDEST PUSH1 0x0 PUSH2 0x2BF0 DUP5 PUSH1 0x0 ADD DUP5 PUSH1 0x0 SHL DUP5 PUSH1 0x0 SHL PUSH2 0x3282 JUMP JUMPDEST SWAP1 POP SWAP4 SWAP3 POP POP POP JUMP JUMPDEST PUSH1 0x0 DUP1 DUP3 EQ ISZERO PUSH2 0x2C09 JUMPI PUSH1 0xFE SLOAD SWAP2 POP JUMPDEST PUSH1 0x0 PUSH2 0x100 PUSH1 0x0 DUP5 DUP2 MSTORE PUSH1 0x20 ADD SWAP1 DUP2 MSTORE PUSH1 0x20 ADD PUSH1 0x0 KECCAK256 SWAP1 POP PUSH1 0x0 DUP2 PUSH1 0x1 ADD SLOAD SWAP1 POP PUSH1 0x0 PUSH2 0x2C38 DUP4 PUSH1 0x3 ADD PUSH2 0x2A55 JUMP JUMPDEST SWAP1 POP PUSH1 0x0 JUMPDEST DUP2 DUP2 LT ISZERO PUSH2 0x2C98 JUMPI PUSH1 0x0 DUP1 PUSH2 0x2C5E DUP4 DUP8 PUSH1 0x3 ADD PUSH2 0x2A6A SWAP1 SWAP2 SWAP1 PUSH4 0xFFFFFFFF AND JUMP JUMPDEST SWAP2 POP SWAP2 POP DUP2 PUSH1 0x1 DUP7 PUSH2 0x2C70 SWAP2 SWAP1 PUSH2 0x481D JUMP JUMPDEST GT PUSH2 0x2C83 JUMPI DUP1 SWAP7 POP POP POP POP POP POP POP PUSH2 0x2CC8 JUMP JUMPDEST POP POP DUP1 DUP1 PUSH2 0x2C90 SWAP1 PUSH2 0x4A8F JUMP JUMPDEST SWAP2 POP POP PUSH2 0x2C3D JUMP JUMPDEST POP PUSH1 0x0 PUSH2 0x2CBD PUSH1 0x1 DUP4 PUSH2 0x2CAB SWAP2 SWAP1 PUSH2 0x48FE JUMP JUMPDEST DUP6 PUSH1 0x3 ADD PUSH2 0x2A6A SWAP1 SWAP2 SWAP1 PUSH4 0xFFFFFFFF AND JUMP JUMPDEST SWAP2 POP POP DUP1 SWAP5 POP POP POP POP POP JUMPDEST SWAP2 SWAP1 POP JUMP JUMPDEST PUSH1 0x0 PUSH2 0x2CDC DUP4 PUSH1 0x0 ADD DUP4 PUSH2 0x32BD JUMP JUMPDEST PUSH1 0x0 SHR SWAP1 POP SWAP3 SWAP2 POP POP JUMP JUMPDEST PUSH1 0x0 PUSH2 0x2CF5 DUP3 PUSH1 0x0 ADD PUSH2 0x32E8 JUMP JUMPDEST SWAP1 POP SWAP2 SWAP1 POP JUMP JUMPDEST PUSH1 0x0 DUP1 PUSH2 0x1F4 SWAP1 POP PUSH1 0x0 DUP2 DUP5 GT ISZERO PUSH2 0x2D22 JUMPI PUSH1 0xA DUP6 PUSH2 0x2D1B SWAP2 SWAP1 PUSH2 0x48A4 JUMP JUMPDEST SWAP1 POP PUSH2 0x2DA2 JUMP JUMPDEST DUP2 DUP6 DUP6 PUSH2 0x2D2F SWAP2 SWAP1 PUSH2 0x481D JUMP JUMPDEST GT PUSH2 0x2D48 JUMPI PUSH1 0x5 DUP6 PUSH2 0x2D41 SWAP2 SWAP1 PUSH2 0x48A4 JUMP JUMPDEST SWAP1 POP PUSH2 0x2DA1 JUMP JUMPDEST PUSH1 0x0 PUSH1 0x1 SWAP1 POP JUMPDEST DUP6 DUP2 GT PUSH2 0x2D9F JUMPI DUP3 DUP2 DUP7 PUSH2 0x2D63 SWAP2 SWAP1 PUSH2 0x481D JUMP JUMPDEST GT PUSH2 0x2D7C JUMPI PUSH1 0x5 DUP3 PUSH2 0x2D75 SWAP2 SWAP1 PUSH2 0x481D JUMP JUMPDEST SWAP2 POP PUSH2 0x2D8C JUMP JUMPDEST PUSH1 0xA DUP3 PUSH2 0x2D89 SWAP2 SWAP1 PUSH2 0x481D JUMP JUMPDEST SWAP2 POP JUMPDEST DUP1 DUP1 PUSH2 0x2D97 SWAP1 PUSH2 0x4A8F JUMP JUMPDEST SWAP2 POP POP PUSH2 0x2D4F JUMP JUMPDEST POP JUMPDEST JUMPDEST DUP1 SWAP3 POP POP POP SWAP3 SWAP2 POP POP JUMP JUMPDEST PUSH1 0x0 DUP1 DUP3 PUSH20 0xFFFFFFFFFFFFFFFFFFFFFFFFFFFFFFFFFFFFFFFF AND EXTCODESIZE GT SWAP1 POP SWAP2 SWAP1 POP JUMP JUMPDEST PUSH1 0x0 PUSH1 0x1 SWAP1 SLOAD SWAP1 PUSH2 0x100 EXP SWAP1 DIV PUSH1 0xFF AND PUSH2 0x2E1F JUMPI PUSH1 0x40 MLOAD PUSH32 0x8C379A000000000000000000000000000000000000000000000000000000000 DUP2 MSTORE PUSH1 0x4 ADD PUSH2 0x2E16 SWAP1 PUSH2 0x4666 JUMP JUMPDEST PUSH1 0x40 MLOAD DUP1 SWAP2 SUB SWAP1 REVERT JUMPDEST PUSH2 0x2E49 PUSH32 0xA49807205CE4D355092EF5A8A18F56E8913CF4A201FBE287825B095693C21775 DUP3 PUSH2 0x32F9 JUMP JUMPDEST PUSH2 0x2E73 PUSH32 0x97667070C54EF182B0F5858B034BEAC1B6F3089AA2D3188BB1E8929F4FA9B929 DUP3 PUSH2 0x32F9 JUMP JUMPDEST PUSH2 0x2EA4 PUSH32 0x97667070C54EF182B0F5858B034BEAC1B6F3089AA2D3188BB1E8929F4FA9B929 PUSH2 0x2E9F PUSH2 0x2A19 JUMP JUMPDEST PUSH2 0x32F9 JUMP JUMPDEST PUSH2 0x2EEE PUSH32 0x97667070C54EF182B0F5858B034BEAC1B6F3089AA2D3188BB1E8929F4FA9B929 PUSH32 0xA49807205CE4D355092EF5A8A18F56E8913CF4A201FBE287825B095693C21775 PUSH2 0x2989 JUMP JUMPDEST PUSH2 0x2F18 PUSH32 0xA49807205CE4D355092EF5A8A18F56E8913CF4A201FBE287825B095693C21775 DUP1 PUSH2 0x2989 JUMP JUMPDEST POP JUMP JUMPDEST PUSH1 0x0 PUSH32 0x1FFC9A700000000000000000000000000000000000000000000000000000000 PUSH28 0xFFFFFFFFFFFFFFFFFFFFFFFFFFFFFFFFFFFFFFFFFFFFFFFFFFFFFFFF NOT AND DUP3 PUSH28 0xFFFFFFFFFFFFFFFFFFFFFFFFFFFFFFFFFFFFFFFFFFFFFFFFFFFFFFFF NOT AND EQ SWAP1 POP SWAP2 SWAP1 POP JUMP JUMPDEST PUSH2 0x2F8F DUP3 DUP3 PUSH2 0x1B77 JUMP JUMPDEST PUSH2 0x3006 JUMPI PUSH2 0x2F9C DUP2 PUSH2 0x3307 JUMP JUMPDEST PUSH2 0x2FAA DUP4 PUSH1 0x0 SHR PUSH1 0x20 PUSH2 0x3334 JUMP JUMPDEST PUSH1 0x40 MLOAD PUSH1 0x20 ADD PUSH2 0x2FBB SWAP3 SWAP2 SWAP1 PUSH2 0x429F JUMP JUMPDEST PUSH1 0x40 MLOAD PUSH1 0x20 DUP2 DUP4 SUB SUB DUP2 MSTORE SWAP1 PUSH1 0x40 MSTORE PUSH1 0x40 MLOAD PUSH32 0x8C379A000000000000000000000000000000000000000000000000000000000 DUP2 MSTORE PUSH1 0x4 ADD PUSH2 0x2FFD SWAP2 SWAP1 PUSH2 0x4484 JUMP JUMPDEST PUSH1 0x40 MLOAD DUP1 SWAP2 SUB SWAP1 REVERT JUMPDEST POP POP JUMP JUMPDEST PUSH2 0x3014 DUP3 DUP3 PUSH2 0x1B77 JUMP JUMPDEST PUSH2 0x30E7 JUMPI PUSH1 0x1 PUSH1 0x97 PUSH1 0x0 DUP5 DUP2 MSTORE PUSH1 0x20 ADD SWAP1 DUP2 MSTORE PUSH1 0x20 ADD PUSH1 0x0 KECCAK256 PUSH1 0x0 ADD PUSH1 0x0 DUP4 PUSH20 0xFFFFFFFFFFFFFFFFFFFFFFFFFFFFFFFFFFFFFFFF AND PUSH20 0xFFFFFFFFFFFFFFFFFFFFFFFFFFFFFFFFFFFFFFFF AND DUP2 MSTORE PUSH1 0x20 ADD SWAP1 DUP2 MSTORE PUSH1 0x20 ADD PUSH1 0x0 KECCAK256 PUSH1 0x0 PUSH2 0x100 EXP DUP2 SLOAD DUP2 PUSH1 0xFF MUL NOT AND SWAP1 DUP4 ISZERO ISZERO MUL OR SWAP1 SSTORE POP PUSH2 0x308C PUSH2 0x2A19 JUMP JUMPDEST PUSH20 0xFFFFFFFFFFFFFFFFFFFFFFFFFFFFFFFFFFFFFFFF AND DUP2 PUSH20 0xFFFFFFFFFFFFFFFFFFFFFFFFFFFFFFFFFFFFFFFF AND DUP4 PUSH32 0x2F8788117E7EFF1D82E926EC794901D17C78024A50270940304540A733656F0D PUSH1 0x40 MLOAD PUSH1 0x40 MLOAD DUP1 SWAP2 SUB SWAP1 LOG4 JUMPDEST POP POP JUMP JUMPDEST PUSH1 0x0 PUSH2 0x3113 DUP4 PUSH1 0x0 ADD DUP4 PUSH20 0xFFFFFFFFFFFFFFFFFFFFFFFFFFFFFFFFFFFFFFFF AND PUSH1 0x0 SHL PUSH2 0x3570 JUMP JUMPDEST SWAP1 POP SWAP3 SWAP2 POP POP JUMP JUMPDEST PUSH2 0x3125 DUP3 DUP3 PUSH2 0x1B77 JUMP JUMPDEST ISZERO PUSH2 0x31F9 JUMPI PUSH1 0x0 PUSH1 0x97 PUSH1 0x0 DUP5 DUP2 MSTORE PUSH1 0x20 ADD SWAP1 DUP2 MSTORE PUSH1 0x20 ADD PUSH1 0x0 KECCAK256 PUSH1 0x0 ADD PUSH1 0x0 DUP4 PUSH20 0xFFFFFFFFFFFFFFFFFFFFFFFFFFFFFFFFFFFFFFFF AND PUSH20 0xFFFFFFFFFFFFFFFFFFFFFFFFFFFFFFFFFFFFFFFF AND DUP2 MSTORE PUSH1 0x20 ADD SWAP1 DUP2 MSTORE PUSH1 0x20 ADD PUSH1 0x0 KECCAK256 PUSH1 0x0 PUSH2 0x100 EXP DUP2 SLOAD DUP2 PUSH1 0xFF MUL NOT AND SWAP1 DUP4 ISZERO ISZERO MUL OR SWAP1 SSTORE POP PUSH2 0x319E PUSH2 0x2A19 JUMP JUMPDEST PUSH20 0xFFFFFFFFFFFFFFFFFFFFFFFFFFFFFFFFFFFFFFFF AND DUP2 PUSH20 0xFFFFFFFFFFFFFFFFFFFFFFFFFFFFFFFFFFFFFFFF AND DUP4 PUSH32 0xF6391F5C32D9C69D2A47EA670B442974B53935D1EDC7FD64EB21E047A839171B PUSH1 0x40 MLOAD PUSH1 0x40 MLOAD DUP1 SWAP2 SUB SWAP1 LOG4 JUMPDEST POP POP JUMP JUMPDEST PUSH1 0x0 PUSH2 0x3225 DUP4 PUSH1 0x0 ADD DUP4 PUSH20 0xFFFFFFFFFFFFFFFFFFFFFFFFFFFFFFFFFFFFFFFF AND PUSH1 0x0 SHL PUSH2 0x35E0 JUMP JUMPDEST SWAP1 POP SWAP3 SWAP2 POP POP JUMP JUMPDEST PUSH1 0x0 PUSH2 0x323B DUP3 PUSH1 0x0 ADD PUSH2 0x36F4 JUMP JUMPDEST SWAP1 POP SWAP2 SWAP1 POP JUMP JUMPDEST PUSH1 0x0 DUP1 PUSH1 0x0 PUSH2 0x325D DUP5 DUP7 PUSH1 0x0 ADD PUSH2 0x3709 SWAP1 SWAP2 SWAP1 PUSH4 0xFFFFFFFF AND JUMP JUMPDEST SWAP1 POP DUP1 DUP6 PUSH1 0x2 ADD PUSH1 0x0 DUP4 DUP2 MSTORE PUSH1 0x20 ADD SWAP1 DUP2 MSTORE PUSH1 0x20 ADD PUSH1 0x0 KECCAK256 SLOAD SWAP3 POP SWAP3 POP POP SWAP3 POP SWAP3 SWAP1 POP JUMP JUMPDEST PUSH1 0x0 DUP2 DUP5 PUSH1 0x2 ADD PUSH1 0x0 DUP6 DUP2 MSTORE PUSH1 0x20 ADD SWAP1 DUP2 MSTORE PUSH1 0x20 ADD PUSH1 0x0 KECCAK256 DUP2 SWAP1 SSTORE POP PUSH2 0x32B4 DUP4 DUP6 PUSH1 0x0 ADD PUSH2 0x3720 SWAP1 SWAP2 SWAP1 PUSH4 0xFFFFFFFF AND JUMP JUMPDEST SWAP1 POP SWAP4 SWAP3 POP POP POP JUMP JUMPDEST PUSH1 0x0 DUP3 PUSH1 0x0 ADD DUP3 DUP2 SLOAD DUP2 LT PUSH2 0x32D5 JUMPI PUSH2 0x32D4 PUSH2 0x4BF3 JUMP JUMPDEST JUMPDEST SWAP1 PUSH1 0x0 MSTORE PUSH1 0x20 PUSH1 0x0 KECCAK256 ADD SLOAD SWAP1 POP SWAP3 SWAP2 POP POP JUMP JUMPDEST PUSH1 0x0 DUP2 PUSH1 0x0 ADD DUP1 SLOAD SWAP1 POP SWAP1 POP SWAP2 SWAP1 POP JUMP JUMPDEST PUSH2 0x3303 DUP3 DUP3 PUSH2 0x29E5 JUMP JUMPDEST POP POP JUMP JUMPDEST PUSH1 0x60 PUSH2 0x332D DUP3 PUSH20 0xFFFFFFFFFFFFFFFFFFFFFFFFFFFFFFFFFFFFFFFF AND PUSH1 0x14 PUSH1 0xFF AND PUSH2 0x3334 JUMP JUMPDEST SWAP1 POP SWAP2 SWAP1 POP JUMP JUMPDEST PUSH1 0x60 PUSH1 0x0 PUSH1 0x2 DUP4 PUSH1 0x2 PUSH2 0x3347 SWAP2 SWAP1 PUSH2 0x48A4 JUMP JUMPDEST PUSH2 0x3351 SWAP2 SWAP1 PUSH2 0x481D JUMP JUMPDEST PUSH8 0xFFFFFFFFFFFFFFFF DUP2 GT ISZERO PUSH2 0x336A JUMPI PUSH2 0x3369 PUSH2 0x4C22 JUMP JUMPDEST JUMPDEST PUSH1 0x40 MLOAD SWAP1 DUP1 DUP3 MSTORE DUP1 PUSH1 0x1F ADD PUSH1 0x1F NOT AND PUSH1 0x20 ADD DUP3 ADD PUSH1 0x40 MSTORE DUP1 ISZERO PUSH2 0x339C JUMPI DUP2 PUSH1 0x20 ADD PUSH1 0x1 DUP3 MUL DUP1 CALLDATASIZE DUP4 CALLDATACOPY DUP1 DUP3 ADD SWAP2 POP POP SWAP1 POP JUMPDEST POP SWAP1 POP PUSH32 0x3000000000000000000000000000000000000000000000000000000000000000 DUP2 PUSH1 0x0 DUP2 MLOAD DUP2 LT PUSH2 0x33D4 JUMPI PUSH2 0x33D3 PUSH2 0x4BF3 JUMP JUMPDEST JUMPDEST PUSH1 0x20 ADD ADD SWAP1 PUSH31 0xFFFFFFFFFFFFFFFFFFFFFFFFFFFFFFFFFFFFFFFFFFFFFFFFFFFFFFFFFFFFFF NOT AND SWAP1 DUP2 PUSH1 0x0 BYTE SWAP1 MSTORE8 POP PUSH32 0x7800000000000000000000000000000000000000000000000000000000000000 DUP2 PUSH1 0x1 DUP2 MLOAD DUP2 LT PUSH2 0x3438 JUMPI PUSH2 0x3437 PUSH2 0x4BF3 JUMP JUMPDEST JUMPDEST PUSH1 0x20 ADD ADD SWAP1 PUSH31 0xFFFFFFFFFFFFFFFFFFFFFFFFFFFFFFFFFFFFFFFFFFFFFFFFFFFFFFFFFFFFFF NOT AND SWAP1 DUP2 PUSH1 0x0 BYTE SWAP1 MSTORE8 POP PUSH1 0x0 PUSH1 0x1 DUP5 PUSH1 0x2 PUSH2 0x3478 SWAP2 SWAP1 PUSH2 0x48A4 JUMP JUMPDEST PUSH2 0x3482 SWAP2 SWAP1 PUSH2 0x481D JUMP JUMPDEST SWAP1 POP JUMPDEST PUSH1 0x1 DUP2 GT ISZERO PUSH2 0x3522 JUMPI PUSH32 0x3031323334353637383961626364656600000000000000000000000000000000 PUSH1 0xF DUP7 AND PUSH1 0x10 DUP2 LT PUSH2 0x34C4 JUMPI PUSH2 0x34C3 PUSH2 0x4BF3 JUMP JUMPDEST JUMPDEST BYTE PUSH1 0xF8 SHL DUP3 DUP3 DUP2 MLOAD DUP2 LT PUSH2 0x34DB JUMPI PUSH2 0x34DA PUSH2 0x4BF3 JUMP JUMPDEST JUMPDEST PUSH1 0x20 ADD ADD SWAP1 PUSH31 0xFFFFFFFFFFFFFFFFFFFFFFFFFFFFFFFFFFFFFFFFFFFFFFFFFFFFFFFFFFFFFF NOT AND SWAP1 DUP2 PUSH1 0x0 BYTE SWAP1 MSTORE8 POP PUSH1 0x4 DUP6 SWAP1 SHR SWAP5 POP DUP1 PUSH2 0x351B SWAP1 PUSH2 0x4A02 JUMP JUMPDEST SWAP1 POP PUSH2 0x3485 JUMP JUMPDEST POP PUSH1 0x0 DUP5 EQ PUSH2 0x3566 JUMPI PUSH1 0x40 MLOAD PUSH32 0x8C379A000000000000000000000000000000000000000000000000000000000 DUP2 MSTORE PUSH1 0x4 ADD PUSH2 0x355D SWAP1 PUSH2 0x44A6 JUMP JUMPDEST PUSH1 0x40 MLOAD DUP1 SWAP2 SUB SWAP1 REVERT JUMPDEST DUP1 SWAP2 POP POP SWAP3 SWAP2 POP POP JUMP JUMPDEST PUSH1 0x0 PUSH2 0x357C DUP4 DUP4 PUSH2 0x3737 JUMP JUMPDEST PUSH2 0x35D5 JUMPI DUP3 PUSH1 0x0 ADD DUP3 SWAP1 DUP1 PUSH1 0x1 DUP2 SLOAD ADD DUP1 DUP3 SSTORE DUP1 SWAP2 POP POP PUSH1 0x1 SWAP1 SUB SWAP1 PUSH1 0x0 MSTORE PUSH1 0x20 PUSH1 0x0 KECCAK256 ADD PUSH1 0x0 SWAP1 SWAP2 SWAP1 SWAP2 SWAP1 SWAP2 POP SSTORE DUP3 PUSH1 0x0 ADD DUP1 SLOAD SWAP1 POP DUP4 PUSH1 0x1 ADD PUSH1 0x0 DUP5 DUP2 MSTORE PUSH1 0x20 ADD SWAP1 DUP2 MSTORE PUSH1 0x20 ADD PUSH1 0x0 KECCAK256 DUP2 SWAP1 SSTORE POP PUSH1 0x1 SWAP1 POP PUSH2 0x35DA JUMP JUMPDEST PUSH1 0x0 SWAP1 POP JUMPDEST SWAP3 SWAP2 POP POP JUMP JUMPDEST PUSH1 0x0 DUP1 DUP4 PUSH1 0x1 ADD PUSH1 0x0 DUP5 DUP2 MSTORE PUSH1 0x20 ADD SWAP1 DUP2 MSTORE PUSH1 0x20 ADD PUSH1 0x0 KECCAK256 SLOAD SWAP1 POP PUSH1 0x0 DUP2 EQ PUSH2 0x36E8 JUMPI PUSH1 0x0 PUSH1 0x1 DUP3 PUSH2 0x3612 SWAP2 SWAP1 PUSH2 0x48FE JUMP JUMPDEST SWAP1 POP PUSH1 0x0 PUSH1 0x1 DUP7 PUSH1 0x0 ADD DUP1 SLOAD SWAP1 POP PUSH2 0x362A SWAP2 SWAP1 PUSH2 0x48FE JUMP JUMPDEST SWAP1 POP DUP2 DUP2 EQ PUSH2 0x3699 JUMPI PUSH1 0x0 DUP7 PUSH1 0x0 ADD DUP3 DUP2 SLOAD DUP2 LT PUSH2 0x364B JUMPI PUSH2 0x364A PUSH2 0x4BF3 JUMP JUMPDEST JUMPDEST SWAP1 PUSH1 0x0 MSTORE PUSH1 0x20 PUSH1 0x0 KECCAK256 ADD SLOAD SWAP1 POP DUP1 DUP8 PUSH1 0x0 ADD DUP5 DUP2 SLOAD DUP2 LT PUSH2 0x366F JUMPI PUSH2 0x366E PUSH2 0x4BF3 JUMP JUMPDEST JUMPDEST SWAP1 PUSH1 0x0 MSTORE PUSH1 0x20 PUSH1 0x0 KECCAK256 ADD DUP2 SWAP1 SSTORE POP DUP4 DUP8 PUSH1 0x1 ADD PUSH1 0x0 DUP4 DUP2 MSTORE PUSH1 0x20 ADD SWAP1 DUP2 MSTORE PUSH1 0x20 ADD PUSH1 0x0 KECCAK256 DUP2 SWAP1 SSTORE POP POP JUMPDEST DUP6 PUSH1 0x0 ADD DUP1 SLOAD DUP1 PUSH2 0x36AD JUMPI PUSH2 0x36AC PUSH2 0x4BC4 JUMP JUMPDEST JUMPDEST PUSH1 0x1 SWAP1 SUB DUP2 DUP2 SWAP1 PUSH1 0x0 MSTORE PUSH1 0x20 PUSH1 0x0 KECCAK256 ADD PUSH1 0x0 SWAP1 SSTORE SWAP1 SSTORE DUP6 PUSH1 0x1 ADD PUSH1 0x0 DUP7 DUP2 MSTORE PUSH1 0x20 ADD SWAP1 DUP2 MSTORE PUSH1 0x20 ADD PUSH1 0x0 KECCAK256 PUSH1 0x0 SWAP1 SSTORE PUSH1 0x1 SWAP4 POP POP POP POP PUSH2 0x36EE JUMP JUMPDEST PUSH1 0x0 SWAP2 POP POP JUMPDEST SWAP3 SWAP2 POP POP JUMP JUMPDEST PUSH1 0x0 PUSH2 0x3702 DUP3 PUSH1 0x0 ADD PUSH2 0x32E8 JUMP JUMPDEST SWAP1 POP SWAP2 SWAP1 POP JUMP JUMPDEST PUSH1 0x0 PUSH2 0x3718 DUP4 PUSH1 0x0 ADD DUP4 PUSH2 0x32BD JUMP JUMPDEST SWAP1 POP SWAP3 SWAP2 POP POP JUMP JUMPDEST PUSH1 0x0 PUSH2 0x372F DUP4 PUSH1 0x0 ADD DUP4 PUSH2 0x3570 JUMP JUMPDEST SWAP1 POP SWAP3 SWAP2 POP POP JUMP JUMPDEST PUSH1 0x0 DUP1 DUP4 PUSH1 0x1 ADD PUSH1 0x0 DUP5 DUP2 MSTORE PUSH1 0x20 ADD SWAP1 DUP2 MSTORE PUSH1 0x20 ADD PUSH1 0x0 KECCAK256 SLOAD EQ ISZERO SWAP1 POP SWAP3 SWAP2 POP POP JUMP JUMPDEST DUP3 DUP1 SLOAD PUSH2 0x3766 SWAP1 PUSH2 0x4A2C JUMP JUMPDEST SWAP1 PUSH1 0x0 MSTORE PUSH1 0x20 PUSH1 0x0 KECCAK256 SWAP1 PUSH1 0x1F ADD PUSH1 0x20 SWAP1 DIV DUP2 ADD SWAP3 DUP3 PUSH2 0x3788 JUMPI PUSH1 0x0 DUP6 SSTORE PUSH2 0x37CF JUMP JUMPDEST DUP3 PUSH1 0x1F LT PUSH2 0x37A1 JUMPI DUP1 CALLDATALOAD PUSH1 0xFF NOT AND DUP4 DUP1 ADD OR DUP6 SSTORE PUSH2 0x37CF JUMP JUMPDEST DUP3 DUP1 ADD PUSH1 0x1 ADD DUP6 SSTORE DUP3 ISZERO PUSH2 0x37CF JUMPI SWAP2 DUP3 ADD JUMPDEST DUP3 DUP2 GT ISZERO PUSH2 0x37CE JUMPI DUP3 CALLDATALOAD DUP3 SSTORE SWAP2 PUSH1 0x20 ADD SWAP2 SWAP1 PUSH1 0x1 ADD SWAP1 PUSH2 0x37B3 JUMP JUMPDEST JUMPDEST POP SWAP1 POP PUSH2 0x37DC SWAP2 SWAP1 PUSH2 0x37E0 JUMP JUMPDEST POP SWAP1 JUMP JUMPDEST JUMPDEST DUP1 DUP3 GT ISZERO PUSH2 0x37F9 JUMPI PUSH1 0x0 DUP2 PUSH1 0x0 SWAP1 SSTORE POP PUSH1 0x1 ADD PUSH2 0x37E1 JUMP JUMPDEST POP SWAP1 JUMP JUMPDEST PUSH1 0x0 PUSH2 0x3810 PUSH2 0x380B DUP5 PUSH2 0x4786 JUMP JUMPDEST PUSH2 0x4761 JUMP JUMPDEST SWAP1 POP DUP1 DUP4 DUP3 MSTORE PUSH1 0x20 DUP3 ADD SWAP1 POP DUP3 DUP6 PUSH1 0x20 DUP7 MUL DUP3 ADD GT ISZERO PUSH2 0x3833 JUMPI PUSH2 0x3832 PUSH2 0x4C5B JUMP JUMPDEST JUMPDEST PUSH1 0x0 JUMPDEST DUP6 DUP2 LT ISZERO PUSH2 0x3863 JUMPI DUP2 PUSH2 0x3849 DUP9 DUP3 PUSH2 0x3945 JUMP JUMPDEST DUP5 MSTORE PUSH1 0x20 DUP5 ADD SWAP4 POP PUSH1 0x20 DUP4 ADD SWAP3 POP POP PUSH1 0x1 DUP2 ADD SWAP1 POP PUSH2 0x3836 JUMP JUMPDEST POP POP POP SWAP4 SWAP3 POP POP POP JUMP JUMPDEST PUSH1 0x0 DUP2 CALLDATALOAD SWAP1 POP PUSH2 0x387C DUP2 PUSH2 0x5057 JUMP JUMPDEST SWAP3 SWAP2 POP POP JUMP JUMPDEST PUSH1 0x0 DUP3 PUSH1 0x1F DUP4 ADD SLT PUSH2 0x3897 JUMPI PUSH2 0x3896 PUSH2 0x4C56 JUMP JUMPDEST JUMPDEST DUP2 CALLDATALOAD PUSH2 0x38A7 DUP5 DUP3 PUSH1 0x20 DUP7 ADD PUSH2 0x37FD JUMP JUMPDEST SWAP2 POP POP SWAP3 SWAP2 POP POP JUMP JUMPDEST PUSH1 0x0 DUP2 CALLDATALOAD SWAP1 POP PUSH2 0x38BF DUP2 PUSH2 0x506E JUMP JUMPDEST SWAP3 SWAP2 POP POP JUMP JUMPDEST PUSH1 0x0 DUP2 CALLDATALOAD SWAP1 POP PUSH2 0x38D4 DUP2 PUSH2 0x5085 JUMP JUMPDEST SWAP3 SWAP2 POP POP JUMP JUMPDEST PUSH1 0x0 DUP2 CALLDATALOAD SWAP1 POP PUSH2 0x38E9 DUP2 PUSH2 0x509C JUMP JUMPDEST SWAP3 SWAP2 POP POP JUMP JUMPDEST PUSH1 0x0 DUP1 DUP4 PUSH1 0x1F DUP5 ADD SLT PUSH2 0x3905 JUMPI PUSH2 0x3904 PUSH2 0x4C56 JUMP JUMPDEST JUMPDEST DUP3 CALLDATALOAD SWAP1 POP PUSH8 0xFFFFFFFFFFFFFFFF DUP2 GT ISZERO PUSH2 0x3922 JUMPI PUSH2 0x3921 PUSH2 0x4C51 JUMP JUMPDEST JUMPDEST PUSH1 0x20 DUP4 ADD SWAP2 POP DUP4 PUSH1 0x1 DUP3 MUL DUP4 ADD GT ISZERO PUSH2 0x393E JUMPI PUSH2 0x393D PUSH2 0x4C5B JUMP JUMPDEST JUMPDEST SWAP3 POP SWAP3 SWAP1 POP JUMP JUMPDEST PUSH1 0x0 DUP2 CALLDATALOAD SWAP1 POP PUSH2 0x3954 DUP2 PUSH2 0x50B3 JUMP JUMPDEST SWAP3 SWAP2 POP POP JUMP JUMPDEST PUSH1 0x0 DUP2 MLOAD SWAP1 POP PUSH2 0x3969 DUP2 PUSH2 0x50B3 JUMP JUMPDEST SWAP3 SWAP2 POP POP JUMP JUMPDEST PUSH1 0x0 PUSH1 0x20 DUP3 DUP5 SUB SLT ISZERO PUSH2 0x3985 JUMPI PUSH2 0x3984 PUSH2 0x4C65 JUMP JUMPDEST JUMPDEST PUSH1 0x0 PUSH2 0x3993 DUP5 DUP3 DUP6 ADD PUSH2 0x386D JUMP JUMPDEST SWAP2 POP POP SWAP3 SWAP2 POP POP JUMP JUMPDEST PUSH1 0x0 DUP1 PUSH1 0x0 DUP1 PUSH1 0x0 DUP1 PUSH1 0xC0 DUP8 DUP10 SUB SLT ISZERO PUSH2 0x39B9 JUMPI PUSH2 0x39B8 PUSH2 0x4C65 JUMP JUMPDEST JUMPDEST PUSH1 0x0 PUSH2 0x39C7 DUP10 DUP3 DUP11 ADD PUSH2 0x386D JUMP JUMPDEST SWAP7 POP POP PUSH1 0x20 PUSH2 0x39D8 DUP10 DUP3 DUP11 ADD PUSH2 0x386D JUMP JUMPDEST SWAP6 POP POP PUSH1 0x40 PUSH2 0x39E9 DUP10 DUP3 DUP11 ADD PUSH2 0x3945 JUMP JUMPDEST SWAP5 POP POP PUSH1 0x60 PUSH2 0x39FA DUP10 DUP3 DUP11 ADD PUSH2 0x386D JUMP JUMPDEST SWAP4 POP POP PUSH1 0x80 PUSH2 0x3A0B DUP10 DUP3 DUP11 ADD PUSH2 0x386D JUMP JUMPDEST SWAP3 POP POP PUSH1 0xA0 PUSH2 0x3A1C DUP10 DUP3 DUP11 ADD PUSH2 0x386D JUMP JUMPDEST SWAP2 POP POP SWAP3 SWAP6 POP SWAP3 SWAP6 POP SWAP3 SWAP6 JUMP JUMPDEST PUSH1 0x0 DUP1 PUSH1 0x40 DUP4 DUP6 SUB SLT ISZERO PUSH2 0x3A40 JUMPI PUSH2 0x3A3F PUSH2 0x4C65 JUMP JUMPDEST JUMPDEST PUSH1 0x0 PUSH2 0x3A4E DUP6 DUP3 DUP7 ADD PUSH2 0x386D JUMP JUMPDEST SWAP3 POP POP PUSH1 0x20 PUSH2 0x3A5F DUP6 DUP3 DUP7 ADD PUSH2 0x3945 JUMP JUMPDEST SWAP2 POP POP SWAP3 POP SWAP3 SWAP1 POP JUMP JUMPDEST PUSH1 0x0 PUSH1 0x20 DUP3 DUP5 SUB SLT ISZERO PUSH2 0x3A7F JUMPI PUSH2 0x3A7E PUSH2 0x4C65 JUMP JUMPDEST JUMPDEST PUSH1 0x0 PUSH2 0x3A8D DUP5 DUP3 DUP6 ADD PUSH2 0x38B0 JUMP JUMPDEST SWAP2 POP POP SWAP3 SWAP2 POP POP JUMP JUMPDEST PUSH1 0x0 PUSH1 0x20 DUP3 DUP5 SUB SLT ISZERO PUSH2 0x3AAC JUMPI PUSH2 0x3AAB PUSH2 0x4C65 JUMP JUMPDEST JUMPDEST PUSH1 0x0 PUSH2 0x3ABA DUP5 DUP3 DUP6 ADD PUSH2 0x38C5 JUMP JUMPDEST SWAP2 POP POP SWAP3 SWAP2 POP POP JUMP JUMPDEST PUSH1 0x0 DUP1 PUSH1 0x40 DUP4 DUP6 SUB SLT ISZERO PUSH2 0x3ADA JUMPI PUSH2 0x3AD9 PUSH2 0x4C65 JUMP JUMPDEST JUMPDEST PUSH1 0x0 PUSH2 0x3AE8 DUP6 DUP3 DUP7 ADD PUSH2 0x38C5 JUMP JUMPDEST SWAP3 POP POP PUSH1 0x20 PUSH2 0x3AF9 DUP6 DUP3 DUP7 ADD PUSH2 0x386D JUMP JUMPDEST SWAP2 POP POP SWAP3 POP SWAP3 SWAP1 POP JUMP JUMPDEST PUSH1 0x0 DUP1 PUSH1 0x40 DUP4 DUP6 SUB SLT ISZERO PUSH2 0x3B1A JUMPI PUSH2 0x3B19 PUSH2 0x4C65 JUMP JUMPDEST JUMPDEST PUSH1 0x0 PUSH2 0x3B28 DUP6 DUP3 DUP7 ADD PUSH2 0x38C5 JUMP JUMPDEST SWAP3 POP POP PUSH1 0x20 PUSH2 0x3B39 DUP6 DUP3 DUP7 ADD PUSH2 0x38C5 JUMP JUMPDEST SWAP2 POP POP SWAP3 POP SWAP3 SWAP1 POP JUMP JUMPDEST PUSH1 0x0 DUP1 PUSH1 0x40 DUP4 DUP6 SUB SLT ISZERO PUSH2 0x3B5A JUMPI PUSH2 0x3B59 PUSH2 0x4C65 JUMP JUMPDEST JUMPDEST PUSH1 0x0 PUSH2 0x3B68 DUP6 DUP3 DUP7 ADD PUSH2 0x38C5 JUMP JUMPDEST SWAP3 POP POP PUSH1 0x20 PUSH2 0x3B79 DUP6 DUP3 DUP7 ADD PUSH2 0x3945 JUMP JUMPDEST SWAP2 POP POP SWAP3 POP SWAP3 SWAP1 POP JUMP JUMPDEST PUSH1 0x0 PUSH1 0x20 DUP3 DUP5 SUB SLT ISZERO PUSH2 0x3B99 JUMPI PUSH2 0x3B98 PUSH2 0x4C65 JUMP JUMPDEST JUMPDEST PUSH1 0x0 PUSH2 0x3BA7 DUP5 DUP3 DUP6 ADD PUSH2 0x38DA JUMP JUMPDEST SWAP2 POP POP SWAP3 SWAP2 POP POP JUMP JUMPDEST PUSH1 0x0 PUSH1 0x20 DUP3 DUP5 SUB SLT ISZERO PUSH2 0x3BC6 JUMPI PUSH2 0x3BC5 PUSH2 0x4C65 JUMP JUMPDEST JUMPDEST PUSH1 0x0 PUSH2 0x3BD4 DUP5 DUP3 DUP6 ADD PUSH2 0x3945 JUMP JUMPDEST SWAP2 POP POP SWAP3 SWAP2 POP POP JUMP JUMPDEST PUSH1 0x0 PUSH1 0x20 DUP3 DUP5 SUB SLT ISZERO PUSH2 0x3BF3 JUMPI PUSH2 0x3BF2 PUSH2 0x4C65 JUMP JUMPDEST JUMPDEST PUSH1 0x0 PUSH2 0x3C01 DUP5 DUP3 DUP6 ADD PUSH2 0x395A JUMP JUMPDEST SWAP2 POP POP SWAP3 SWAP2 POP POP JUMP JUMPDEST PUSH1 0x0 DUP1 PUSH1 0x40 DUP4 DUP6 SUB SLT ISZERO PUSH2 0x3C21 JUMPI PUSH2 0x3C20 PUSH2 0x4C65 JUMP JUMPDEST JUMPDEST PUSH1 0x0 PUSH2 0x3C2F DUP6 DUP3 DUP7 ADD PUSH2 0x3945 JUMP JUMPDEST SWAP3 POP POP PUSH1 0x20 PUSH2 0x3C40 DUP6 DUP3 DUP7 ADD PUSH2 0x3945 JUMP JUMPDEST SWAP2 POP POP SWAP3 POP SWAP3 SWAP1 POP JUMP JUMPDEST PUSH1 0x0 DUP1 PUSH1 0x40 DUP4 DUP6 SUB SLT ISZERO PUSH2 0x3C61 JUMPI PUSH2 0x3C60 PUSH2 0x4C65 JUMP JUMPDEST JUMPDEST PUSH1 0x0 PUSH2 0x3C6F DUP6 DUP3 DUP7 ADD PUSH2 0x395A JUMP JUMPDEST SWAP3 POP POP PUSH1 0x20 PUSH2 0x3C80 DUP6 DUP3 DUP7 ADD PUSH2 0x395A JUMP JUMPDEST SWAP2 POP POP SWAP3 POP SWAP3 SWAP1 POP JUMP JUMPDEST PUSH1 0x0 DUP1 PUSH1 0x0 DUP1 PUSH1 0x0 DUP1 PUSH1 0xA0 DUP8 DUP10 SUB SLT ISZERO PUSH2 0x3CA7 JUMPI PUSH2 0x3CA6 PUSH2 0x4C65 JUMP JUMPDEST JUMPDEST PUSH1 0x0 PUSH2 0x3CB5 DUP10 DUP3 DUP11 ADD PUSH2 0x3945 JUMP JUMPDEST SWAP7 POP POP PUSH1 0x20 PUSH2 0x3CC6 DUP10 DUP3 DUP11 ADD PUSH2 0x3945 JUMP JUMPDEST SWAP6 POP POP PUSH1 0x40 DUP8 ADD CALLDATALOAD PUSH8 0xFFFFFFFFFFFFFFFF DUP2 GT ISZERO PUSH2 0x3CE7 JUMPI PUSH2 0x3CE6 PUSH2 0x4C60 JUMP JUMPDEST JUMPDEST PUSH2 0x3CF3 DUP10 DUP3 DUP11 ADD PUSH2 0x38EF JUMP JUMPDEST SWAP5 POP SWAP5 POP POP PUSH1 0x60 DUP8 ADD CALLDATALOAD PUSH8 0xFFFFFFFFFFFFFFFF DUP2 GT ISZERO PUSH2 0x3D16 JUMPI PUSH2 0x3D15 PUSH2 0x4C60 JUMP JUMPDEST JUMPDEST PUSH2 0x3D22 DUP10 DUP3 DUP11 ADD PUSH2 0x3882 JUMP JUMPDEST SWAP3 POP POP PUSH1 0x80 DUP8 ADD CALLDATALOAD PUSH8 0xFFFFFFFFFFFFFFFF DUP2 GT ISZERO PUSH2 0x3D43 JUMPI PUSH2 0x3D42 PUSH2 0x4C60 JUMP JUMPDEST JUMPDEST PUSH2 0x3D4F DUP10 DUP3 DUP11 ADD PUSH2 0x3882 JUMP JUMPDEST SWAP2 POP POP SWAP3 SWAP6 POP SWAP3 SWAP6 POP SWAP3 SWAP6 JUMP JUMPDEST PUSH1 0x0 DUP1 PUSH1 0x0 DUP1 PUSH1 0x0 DUP1 PUSH1 0x0 PUSH1 0xC0 DUP9 DUP11 SUB SLT ISZERO PUSH2 0x3D7B JUMPI PUSH2 0x3D7A PUSH2 0x4C65 JUMP JUMPDEST JUMPDEST PUSH1 0x0 PUSH2 0x3D89 DUP11 DUP3 DUP12 ADD PUSH2 0x3945 JUMP JUMPDEST SWAP8 POP POP PUSH1 0x20 PUSH2 0x3D9A DUP11 DUP3 DUP12 ADD PUSH2 0x3945 JUMP JUMPDEST SWAP7 POP POP PUSH1 0x40 PUSH2 0x3DAB DUP11 DUP3 DUP12 ADD PUSH2 0x3945 JUMP JUMPDEST SWAP6 POP POP PUSH1 0x60 DUP9 ADD CALLDATALOAD PUSH8 0xFFFFFFFFFFFFFFFF DUP2 GT ISZERO PUSH2 0x3DCC JUMPI PUSH2 0x3DCB PUSH2 0x4C60 JUMP JUMPDEST JUMPDEST PUSH2 0x3DD8 DUP11 DUP3 DUP12 ADD PUSH2 0x38EF JUMP JUMPDEST SWAP5 POP SWAP5 POP POP PUSH1 0x80 DUP9 ADD CALLDATALOAD PUSH8 0xFFFFFFFFFFFFFFFF DUP2 GT ISZERO PUSH2 0x3DFB JUMPI PUSH2 0x3DFA PUSH2 0x4C60 JUMP JUMPDEST JUMPDEST PUSH2 0x3E07 DUP11 DUP3 DUP12 ADD PUSH2 0x3882 JUMP JUMPDEST SWAP3 POP POP PUSH1 0xA0 DUP9 ADD CALLDATALOAD PUSH8 0xFFFFFFFFFFFFFFFF DUP2 GT ISZERO PUSH2 0x3E28 JUMPI PUSH2 0x3E27 PUSH2 0x4C60 JUMP JUMPDEST JUMPDEST PUSH2 0x3E34 DUP11 DUP3 DUP12 ADD PUSH2 0x3882 JUMP JUMPDEST SWAP2 POP POP SWAP3 SWAP6 SWAP9 SWAP2 SWAP5 SWAP8 POP SWAP3 SWAP6 POP JUMP JUMPDEST PUSH1 0x0 PUSH2 0x3E4F DUP4 DUP4 PUSH2 0x4255 JUMP JUMPDEST PUSH1 0x20 DUP4 ADD SWAP1 POP SWAP3 SWAP2 POP POP JUMP JUMPDEST PUSH2 0x3E64 DUP2 PUSH2 0x4932 JUMP JUMPDEST DUP3 MSTORE POP POP JUMP JUMPDEST PUSH2 0x3E7B PUSH2 0x3E76 DUP3 PUSH2 0x4932 JUMP JUMPDEST PUSH2 0x4AD8 JUMP JUMPDEST DUP3 MSTORE POP POP JUMP JUMPDEST PUSH1 0x0 PUSH2 0x3E8C DUP3 PUSH2 0x47C2 JUMP JUMPDEST PUSH2 0x3E96 DUP2 DUP6 PUSH2 0x47E5 JUMP JUMPDEST SWAP4 POP PUSH2 0x3EA1 DUP4 PUSH2 0x47B2 JUMP JUMPDEST DUP1 PUSH1 0x0 JUMPDEST DUP4 DUP2 LT ISZERO PUSH2 0x3ED2 JUMPI DUP2 MLOAD PUSH2 0x3EB9 DUP9 DUP3 PUSH2 0x3E43 JUMP JUMPDEST SWAP8 POP PUSH2 0x3EC4 DUP4 PUSH2 0x47D8 JUMP JUMPDEST SWAP3 POP POP PUSH1 0x1 DUP2 ADD SWAP1 POP PUSH2 0x3EA5 JUMP JUMPDEST POP DUP6 SWAP4 POP POP POP POP SWAP3 SWAP2 POP POP JUMP JUMPDEST PUSH2 0x3EE8 DUP2 PUSH2 0x4944 JUMP JUMPDEST DUP3 MSTORE POP POP JUMP JUMPDEST PUSH2 0x3EF7 DUP2 PUSH2 0x4950 JUMP JUMPDEST DUP3 MSTORE POP POP JUMP JUMPDEST PUSH2 0x3F06 DUP2 PUSH2 0x49BD JUMP JUMPDEST DUP3 MSTORE POP POP JUMP JUMPDEST PUSH1 0x0 PUSH2 0x3F17 DUP3 PUSH2 0x47CD JUMP JUMPDEST PUSH2 0x3F21 DUP2 DUP6 PUSH2 0x4801 JUMP JUMPDEST SWAP4 POP PUSH2 0x3F31 DUP2 DUP6 PUSH1 0x20 DUP7 ADD PUSH2 0x49CF JUMP JUMPDEST PUSH2 0x3F3A DUP2 PUSH2 0x4C6A JUMP JUMPDEST DUP5 ADD SWAP2 POP POP SWAP3 SWAP2 POP POP JUMP JUMPDEST PUSH1 0x0 PUSH2 0x3F50 DUP3 PUSH2 0x47CD JUMP JUMPDEST PUSH2 0x3F5A DUP2 DUP6 PUSH2 0x4812 JUMP JUMPDEST SWAP4 POP PUSH2 0x3F6A DUP2 DUP6 PUSH1 0x20 DUP7 ADD PUSH2 0x49CF JUMP JUMPDEST DUP1 DUP5 ADD SWAP2 POP POP SWAP3 SWAP2 POP POP JUMP JUMPDEST PUSH1 0x0 PUSH2 0x3F83 PUSH1 0x20 DUP4 PUSH2 0x4801 JUMP JUMPDEST SWAP2 POP PUSH2 0x3F8E DUP3 PUSH2 0x4C88 JUMP JUMPDEST PUSH1 0x20 DUP3 ADD SWAP1 POP SWAP2 SWAP1 POP JUMP JUMPDEST PUSH1 0x0 PUSH2 0x3FA6 PUSH1 0x8 DUP4 PUSH2 0x4801 JUMP JUMPDEST SWAP2 POP PUSH2 0x3FB1 DUP3 PUSH2 0x4CB1 JUMP JUMPDEST PUSH1 0x20 DUP3 ADD SWAP1 POP SWAP2 SWAP1 POP JUMP JUMPDEST PUSH1 0x0 PUSH2 0x3FC9 PUSH1 0x12 DUP4 PUSH2 0x4801 JUMP JUMPDEST SWAP2 POP PUSH2 0x3FD4 DUP3 PUSH2 0x4CDA JUMP JUMPDEST PUSH1 0x20 DUP3 ADD SWAP1 POP SWAP2 SWAP1 POP JUMP JUMPDEST PUSH1 0x0 PUSH2 0x3FEC PUSH1 0xC DUP4 PUSH2 0x4801 JUMP JUMPDEST SWAP2 POP PUSH2 0x3FF7 DUP3 PUSH2 0x4D03 JUMP JUMPDEST PUSH1 0x20 DUP3 ADD SWAP1 POP SWAP2 SWAP1 POP JUMP JUMPDEST PUSH1 0x0 PUSH2 0x400F PUSH1 0x26 DUP4 PUSH2 0x4801 JUMP JUMPDEST SWAP2 POP PUSH2 0x401A DUP3 PUSH2 0x4D2C JUMP JUMPDEST PUSH1 0x40 DUP3 ADD SWAP1 POP SWAP2 SWAP1 POP JUMP JUMPDEST PUSH1 0x0 PUSH2 0x4032 PUSH1 0x1D DUP4 PUSH2 0x4801 JUMP JUMPDEST SWAP2 POP PUSH2 0x403D DUP3 PUSH2 0x4D7B JUMP JUMPDEST PUSH1 0x20 DUP3 ADD SWAP1 POP SWAP2 SWAP1 POP JUMP JUMPDEST PUSH1 0x0 PUSH2 0x4055 PUSH1 0x2E DUP4 PUSH2 0x4801 JUMP JUMPDEST SWAP2 POP PUSH2 0x4060 DUP3 PUSH2 0x4DA4 JUMP JUMPDEST PUSH1 0x40 DUP3 ADD SWAP1 POP SWAP2 SWAP1 POP JUMP JUMPDEST PUSH1 0x0 PUSH2 0x4078 PUSH1 0xE DUP4 PUSH2 0x4801 JUMP JUMPDEST SWAP2 POP PUSH2 0x4083 DUP3 PUSH2 0x4DF3 JUMP JUMPDEST PUSH1 0x20 DUP3 ADD SWAP1 POP SWAP2 SWAP1 POP JUMP JUMPDEST PUSH1 0x0 PUSH2 0x409B PUSH1 0x20 DUP4 PUSH2 0x4801 JUMP JUMPDEST SWAP2 POP PUSH2 0x40A6 DUP3 PUSH2 0x4E1C JUMP JUMPDEST PUSH1 0x20 DUP3 ADD SWAP1 POP SWAP2 SWAP1 POP JUMP JUMPDEST PUSH1 0x0 PUSH2 0x40BE PUSH1 0xC DUP4 PUSH2 0x4801 JUMP JUMPDEST SWAP2 POP PUSH2 0x40C9 DUP3 PUSH2 0x4E45 JUMP JUMPDEST PUSH1 0x20 DUP3 ADD SWAP1 POP SWAP2 SWAP1 POP JUMP JUMPDEST PUSH1 0x0 PUSH2 0x40E1 PUSH1 0x2 DUP4 PUSH2 0x4801 JUMP JUMPDEST SWAP2 POP PUSH2 0x40EC DUP3 PUSH2 0x4E6E JUMP JUMPDEST PUSH1 0x20 DUP3 ADD SWAP1 POP SWAP2 SWAP1 POP JUMP JUMPDEST PUSH1 0x0 PUSH2 0x4104 PUSH1 0x2 DUP4 PUSH2 0x4801 JUMP JUMPDEST SWAP2 POP PUSH2 0x410F DUP3 PUSH2 0x4E97 JUMP JUMPDEST PUSH1 0x20 DUP3 ADD SWAP1 POP SWAP2 SWAP1 POP JUMP JUMPDEST PUSH1 0x0 PUSH2 0x4127 PUSH1 0x10 DUP4 PUSH2 0x4801 JUMP JUMPDEST SWAP2 POP PUSH2 0x4132 DUP3 PUSH2 0x4EC0 JUMP JUMPDEST PUSH1 0x20 DUP3 ADD SWAP1 POP SWAP2 SWAP1 POP JUMP JUMPDEST PUSH1 0x0 PUSH2 0x414A PUSH1 0x2 DUP4 PUSH2 0x4801 JUMP JUMPDEST SWAP2 POP PUSH2 0x4155 DUP3 PUSH2 0x4EE9 JUMP JUMPDEST PUSH1 0x20 DUP3 ADD SWAP1 POP SWAP2 SWAP1 POP JUMP JUMPDEST PUSH1 0x0 PUSH2 0x416D PUSH1 0x0 DUP4 PUSH2 0x47F6 JUMP JUMPDEST SWAP2 POP PUSH2 0x4178 DUP3 PUSH2 0x4F12 JUMP JUMPDEST PUSH1 0x0 DUP3 ADD SWAP1 POP SWAP2 SWAP1 POP JUMP JUMPDEST PUSH1 0x0 PUSH2 0x4190 PUSH1 0x2B DUP4 PUSH2 0x4801 JUMP JUMPDEST SWAP2 POP PUSH2 0x419B DUP3 PUSH2 0x4F15 JUMP JUMPDEST PUSH1 0x40 DUP3 ADD SWAP1 POP SWAP2 SWAP1 POP JUMP JUMPDEST PUSH1 0x0 PUSH2 0x41B3 PUSH1 0x17 DUP4 PUSH2 0x4812 JUMP JUMPDEST SWAP2 POP PUSH2 0x41BE DUP3 PUSH2 0x4F64 JUMP JUMPDEST PUSH1 0x17 DUP3 ADD SWAP1 POP SWAP2 SWAP1 POP JUMP JUMPDEST PUSH1 0x0 PUSH2 0x41D6 PUSH1 0x11 DUP4 PUSH2 0x4801 JUMP JUMPDEST SWAP2 POP PUSH2 0x41E1 DUP3 PUSH2 0x4F8D JUMP JUMPDEST PUSH1 0x20 DUP3 ADD SWAP1 POP SWAP2 SWAP1 POP JUMP JUMPDEST PUSH1 0x0 PUSH2 0x41F9 PUSH1 0x11 DUP4 PUSH2 0x4812 JUMP JUMPDEST SWAP2 POP PUSH2 0x4204 DUP3 PUSH2 0x4FB6 JUMP JUMPDEST PUSH1 0x11 DUP3 ADD SWAP1 POP SWAP2 SWAP1 POP JUMP JUMPDEST PUSH1 0x0 PUSH2 0x421C PUSH1 0x2F DUP4 PUSH2 0x4801 JUMP JUMPDEST SWAP2 POP PUSH2 0x4227 DUP3 PUSH2 0x4FDF JUMP JUMPDEST PUSH1 0x40 DUP3 ADD SWAP1 POP SWAP2 SWAP1 POP JUMP JUMPDEST PUSH1 0x0 PUSH2 0x423F PUSH1 0xB DUP4 PUSH2 0x4801 JUMP JUMPDEST SWAP2 POP PUSH2 0x424A DUP3 PUSH2 0x502E JUMP JUMPDEST PUSH1 0x20 DUP3 ADD SWAP1 POP SWAP2 SWAP1 POP JUMP JUMPDEST PUSH2 0x425E DUP2 PUSH2 0x49A6 JUMP JUMPDEST DUP3 MSTORE POP POP JUMP JUMPDEST PUSH2 0x426D DUP2 PUSH2 0x49A6 JUMP JUMPDEST DUP3 MSTORE POP POP JUMP JUMPDEST PUSH2 0x4284 PUSH2 0x427F DUP3 PUSH2 0x49A6 JUMP JUMPDEST PUSH2 0x4AFC JUMP JUMPDEST DUP3 MSTORE POP POP JUMP JUMPDEST PUSH1 0x0 PUSH2 0x4295 DUP3 PUSH2 0x4160 JUMP JUMPDEST SWAP2 POP DUP2 SWAP1 POP SWAP2 SWAP1 POP JUMP JUMPDEST PUSH1 0x0 PUSH2 0x42AA DUP3 PUSH2 0x41A6 JUMP JUMPDEST SWAP2 POP PUSH2 0x42B6 DUP3 DUP6 PUSH2 0x3F45 JUMP JUMPDEST SWAP2 POP PUSH2 0x42C1 DUP3 PUSH2 0x41EC JUMP JUMPDEST SWAP2 POP PUSH2 0x42CD DUP3 DUP5 PUSH2 0x3F45 JUMP JUMPDEST SWAP2 POP DUP2 SWAP1 POP SWAP4 SWAP3 POP POP POP JUMP JUMPDEST PUSH1 0x0 PUSH2 0x42E5 DUP3 DUP8 PUSH2 0x4273 JUMP JUMPDEST PUSH1 0x20 DUP3 ADD SWAP2 POP PUSH2 0x42F5 DUP3 DUP7 PUSH2 0x3E6A JUMP JUMPDEST PUSH1 0x14 DUP3 ADD SWAP2 POP PUSH2 0x4305 DUP3 DUP6 PUSH2 0x4273 JUMP JUMPDEST PUSH1 0x20 DUP3 ADD SWAP2 POP PUSH2 0x4315 DUP3 DUP5 PUSH2 0x4273 JUMP JUMPDEST PUSH1 0x20 DUP3 ADD SWAP2 POP DUP2 SWAP1 POP SWAP6 SWAP5 POP POP POP POP POP JUMP JUMPDEST PUSH1 0x0 PUSH1 0x20 DUP3 ADD SWAP1 POP PUSH2 0x433C PUSH1 0x0 DUP4 ADD DUP5 PUSH2 0x3E5B JUMP JUMPDEST SWAP3 SWAP2 POP POP JUMP JUMPDEST PUSH1 0x0 PUSH1 0x60 DUP3 ADD SWAP1 POP PUSH2 0x4357 PUSH1 0x0 DUP4 ADD DUP7 PUSH2 0x3E5B JUMP JUMPDEST DUP2 DUP2 SUB PUSH1 0x20 DUP4 ADD MSTORE PUSH2 0x4369 DUP2 DUP6 PUSH2 0x3E81 JUMP JUMPDEST SWAP1 POP DUP2 DUP2 SUB PUSH1 0x40 DUP4 ADD MSTORE PUSH2 0x437D DUP2 DUP5 PUSH2 0x3F0C JUMP JUMPDEST SWAP1 POP SWAP5 SWAP4 POP POP POP POP JUMP JUMPDEST PUSH1 0x0 PUSH1 0x60 DUP3 ADD SWAP1 POP PUSH2 0x439C PUSH1 0x0 DUP4 ADD DUP7 PUSH2 0x3E5B JUMP JUMPDEST PUSH2 0x43A9 PUSH1 0x20 DUP4 ADD DUP6 PUSH2 0x4264 JUMP JUMPDEST DUP2 DUP2 SUB PUSH1 0x40 DUP4 ADD MSTORE PUSH2 0x43BB DUP2 DUP5 PUSH2 0x3F0C JUMP JUMPDEST SWAP1 POP SWAP5 SWAP4 POP POP POP POP JUMP JUMPDEST PUSH1 0x0 PUSH1 0x60 DUP3 ADD SWAP1 POP PUSH2 0x43DA PUSH1 0x0 DUP4 ADD DUP7 PUSH2 0x3E5B JUMP JUMPDEST PUSH2 0x43E7 PUSH1 0x20 DUP4 ADD DUP6 PUSH2 0x4264 JUMP JUMPDEST PUSH2 0x43F4 PUSH1 0x40 DUP4 ADD DUP5 PUSH2 0x4264 JUMP JUMPDEST SWAP5 SWAP4 POP POP POP POP JUMP JUMPDEST PUSH1 0x0 PUSH1 0x40 DUP3 ADD SWAP1 POP DUP2 DUP2 SUB PUSH1 0x0 DUP4 ADD MSTORE PUSH2 0x4416 DUP2 DUP6 PUSH2 0x3E81 JUMP JUMPDEST SWAP1 POP DUP2 DUP2 SUB PUSH1 0x20 DUP4 ADD MSTORE PUSH2 0x442A DUP2 DUP5 PUSH2 0x3E81 JUMP JUMPDEST SWAP1 POP SWAP4 SWAP3 POP POP POP JUMP JUMPDEST PUSH1 0x0 PUSH1 0x20 DUP3 ADD SWAP1 POP PUSH2 0x4448 PUSH1 0x0 DUP4 ADD DUP5 PUSH2 0x3EDF JUMP JUMPDEST SWAP3 SWAP2 POP POP JUMP JUMPDEST PUSH1 0x0 PUSH1 0x20 DUP3 ADD SWAP1 POP PUSH2 0x4463 PUSH1 0x0 DUP4 ADD DUP5 PUSH2 0x3EEE JUMP JUMPDEST SWAP3 SWAP2 POP POP JUMP JUMPDEST PUSH1 0x0 PUSH1 0x20 DUP3 ADD SWAP1 POP PUSH2 0x447E PUSH1 0x0 DUP4 ADD DUP5 PUSH2 0x3EFD JUMP JUMPDEST SWAP3 SWAP2 POP POP JUMP JUMPDEST PUSH1 0x0 PUSH1 0x20 DUP3 ADD SWAP1 POP DUP2 DUP2 SUB PUSH1 0x0 DUP4 ADD MSTORE PUSH2 0x449E DUP2 DUP5 PUSH2 0x3F0C JUMP JUMPDEST SWAP1 POP SWAP3 SWAP2 POP POP JUMP JUMPDEST PUSH1 0x0 PUSH1 0x20 DUP3 ADD SWAP1 POP DUP2 DUP2 SUB PUSH1 0x0 DUP4 ADD MSTORE PUSH2 0x44BF DUP2 PUSH2 0x3F76 JUMP JUMPDEST SWAP1 POP SWAP2 SWAP1 POP JUMP JUMPDEST PUSH1 0x0 PUSH1 0x20 DUP3 ADD SWAP1 POP DUP2 DUP2 SUB PUSH1 0x0 DUP4 ADD MSTORE PUSH2 0x44DF DUP2 PUSH2 0x3F99 JUMP JUMPDEST SWAP1 POP SWAP2 SWAP1 POP JUMP JUMPDEST PUSH1 0x0 PUSH1 0x20 DUP3 ADD SWAP1 POP DUP2 DUP2 SUB PUSH1 0x0 DUP4 ADD MSTORE PUSH2 0x44FF DUP2 PUSH2 0x3FBC JUMP JUMPDEST SWAP1 POP SWAP2 SWAP1 POP JUMP JUMPDEST PUSH1 0x0 PUSH1 0x20 DUP3 ADD SWAP1 POP DUP2 DUP2 SUB PUSH1 0x0 DUP4 ADD MSTORE PUSH2 0x451F DUP2 PUSH2 0x3FDF JUMP JUMPDEST SWAP1 POP SWAP2 SWAP1 POP JUMP JUMPDEST PUSH1 0x0 PUSH1 0x20 DUP3 ADD SWAP1 POP DUP2 DUP2 SUB PUSH1 0x0 DUP4 ADD MSTORE PUSH2 0x453F DUP2 PUSH2 0x4002 JUMP JUMPDEST SWAP1 POP SWAP2 SWAP1 POP JUMP JUMPDEST PUSH1 0x0 PUSH1 0x20 DUP3 ADD SWAP1 POP DUP2 DUP2 SUB PUSH1 0x0 DUP4 ADD MSTORE PUSH2 0x455F DUP2 PUSH2 0x4025 JUMP JUMPDEST SWAP1 POP SWAP2 SWAP1 POP JUMP JUMPDEST PUSH1 0x0 PUSH1 0x20 DUP3 ADD SWAP1 POP DUP2 DUP2 SUB PUSH1 0x0 DUP4 ADD MSTORE PUSH2 0x457F DUP2 PUSH2 0x4048 JUMP JUMPDEST SWAP1 POP SWAP2 SWAP1 POP JUMP JUMPDEST PUSH1 0x0 PUSH1 0x20 DUP3 ADD SWAP1 POP DUP2 DUP2 SUB PUSH1 0x0 DUP4 ADD MSTORE PUSH2 0x459F DUP2 PUSH2 0x406B JUMP JUMPDEST SWAP1 POP SWAP2 SWAP1 POP JUMP JUMPDEST PUSH1 0x0 PUSH1 0x20 DUP3 ADD SWAP1 POP DUP2 DUP2 SUB PUSH1 0x0 DUP4 ADD MSTORE PUSH2 0x45BF DUP2 PUSH2 0x408E JUMP JUMPDEST SWAP1 POP SWAP2 SWAP1 POP JUMP JUMPDEST PUSH1 0x0 PUSH1 0x20 DUP3 ADD SWAP1 POP DUP2 DUP2 SUB PUSH1 0x0 DUP4 ADD MSTORE PUSH2 0x45DF DUP2 PUSH2 0x40B1 JUMP JUMPDEST SWAP1 POP SWAP2 SWAP1 POP JUMP JUMPDEST PUSH1 0x0 PUSH1 0x20 DUP3 ADD SWAP1 POP DUP2 DUP2 SUB PUSH1 0x0 DUP4 ADD MSTORE PUSH2 0x45FF DUP2 PUSH2 0x40D4 JUMP JUMPDEST SWAP1 POP SWAP2 SWAP1 POP JUMP JUMPDEST PUSH1 0x0 PUSH1 0x20 DUP3 ADD SWAP1 POP DUP2 DUP2 SUB PUSH1 0x0 DUP4 ADD MSTORE PUSH2 0x461F DUP2 PUSH2 0x40F7 JUMP JUMPDEST SWAP1 POP SWAP2 SWAP1 POP JUMP JUMPDEST PUSH1 0x0 PUSH1 0x20 DUP3 ADD SWAP1 POP DUP2 DUP2 SUB PUSH1 0x0 DUP4 ADD MSTORE PUSH2 0x463F DUP2 PUSH2 0x411A JUMP JUMPDEST SWAP1 POP SWAP2 SWAP1 POP JUMP JUMPDEST PUSH1 0x0 PUSH1 0x20 DUP3 ADD SWAP1 POP DUP2 DUP2 SUB PUSH1 0x0 DUP4 ADD MSTORE PUSH2 0x465F DUP2 PUSH2 0x413D JUMP JUMPDEST SWAP1 POP SWAP2 SWAP1 POP JUMP JUMPDEST PUSH1 0x0 PUSH1 0x20 DUP3 ADD SWAP1 POP DUP2 DUP2 SUB PUSH1 0x0 DUP4 ADD MSTORE PUSH2 0x467F DUP2 PUSH2 0x4183 JUMP JUMPDEST SWAP1 POP SWAP2 SWAP1 POP JUMP JUMPDEST PUSH1 0x0 PUSH1 0x20 DUP3 ADD SWAP1 POP DUP2 DUP2 SUB PUSH1 0x0 DUP4 ADD MSTORE PUSH2 0x469F DUP2 PUSH2 0x41C9 JUMP JUMPDEST SWAP1 POP SWAP2 SWAP1 POP JUMP JUMPDEST PUSH1 0x0 PUSH1 0x20 DUP3 ADD SWAP1 POP DUP2 DUP2 SUB PUSH1 0x0 DUP4 ADD MSTORE PUSH2 0x46BF DUP2 PUSH2 0x420F JUMP JUMPDEST SWAP1 POP SWAP2 SWAP1 POP JUMP JUMPDEST PUSH1 0x0 PUSH1 0x20 DUP3 ADD SWAP1 POP DUP2 DUP2 SUB PUSH1 0x0 DUP4 ADD MSTORE PUSH2 0x46DF DUP2 PUSH2 0x4232 JUMP JUMPDEST SWAP1 POP SWAP2 SWAP1 POP JUMP JUMPDEST PUSH1 0x0 PUSH1 0x20 DUP3 ADD SWAP1 POP PUSH2 0x46FB PUSH1 0x0 DUP4 ADD DUP5 PUSH2 0x4264 JUMP JUMPDEST SWAP3 SWAP2 POP POP JUMP JUMPDEST PUSH1 0x0 PUSH1 0x40 DUP3 ADD SWAP1 POP PUSH2 0x4716 PUSH1 0x0 DUP4 ADD DUP6 PUSH2 0x4264 JUMP JUMPDEST PUSH2 0x4723 PUSH1 0x20 DUP4 ADD DUP5 PUSH2 0x4264 JUMP JUMPDEST SWAP4 SWAP3 POP POP POP JUMP JUMPDEST PUSH1 0x0 PUSH1 0x60 DUP3 ADD SWAP1 POP PUSH2 0x473F PUSH1 0x0 DUP4 ADD DUP7 PUSH2 0x4264 JUMP JUMPDEST PUSH2 0x474C PUSH1 0x20 DUP4 ADD DUP6 PUSH2 0x4264 JUMP JUMPDEST PUSH2 0x4759 PUSH1 0x40 DUP4 ADD DUP5 PUSH2 0x4264 JUMP JUMPDEST SWAP5 SWAP4 POP POP POP POP JUMP JUMPDEST PUSH1 0x0 PUSH2 0x476B PUSH2 0x477C JUMP JUMPDEST SWAP1 POP PUSH2 0x4777 DUP3 DUP3 PUSH2 0x4A5E JUMP JUMPDEST SWAP2 SWAP1 POP JUMP JUMPDEST PUSH1 0x0 PUSH1 0x40 MLOAD SWAP1 POP SWAP1 JUMP JUMPDEST PUSH1 0x0 PUSH8 0xFFFFFFFFFFFFFFFF DUP3 GT ISZERO PUSH2 0x47A1 JUMPI PUSH2 0x47A0 PUSH2 0x4C22 JUMP JUMPDEST JUMPDEST PUSH1 0x20 DUP3 MUL SWAP1 POP PUSH1 0x20 DUP2 ADD SWAP1 POP SWAP2 SWAP1 POP JUMP JUMPDEST PUSH1 0x0 DUP2 SWAP1 POP PUSH1 0x20 DUP3 ADD SWAP1 POP SWAP2 SWAP1 POP JUMP JUMPDEST PUSH1 0x0 DUP2 MLOAD SWAP1 POP SWAP2 SWAP1 POP JUMP JUMPDEST PUSH1 0x0 DUP2 MLOAD SWAP1 POP SWAP2 SWAP1 POP JUMP JUMPDEST PUSH1 0x0 PUSH1 0x20 DUP3 ADD SWAP1 POP SWAP2 SWAP1 POP JUMP JUMPDEST PUSH1 0x0 DUP3 DUP3 MSTORE PUSH1 0x20 DUP3 ADD SWAP1 POP SWAP3 SWAP2 POP POP JUMP JUMPDEST PUSH1 0x0 DUP2 SWAP1 POP SWAP3 SWAP2 POP POP JUMP JUMPDEST PUSH1 0x0 DUP3 DUP3 MSTORE PUSH1 0x20 DUP3 ADD SWAP1 POP SWAP3 SWAP2 POP POP JUMP JUMPDEST PUSH1 0x0 DUP2 SWAP1 POP SWAP3 SWAP2 POP POP JUMP JUMPDEST PUSH1 0x0 PUSH2 0x4828 DUP3 PUSH2 0x49A6 JUMP JUMPDEST SWAP2 POP PUSH2 0x4833 DUP4 PUSH2 0x49A6 JUMP JUMPDEST SWAP3 POP DUP3 PUSH32 0xFFFFFFFFFFFFFFFFFFFFFFFFFFFFFFFFFFFFFFFFFFFFFFFFFFFFFFFFFFFFFFFF SUB DUP3 GT ISZERO PUSH2 0x4868 JUMPI PUSH2 0x4867 PUSH2 0x4B37 JUMP JUMPDEST JUMPDEST DUP3 DUP3 ADD SWAP1 POP SWAP3 SWAP2 POP POP JUMP JUMPDEST PUSH1 0x0 PUSH2 0x487E DUP3 PUSH2 0x49A6 JUMP JUMPDEST SWAP2 POP PUSH2 0x4889 DUP4 PUSH2 0x49A6 JUMP JUMPDEST SWAP3 POP DUP3 PUSH2 0x4899 JUMPI PUSH2 0x4898 PUSH2 0x4B66 JUMP JUMPDEST JUMPDEST DUP3 DUP3 DIV SWAP1 POP SWAP3 SWAP2 POP POP JUMP JUMPDEST PUSH1 0x0 PUSH2 0x48AF DUP3 PUSH2 0x49A6 JUMP JUMPDEST SWAP2 POP PUSH2 0x48BA DUP4 PUSH2 0x49A6 JUMP JUMPDEST SWAP3 POP DUP2 PUSH32 0xFFFFFFFFFFFFFFFFFFFFFFFFFFFFFFFFFFFFFFFFFFFFFFFFFFFFFFFFFFFFFFFF DIV DUP4 GT DUP3 ISZERO ISZERO AND ISZERO PUSH2 0x48F3 JUMPI PUSH2 0x48F2 PUSH2 0x4B37 JUMP JUMPDEST JUMPDEST DUP3 DUP3 MUL SWAP1 POP SWAP3 SWAP2 POP POP JUMP JUMPDEST PUSH1 0x0 PUSH2 0x4909 DUP3 PUSH2 0x49A6 JUMP JUMPDEST SWAP2 POP PUSH2 0x4914 DUP4 PUSH2 0x49A6 JUMP JUMPDEST SWAP3 POP DUP3 DUP3 LT ISZERO PUSH2 0x4927 JUMPI PUSH2 0x4926 PUSH2 0x4B37 JUMP JUMPDEST JUMPDEST DUP3 DUP3 SUB SWAP1 POP SWAP3 SWAP2 POP POP JUMP JUMPDEST PUSH1 0x0 PUSH2 0x493D DUP3 PUSH2 0x4986 JUMP JUMPDEST SWAP1 POP SWAP2 SWAP1 POP JUMP JUMPDEST PUSH1 0x0 DUP2 ISZERO ISZERO SWAP1 POP SWAP2 SWAP1 POP JUMP JUMPDEST PUSH1 0x0 DUP2 SWAP1 POP SWAP2 SWAP1 POP JUMP JUMPDEST PUSH1 0x0 PUSH32 0xFFFFFFFF00000000000000000000000000000000000000000000000000000000 DUP3 AND SWAP1 POP SWAP2 SWAP1 POP JUMP JUMPDEST PUSH1 0x0 PUSH20 0xFFFFFFFFFFFFFFFFFFFFFFFFFFFFFFFFFFFFFFFF DUP3 AND SWAP1 POP SWAP2 SWAP1 POP JUMP JUMPDEST PUSH1 0x0 DUP2 SWAP1 POP SWAP2 SWAP1 POP JUMP JUMPDEST PUSH1 0x0 PUSH1 0xFF DUP3 AND SWAP1 POP SWAP2 SWAP1 POP JUMP JUMPDEST PUSH1 0x0 PUSH2 0x49C8 DUP3 PUSH2 0x49B0 JUMP JUMPDEST SWAP1 POP SWAP2 SWAP1 POP JUMP JUMPDEST PUSH1 0x0 JUMPDEST DUP4 DUP2 LT ISZERO PUSH2 0x49ED JUMPI DUP1 DUP3 ADD MLOAD DUP2 DUP5 ADD MSTORE PUSH1 0x20 DUP2 ADD SWAP1 POP PUSH2 0x49D2 JUMP JUMPDEST DUP4 DUP2 GT ISZERO PUSH2 0x49FC JUMPI PUSH1 0x0 DUP5 DUP5 ADD MSTORE JUMPDEST POP POP POP POP JUMP JUMPDEST PUSH1 0x0 PUSH2 0x4A0D DUP3 PUSH2 0x49A6 JUMP JUMPDEST SWAP2 POP PUSH1 0x0 DUP3 EQ ISZERO PUSH2 0x4A21 JUMPI PUSH2 0x4A20 PUSH2 0x4B37 JUMP JUMPDEST JUMPDEST PUSH1 0x1 DUP3 SUB SWAP1 POP SWAP2 SWAP1 POP JUMP JUMPDEST PUSH1 0x0 PUSH1 0x2 DUP3 DIV SWAP1 POP PUSH1 0x1 DUP3 AND DUP1 PUSH2 0x4A44 JUMPI PUSH1 0x7F DUP3 AND SWAP2 POP JUMPDEST PUSH1 0x20 DUP3 LT DUP2 EQ ISZERO PUSH2 0x4A58 JUMPI PUSH2 0x4A57 PUSH2 0x4B95 JUMP JUMPDEST JUMPDEST POP SWAP2 SWAP1 POP JUMP JUMPDEST PUSH2 0x4A67 DUP3 PUSH2 0x4C6A JUMP JUMPDEST DUP2 ADD DUP2 DUP2 LT PUSH8 0xFFFFFFFFFFFFFFFF DUP3 GT OR ISZERO PUSH2 0x4A86 JUMPI PUSH2 0x4A85 PUSH2 0x4C22 JUMP JUMPDEST JUMPDEST DUP1 PUSH1 0x40 MSTORE POP POP POP JUMP JUMPDEST PUSH1 0x0 PUSH2 0x4A9A DUP3 PUSH2 0x49A6 JUMP JUMPDEST SWAP2 POP PUSH32 0xFFFFFFFFFFFFFFFFFFFFFFFFFFFFFFFFFFFFFFFFFFFFFFFFFFFFFFFFFFFFFFFF DUP3 EQ ISZERO PUSH2 0x4ACD JUMPI PUSH2 0x4ACC PUSH2 0x4B37 JUMP JUMPDEST JUMPDEST PUSH1 0x1 DUP3 ADD SWAP1 POP SWAP2 SWAP1 POP JUMP JUMPDEST PUSH1 0x0 PUSH2 0x4AE3 DUP3 PUSH2 0x4AEA JUMP JUMPDEST SWAP1 POP SWAP2 SWAP1 POP JUMP JUMPDEST PUSH1 0x0 PUSH2 0x4AF5 DUP3 PUSH2 0x4C7B JUMP JUMPDEST SWAP1 POP SWAP2 SWAP1 POP JUMP JUMPDEST PUSH1 0x0 DUP2 SWAP1 POP SWAP2 SWAP1 POP JUMP JUMPDEST PUSH1 0x0 PUSH2 0x4B11 DUP3 PUSH2 0x49A6 JUMP JUMPDEST SWAP2 POP PUSH2 0x4B1C DUP4 PUSH2 0x49A6 JUMP JUMPDEST SWAP3 POP DUP3 PUSH2 0x4B2C JUMPI PUSH2 0x4B2B PUSH2 0x4B66 JUMP JUMPDEST JUMPDEST DUP3 DUP3 MOD SWAP1 POP SWAP3 SWAP2 POP POP JUMP JUMPDEST PUSH32 0x4E487B7100000000000000000000000000000000000000000000000000000000 PUSH1 0x0 MSTORE PUSH1 0x11 PUSH1 0x4 MSTORE PUSH1 0x24 PUSH1 0x0 REVERT JUMPDEST PUSH32 0x4E487B7100000000000000000000000000000000000000000000000000000000 PUSH1 0x0 MSTORE PUSH1 0x12 PUSH1 0x4 MSTORE PUSH1 0x24 PUSH1 0x0 REVERT JUMPDEST PUSH32 0x4E487B7100000000000000000000000000000000000000000000000000000000 PUSH1 0x0 MSTORE PUSH1 0x22 PUSH1 0x4 MSTORE PUSH1 0x24 PUSH1 0x0 REVERT JUMPDEST PUSH32 0x4E487B7100000000000000000000000000000000000000000000000000000000 PUSH1 0x0 MSTORE PUSH1 0x31 PUSH1 0x4 MSTORE PUSH1 0x24 PUSH1 0x0 REVERT JUMPDEST PUSH32 0x4E487B7100000000000000000000000000000000000000000000000000000000 PUSH1 0x0 MSTORE PUSH1 0x32 PUSH1 0x4 MSTORE PUSH1 0x24 PUSH1 0x0 REVERT JUMPDEST PUSH32 0x4E487B7100000000000000000000000000000000000000000000000000000000 PUSH1 0x0 MSTORE PUSH1 0x41 PUSH1 0x4 MSTORE PUSH1 0x24 PUSH1 0x0 REVERT JUMPDEST PUSH1 0x0 DUP1 REVERT JUMPDEST PUSH1 0x0 DUP1 REVERT JUMPDEST PUSH1 0x0 DUP1 REVERT JUMPDEST PUSH1 0x0 DUP1 REVERT JUMPDEST PUSH1 0x0 DUP1 REVERT JUMPDEST PUSH1 0x0 PUSH1 0x1F NOT PUSH1 0x1F DUP4 ADD AND SWAP1 POP SWAP2 SWAP1 POP JUMP JUMPDEST PUSH1 0x0 DUP2 PUSH1 0x60 SHL SWAP1 POP SWAP2 SWAP1 POP JUMP JUMPDEST PUSH32 0x537472696E67733A20686578206C656E67746820696E73756666696369656E74 PUSH1 0x0 DUP3 ADD MSTORE POP JUMP JUMPDEST PUSH32 0x73656C6C206F7574000000000000000000000000000000000000000000000000 PUSH1 0x0 DUP3 ADD MSTORE POP JUMP JUMPDEST PUSH32 0x6E6F7420616C6C6F77656420746F206275790000000000000000000000000000 PUSH1 0x0 DUP3 ADD MSTORE POP JUMP JUMPDEST PUSH32 0x6E756D626572206572726F720000000000000000000000000000000000000000 PUSH1 0x0 DUP3 ADD MSTORE POP JUMP JUMPDEST PUSH32 0x4F776E61626C653A206E6577206F776E657220697320746865207A65726F2061 PUSH1 0x0 DUP3 ADD MSTORE PUSH32 0x6464726573730000000000000000000000000000000000000000000000000000 PUSH1 0x20 DUP3 ADD MSTORE POP JUMP JUMPDEST PUSH32 0x746865206D6178696D756D2076616C7565206973206578636565646564000000 PUSH1 0x0 DUP3 ADD MSTORE POP JUMP JUMPDEST PUSH32 0x496E697469616C697A61626C653A20636F6E747261637420697320616C726561 PUSH1 0x0 DUP3 ADD MSTORE PUSH32 0x647920696E697469616C697A6564000000000000000000000000000000000000 PUSH1 0x20 DUP3 ADD MSTORE POP JUMP JUMPDEST PUSH32 0x45786365656465642074696D6573000000000000000000000000000000000000 PUSH1 0x0 DUP3 ADD MSTORE POP JUMP JUMPDEST PUSH32 0x4F776E61626C653A2063616C6C6572206973206E6F7420746865206F776E6572 PUSH1 0x0 DUP3 ADD MSTORE POP JUMP JUMPDEST PUSH32 0x706179626C65206572726F720000000000000000000000000000000000000000 PUSH1 0x0 DUP3 ADD MSTORE POP JUMP JUMPDEST PUSH32 0x6E31000000000000000000000000000000000000000000000000000000000000 PUSH1 0x0 DUP3 ADD MSTORE POP JUMP JUMPDEST PUSH32 0x6E32000000000000000000000000000000000000000000000000000000000000 PUSH1 0x0 DUP3 ADD MSTORE POP JUMP JUMPDEST PUSH32 0x6E6F20656E6F756768207469636B657400000000000000000000000000000000 PUSH1 0x0 DUP3 ADD MSTORE POP JUMP JUMPDEST PUSH32 0x6E33000000000000000000000000000000000000000000000000000000000000 PUSH1 0x0 DUP3 ADD MSTORE POP JUMP JUMPDEST POP JUMP JUMPDEST PUSH32 0x496E697469616C697A61626C653A20636F6E7472616374206973206E6F742069 PUSH1 0x0 DUP3 ADD MSTORE PUSH32 0x6E697469616C697A696E67000000000000000000000000000000000000000000 PUSH1 0x20 DUP3 ADD MSTORE POP JUMP JUMPDEST PUSH32 0x416363657373436F6E74726F6C3A206163636F756E7420000000000000000000 PUSH1 0x0 DUP3 ADD MSTORE POP JUMP JUMPDEST PUSH32 0x746F74616C537570706C79206572726F72000000000000000000000000000000 PUSH1 0x0 DUP3 ADD MSTORE POP JUMP JUMPDEST PUSH32 0x206973206D697373696E6720726F6C6520000000000000000000000000000000 PUSH1 0x0 DUP3 ADD MSTORE POP JUMP JUMPDEST PUSH32 0x416363657373436F6E74726F6C3A2063616E206F6E6C792072656E6F756E6365 PUSH1 0x0 DUP3 ADD MSTORE PUSH32 0x20726F6C657320666F722073656C660000000000000000000000000000000000 PUSH1 0x20 DUP3 ADD MSTORE POP JUMP JUMPDEST PUSH32 0x76616C7565206572726F72000000000000000000000000000000000000000000 PUSH1 0x0 DUP3 ADD MSTORE POP JUMP JUMPDEST PUSH2 0x5060 DUP2 PUSH2 0x4932 JUMP JUMPDEST DUP2 EQ PUSH2 0x506B JUMPI PUSH1 0x0 DUP1 REVERT JUMPDEST POP JUMP JUMPDEST PUSH2 0x5077 DUP2 PUSH2 0x4944 JUMP JUMPDEST DUP2 EQ PUSH2 0x5082 JUMPI PUSH1 0x0 DUP1 REVERT JUMPDEST POP JUMP JUMPDEST PUSH2 0x508E DUP2 PUSH2 0x4950 JUMP JUMPDEST DUP2 EQ PUSH2 0x5099 JUMPI PUSH1 0x0 DUP1 REVERT JUMPDEST POP JUMP JUMPDEST PUSH2 0x50A5 DUP2 PUSH2 0x495A JUMP JUMPDEST DUP2 EQ PUSH2 0x50B0 JUMPI PUSH1 0x0 DUP1 REVERT JUMPDEST POP JUMP JUMPDEST PUSH2 0x50BC DUP2 PUSH2 0x49A6 JUMP JUMPDEST DUP2 EQ PUSH2 0x50C7 JUMPI PUSH1 0x0 DUP1 REVERT JUMPDEST POP JUMP INVALID LOG2 PUSH5 0x6970667358 0x22 SLT KECCAK256 0xAF NUMBER XOR SAR 0xBB SAR PUSH17 0x3514DDA88070262642CA7DB708A4E34AC4 SLOAD SMOD CODECOPY 0xB3 MUL SWAP14 CALLER SUB PUSH5 0x736F6C6343 STOP ADDMOD SMOD STOP CALLER "
		},
		"gasEstimates": {
			"creation": {
				"codeDepositCost": "4147200",
				"executionCost": "29026",
				"totalCost": "4176226"
			},
			"external": {
				"ADMIN_ROLE()": "463",
				"DEFAULT_ADMIN_ROLE()": "402",
				"OPERATOR_ROLE()": "417",
				"currentRound()": "2562",
				"erc1155Card()": "2581",
				"erc1155Vip()": "2603",
				"freeCity()": "2610",
				"getMintPrice(address,uint256)": "infinite",
				"getPayee()": "2567",
				"getPriceRange(uint256)": "infinite",
				"getRoleAdmin(bytes32)": "infinite",
				"getRoleMember(bytes32,uint256)": "infinite",
				"getRoleMemberCount(bytes32)": "3019",
				"getRoundInfo(uint256)": "infinite",
				"getVipPrice(uint256,uint256)": "infinite",
				"grantRole(bytes32,address)": "infinite",
				"hasRole(bytes32,address)": "3252",
				"initialize(address,address,uint256,address,address,address)": "infinite",
				"mintAmount()": "2497",
				"owner()": "2590",
				"preSale(uint256)": "infinite",
				"renounceOwnership()": "30488",
				"renounceRole(bytes32,address)": "infinite",
				"revokeRole(bytes32,address)": "infinite",
				"saleVip(uint256,uint256)": "infinite",
				"setCanSell(bool)": "infinite",
				"setCurrentRound(uint256)": "infinite",
				"setErc1155CardContract(address)": "infinite",
				"setErc1155VipContract(address)": "infinite",
				"setFreeCityContract(address)": "infinite",
				"setMintAmount(uint256)": "infinite",
				"setPayee(address)": "infinite",
				"setRoleAdmin(bytes32,bytes32)": "infinite",
				"setRoundInfo(uint256,uint256,string,uint256[],uint256[])": "infinite",
				"supportsInterface(bytes4)": "863",
				"transferOwnership(address)": "30813",
				"updateRoundInfo(uint256,uint256,uint256,string,uint256[],uint256[])": "infinite",
				"userBuyTotal(address)": "2947",
				"vipTotal(address,uint256)": "infinite",
				"withDraw(address)": "infinite"
			},
			"internal": {
				"__BenefitCard_init_Role(address)": "infinite",
				"_needVipTicket(uint256,uint256)": "infinite",
				"getRoundBasePrice(uint256)": "infinite",
				"randomIndex()": "infinite"
			}
		},
		"methodIdentifiers": {
			"ADMIN_ROLE()": "75b238fc",
			"DEFAULT_ADMIN_ROLE()": "a217fddf",
			"OPERATOR_ROLE()": "f5b541a6",
			"currentRound()": "8a19c8bc",
			"erc1155Card()": "cde60c9f",
			"erc1155Vip()": "c5d90822",
			"freeCity()": "8acfc82c",
			"getMintPrice(address,uint256)": "87944db8",
			"getPayee()": "cd446735",
			"getPriceRange(uint256)": "38b7b79e",
			"getRoleAdmin(bytes32)": "248a9ca3",
			"getRoleMember(bytes32,uint256)": "9010d07c",
			"getRoleMemberCount(bytes32)": "ca15c873",
			"getRoundInfo(uint256)": "88c3ffb0",
			"getVipPrice(uint256,uint256)": "973ad7ae",
			"grantRole(bytes32,address)": "2f2ff15d",
			"hasRole(bytes32,address)": "91d14854",
			"initialize(address,address,uint256,address,address,address)": "ff9935cb",
			"mintAmount()": "5a2bcc18",
			"owner()": "8da5cb5b",
			"preSale(uint256)": "131f4104",
			"renounceOwnership()": "715018a6",
			"renounceRole(bytes32,address)": "36568abe",
			"revokeRole(bytes32,address)": "d547741f",
			"saleVip(uint256,uint256)": "dc4ed887",
			"setCanSell(bool)": "f6d5855d",
			"setCurrentRound(uint256)": "3bc91e28",
			"setErc1155CardContract(address)": "843ca90d",
			"setErc1155VipContract(address)": "eb208660",
			"setFreeCityContract(address)": "34a4c4c9",
			"setMintAmount(uint256)": "c7cd997f",
			"setPayee(address)": "410459ad",
			"setRoleAdmin(bytes32,bytes32)": "1e4e0091",
			"setRoundInfo(uint256,uint256,string,uint256[],uint256[])": "7b45e5de",
			"supportsInterface(bytes4)": "01ffc9a7",
			"transferOwnership(address)": "f2fde38b",
			"updateRoundInfo(uint256,uint256,uint256,string,uint256[],uint256[])": "95f03f89",
			"userBuyTotal(address)": "e7e709c0",
			"vipTotal(address,uint256)": "72f3598f",
			"withDraw(address)": "0a67d2c7"
		}
	},
	"abi": [
		{
			"anonymous": false,
			"inputs": [
				{
					"indexed": true,
					"internalType": "address",
					"name": "user",
					"type": "address"
				},
				{
					"indexed": true,
					"internalType": "uint256",
					"name": "count",
					"type": "uint256"
				},
				{
					"indexed": false,
					"internalType": "uint256",
					"name": "round",
					"type": "uint256"
				},
				{
					"indexed": false,
					"internalType": "uint256",
					"name": "value",
					"type": "uint256"
				}
			],
			"name": "BuyEvent",
			"type": "event"
		},
		{
			"anonymous": false,
			"inputs": [
				{
					"indexed": true,
					"internalType": "address",
					"name": "user",
					"type": "address"
				},
				{
					"indexed": true,
					"internalType": "uint256",
					"name": "tokenId",
					"type": "uint256"
				},
				{
					"indexed": false,
					"internalType": "uint256",
					"name": "count",
					"type": "uint256"
				},
				{
					"indexed": false,
					"internalType": "uint256",
					"name": "value",
					"type": "uint256"
				}
			],
			"name": "BuyVipEvent",
			"type": "event"
		},
		{
			"anonymous": false,
			"inputs": [
				{
					"indexed": false,
					"internalType": "uint8",
					"name": "version",
					"type": "uint8"
				}
			],
			"name": "Initialized",
			"type": "event"
		},
		{
			"anonymous": false,
			"inputs": [
				{
					"indexed": true,
					"internalType": "address",
					"name": "previousOwner",
					"type": "address"
				},
				{
					"indexed": true,
					"internalType": "address",
					"name": "newOwner",
					"type": "address"
				}
			],
			"name": "OwnershipTransferred",
			"type": "event"
		},
		{
			"anonymous": false,
			"inputs": [
				{
					"indexed": true,
					"internalType": "bytes32",
					"name": "role",
					"type": "bytes32"
				},
				{
					"indexed": true,
					"internalType": "bytes32",
					"name": "previousAdminRole",
					"type": "bytes32"
				},
				{
					"indexed": true,
					"internalType": "bytes32",
					"name": "newAdminRole",
					"type": "bytes32"
				}
			],
			"name": "RoleAdminChanged",
			"type": "event"
		},
		{
			"anonymous": false,
			"inputs": [
				{
					"indexed": true,
					"internalType": "bytes32",
					"name": "role",
					"type": "bytes32"
				},
				{
					"indexed": true,
					"internalType": "address",
					"name": "account",
					"type": "address"
				},
				{
					"indexed": true,
					"internalType": "address",
					"name": "sender",
					"type": "address"
				}
			],
			"name": "RoleGranted",
			"type": "event"
		},
		{
			"anonymous": false,
			"inputs": [
				{
					"indexed": true,
					"internalType": "bytes32",
					"name": "role",
					"type": "bytes32"
				},
				{
					"indexed": true,
					"internalType": "address",
					"name": "account",
					"type": "address"
				},
				{
					"indexed": true,
					"internalType": "address",
					"name": "sender",
					"type": "address"
				}
			],
			"name": "RoleRevoked",
			"type": "event"
		},
		{
			"inputs": [],
			"name": "ADMIN_ROLE",
			"outputs": [
				{
					"internalType": "bytes32",
					"name": "",
					"type": "bytes32"
				}
			],
			"stateMutability": "view",
			"type": "function"
		},
		{
			"inputs": [],
			"name": "DEFAULT_ADMIN_ROLE",
			"outputs": [
				{
					"internalType": "bytes32",
					"name": "",
					"type": "bytes32"
				}
			],
			"stateMutability": "view",
			"type": "function"
		},
		{
			"inputs": [],
			"name": "OPERATOR_ROLE",
			"outputs": [
				{
					"internalType": "bytes32",
					"name": "",
					"type": "bytes32"
				}
			],
			"stateMutability": "view",
			"type": "function"
		},
		{
			"inputs": [],
			"name": "currentRound",
			"outputs": [
				{
					"internalType": "uint256",
					"name": "",
					"type": "uint256"
				}
			],
			"stateMutability": "view",
			"type": "function"
		},
		{
			"inputs": [],
			"name": "erc1155Card",
			"outputs": [
				{
					"internalType": "address",
					"name": "",
					"type": "address"
				}
			],
			"stateMutability": "view",
			"type": "function"
		},
		{
			"inputs": [],
			"name": "erc1155Vip",
			"outputs": [
				{
					"internalType": "address",
					"name": "",
					"type": "address"
				}
			],
			"stateMutability": "view",
			"type": "function"
		},
		{
			"inputs": [],
			"name": "freeCity",
			"outputs": [
				{
					"internalType": "address",
					"name": "",
					"type": "address"
				}
			],
			"stateMutability": "view",
			"type": "function"
		},
		{
			"inputs": [
				{
					"internalType": "address",
					"name": "account",
					"type": "address"
				},
				{
					"internalType": "uint256",
					"name": "numberOfTokens",
					"type": "uint256"
				}
			],
			"name": "getMintPrice",
			"outputs": [
				{
					"internalType": "uint256",
					"name": "",
					"type": "uint256"
				}
			],
			"stateMutability": "view",
			"type": "function"
		},
		{
			"inputs": [],
			"name": "getPayee",
			"outputs": [
				{
					"internalType": "address",
					"name": "",
					"type": "address"
				}
			],
			"stateMutability": "view",
			"type": "function"
		},
		{
			"inputs": [
				{
					"internalType": "uint256",
					"name": "_round",
					"type": "uint256"
				}
			],
			"name": "getPriceRange",
			"outputs": [
				{
					"internalType": "uint256[]",
					"name": "",
					"type": "uint256[]"
				},
				{
					"internalType": "uint256[]",
					"name": "",
					"type": "uint256[]"
				}
			],
			"stateMutability": "view",
			"type": "function"
		},
		{
			"inputs": [
				{
					"internalType": "bytes32",
					"name": "role",
					"type": "bytes32"
				}
			],
			"name": "getRoleAdmin",
			"outputs": [
				{
					"internalType": "bytes32",
					"name": "",
					"type": "bytes32"
				}
			],
			"stateMutability": "view",
			"type": "function"
		},
		{
			"inputs": [
				{
					"internalType": "bytes32",
					"name": "role",
					"type": "bytes32"
				},
				{
					"internalType": "uint256",
					"name": "index",
					"type": "uint256"
				}
			],
			"name": "getRoleMember",
			"outputs": [
				{
					"internalType": "address",
					"name": "",
					"type": "address"
				}
			],
			"stateMutability": "view",
			"type": "function"
		},
		{
			"inputs": [
				{
					"internalType": "bytes32",
					"name": "role",
					"type": "bytes32"
				}
			],
			"name": "getRoleMemberCount",
			"outputs": [
				{
					"internalType": "uint256",
					"name": "",
					"type": "uint256"
				}
			],
			"stateMutability": "view",
			"type": "function"
		},
		{
			"inputs": [
				{
					"internalType": "uint256",
					"name": "_round",
					"type": "uint256"
				}
			],
			"name": "getRoundInfo",
			"outputs": [
				{
					"internalType": "uint256",
					"name": "total",
					"type": "uint256"
				},
				{
					"internalType": "uint256",
					"name": "alreadyTotal",
					"type": "uint256"
				},
				{
					"internalType": "uint256",
					"name": "price",
					"type": "uint256"
				}
			],
			"stateMutability": "view",
			"type": "function"
		},
		{
			"inputs": [
				{
					"internalType": "uint256",
					"name": "tokenId",
					"type": "uint256"
				},
				{
					"internalType": "uint256",
					"name": "numberOfTokens",
					"type": "uint256"
				}
			],
			"name": "getVipPrice",
			"outputs": [
				{
					"internalType": "uint256",
					"name": "",
					"type": "uint256"
				}
			],
			"stateMutability": "view",
			"type": "function"
		},
		{
			"inputs": [
				{
					"internalType": "bytes32",
					"name": "role",
					"type": "bytes32"
				},
				{
					"internalType": "address",
					"name": "account",
					"type": "address"
				}
			],
			"name": "grantRole",
			"outputs": [],
			"stateMutability": "nonpayable",
			"type": "function"
		},
		{
			"inputs": [
				{
					"internalType": "bytes32",
					"name": "role",
					"type": "bytes32"
				},
				{
					"internalType": "address",
					"name": "account",
					"type": "address"
				}
			],
			"name": "hasRole",
			"outputs": [
				{
					"internalType": "bool",
					"name": "",
					"type": "bool"
				}
			],
			"stateMutability": "view",
			"type": "function"
		},
		{
			"inputs": [
				{
					"internalType": "address",
					"name": "_owner",
					"type": "address"
				},
				{
					"internalType": "address",
					"name": "_payee_",
					"type": "address"
				},
				{
					"internalType": "uint256",
					"name": "_mintAmount",
					"type": "uint256"
				},
				{
					"internalType": "address",
					"name": "_freeCity",
					"type": "address"
				},
				{
					"internalType": "address",
					"name": "_erc1155Card",
					"type": "address"
				},
				{
					"internalType": "address",
					"name": "_erc1155Vip",
					"type": "address"
				}
			],
			"name": "initialize",
			"outputs": [],
			"stateMutability": "nonpayable",
			"type": "function"
		},
		{
			"inputs": [],
			"name": "mintAmount",
			"outputs": [
				{
					"internalType": "uint256",
					"name": "",
					"type": "uint256"
				}
			],
			"stateMutability": "view",
			"type": "function"
		},
		{
			"inputs": [],
			"name": "owner",
			"outputs": [
				{
					"internalType": "address",
					"name": "",
					"type": "address"
				}
			],
			"stateMutability": "view",
			"type": "function"
		},
		{
			"inputs": [
				{
					"internalType": "uint256",
					"name": "numberOfTokens",
					"type": "uint256"
				}
			],
			"name": "preSale",
			"outputs": [],
			"stateMutability": "payable",
			"type": "function"
		},
		{
			"inputs": [],
			"name": "renounceOwnership",
			"outputs": [],
			"stateMutability": "nonpayable",
			"type": "function"
		},
		{
			"inputs": [
				{
					"internalType": "bytes32",
					"name": "role",
					"type": "bytes32"
				},
				{
					"internalType": "address",
					"name": "account",
					"type": "address"
				}
			],
			"name": "renounceRole",
			"outputs": [],
			"stateMutability": "nonpayable",
			"type": "function"
		},
		{
			"inputs": [
				{
					"internalType": "bytes32",
					"name": "role",
					"type": "bytes32"
				},
				{
					"internalType": "address",
					"name": "account",
					"type": "address"
				}
			],
			"name": "revokeRole",
			"outputs": [],
			"stateMutability": "nonpayable",
			"type": "function"
		},
		{
			"inputs": [
				{
					"internalType": "uint256",
					"name": "tokenId",
					"type": "uint256"
				},
				{
					"internalType": "uint256",
					"name": "numberOfTokens",
					"type": "uint256"
				}
			],
			"name": "saleVip",
			"outputs": [],
			"stateMutability": "payable",
			"type": "function"
		},
		{
			"inputs": [
				{
					"internalType": "bool",
					"name": "_canSell",
					"type": "bool"
				}
			],
			"name": "setCanSell",
			"outputs": [],
			"stateMutability": "nonpayable",
			"type": "function"
		},
		{
			"inputs": [
				{
					"internalType": "uint256",
					"name": "_round",
					"type": "uint256"
				}
			],
			"name": "setCurrentRound",
			"outputs": [],
			"stateMutability": "nonpayable",
			"type": "function"
		},
		{
			"inputs": [
				{
					"internalType": "address",
					"name": "_erc1155Card",
					"type": "address"
				}
			],
			"name": "setErc1155CardContract",
			"outputs": [],
			"stateMutability": "nonpayable",
			"type": "function"
		},
		{
			"inputs": [
				{
					"internalType": "address",
					"name": "_erc1155Vip",
					"type": "address"
				}
			],
			"name": "setErc1155VipContract",
			"outputs": [],
			"stateMutability": "nonpayable",
			"type": "function"
		},
		{
			"inputs": [
				{
					"internalType": "address",
					"name": "_freeCity",
					"type": "address"
				}
			],
			"name": "setFreeCityContract",
			"outputs": [],
			"stateMutability": "nonpayable",
			"type": "function"
		},
		{
			"inputs": [
				{
					"internalType": "uint256",
					"name": "_mintAmount",
					"type": "uint256"
				}
			],
			"name": "setMintAmount",
			"outputs": [],
			"stateMutability": "nonpayable",
			"type": "function"
		},
		{
			"inputs": [
				{
					"internalType": "address",
					"name": "_newPayee",
					"type": "address"
				}
			],
			"name": "setPayee",
			"outputs": [],
			"stateMutability": "nonpayable",
			"type": "function"
		},
		{
			"inputs": [
				{
					"internalType": "bytes32",
					"name": "roleId",
					"type": "bytes32"
				},
				{
					"internalType": "bytes32",
					"name": "adminRoleId",
					"type": "bytes32"
				}
			],
			"name": "setRoleAdmin",
			"outputs": [],
			"stateMutability": "nonpayable",
			"type": "function"
		},
		{
			"inputs": [
				{
					"internalType": "uint256",
					"name": "_round",
					"type": "uint256"
				},
				{
					"internalType": "uint256",
					"name": "_totalSupply",
					"type": "uint256"
				},
				{
					"internalType": "string",
					"name": "baseUri",
					"type": "string"
				},
				{
					"internalType": "uint256[]",
					"name": "ranges",
					"type": "uint256[]"
				},
				{
					"internalType": "uint256[]",
					"name": "prices",
					"type": "uint256[]"
				}
			],
			"name": "setRoundInfo",
			"outputs": [],
			"stateMutability": "nonpayable",
			"type": "function"
		},
		{
			"inputs": [
				{
					"internalType": "bytes4",
					"name": "interfaceId",
					"type": "bytes4"
				}
			],
			"name": "supportsInterface",
			"outputs": [
				{
					"internalType": "bool",
					"name": "",
					"type": "bool"
				}
			],
			"stateMutability": "view",
			"type": "function"
		},
		{
			"inputs": [
				{
					"internalType": "address",
					"name": "newOwner",
					"type": "address"
				}
			],
			"name": "transferOwnership",
			"outputs": [],
			"stateMutability": "nonpayable",
			"type": "function"
		},
		{
			"inputs": [
				{
					"internalType": "uint256",
					"name": "_round",
					"type": "uint256"
				},
				{
					"internalType": "uint256",
					"name": "_totalSupply",
					"type": "uint256"
				},
				{
					"internalType": "uint256",
					"name": "_alreadNonce",
					"type": "uint256"
				},
				{
					"internalType": "string",
					"name": "baseUri",
					"type": "string"
				},
				{
					"internalType": "uint256[]",
					"name": "ranges",
					"type": "uint256[]"
				},
				{
					"internalType": "uint256[]",
					"name": "prices",
					"type": "uint256[]"
				}
			],
			"name": "updateRoundInfo",
			"outputs": [],
			"stateMutability": "nonpayable",
			"type": "function"
		},
		{
			"inputs": [
				{
					"internalType": "address",
					"name": "",
					"type": "address"
				}
			],
			"name": "userBuyTotal",
			"outputs": [
				{
					"internalType": "uint256",
					"name": "",
					"type": "uint256"
				}
			],
			"stateMutability": "view",
			"type": "function"
		},
		{
			"inputs": [
				{
					"internalType": "address",
					"name": "",
					"type": "address"
				},
				{
					"internalType": "uint256",
					"name": "",
					"type": "uint256"
				}
			],
			"name": "vipTotal",
			"outputs": [
				{
					"internalType": "uint256",
					"name": "",
					"type": "uint256"
				}
			],
			"stateMutability": "view",
			"type": "function"
		},
		{
			"inputs": [
				{
					"internalType": "address",
					"name": "to",
					"type": "address"
				}
			],
			"name": "withDraw",
			"outputs": [],
			"stateMutability": "nonpayable",
			"type": "function"
		}
	]
}